{
  "contracts/Erc1484.sol": {
    "Erc1484": {
      "abi": [
        {
          "anonymous": false,
          "inputs": [
            {
              "indexed": true,
              "internalType": "address",
              "name": "initiator",
              "type": "address"
            },
            {
              "indexed": true,
              "internalType": "uint256",
              "name": "ein",
              "type": "uint256"
            },
            {
              "indexed": false,
              "internalType": "address",
              "name": "approvingAddress",
              "type": "address"
            },
            {
              "indexed": false,
              "internalType": "address",
              "name": "addedAddress",
              "type": "address"
            }
          ],
          "name": "AssociatedAddressAdded",
          "type": "event"
        },
        {
          "anonymous": false,
          "inputs": [
            {
              "indexed": true,
              "internalType": "address",
              "name": "initiator",
              "type": "address"
            },
            {
              "indexed": true,
              "internalType": "uint256",
              "name": "ein",
              "type": "uint256"
            },
            {
              "indexed": false,
              "internalType": "address",
              "name": "removedAddress",
              "type": "address"
            }
          ],
          "name": "AssociatedAddressRemoved",
          "type": "event"
        },
        {
          "anonymous": false,
          "inputs": [
            {
              "indexed": true,
              "internalType": "address",
              "name": "initiator",
              "type": "address"
            },
            {
              "indexed": true,
              "internalType": "uint256",
              "name": "ein",
              "type": "uint256"
            },
            {
              "indexed": false,
              "internalType": "address",
              "name": "recoveryAddress",
              "type": "address"
            },
            {
              "indexed": false,
              "internalType": "address",
              "name": "associatedAddress",
              "type": "address"
            },
            {
              "indexed": false,
              "internalType": "address[]",
              "name": "providers",
              "type": "address[]"
            },
            {
              "indexed": false,
              "internalType": "address[]",
              "name": "resolvers",
              "type": "address[]"
            },
            {
              "indexed": false,
              "internalType": "bool",
              "name": "delegated",
              "type": "bool"
            }
          ],
          "name": "IdentityCreated",
          "type": "event"
        },
        {
          "anonymous": false,
          "inputs": [
            {
              "indexed": true,
              "internalType": "address",
              "name": "initiator",
              "type": "address"
            },
            {
              "indexed": true,
              "internalType": "uint256",
              "name": "ein",
              "type": "uint256"
            },
            {
              "indexed": false,
              "internalType": "address",
              "name": "recoveryAddress",
              "type": "address"
            },
            {
              "indexed": false,
              "internalType": "bool",
              "name": "resolversReset",
              "type": "bool"
            }
          ],
          "name": "IdentityDestroyed",
          "type": "event"
        },
        {
          "anonymous": false,
          "inputs": [
            {
              "indexed": true,
              "internalType": "address",
              "name": "initiator",
              "type": "address"
            },
            {
              "indexed": true,
              "internalType": "uint256",
              "name": "ein",
              "type": "uint256"
            },
            {
              "indexed": false,
              "internalType": "address",
              "name": "provider",
              "type": "address"
            },
            {
              "indexed": false,
              "internalType": "bool",
              "name": "delegated",
              "type": "bool"
            }
          ],
          "name": "ProviderAdded",
          "type": "event"
        },
        {
          "anonymous": false,
          "inputs": [
            {
              "indexed": true,
              "internalType": "address",
              "name": "initiator",
              "type": "address"
            },
            {
              "indexed": true,
              "internalType": "uint256",
              "name": "ein",
              "type": "uint256"
            },
            {
              "indexed": false,
              "internalType": "address",
              "name": "provider",
              "type": "address"
            },
            {
              "indexed": false,
              "internalType": "bool",
              "name": "delegated",
              "type": "bool"
            }
          ],
          "name": "ProviderRemoved",
          "type": "event"
        },
        {
          "anonymous": false,
          "inputs": [
            {
              "indexed": true,
              "internalType": "address",
              "name": "initiator",
              "type": "address"
            },
            {
              "indexed": true,
              "internalType": "uint256",
              "name": "ein",
              "type": "uint256"
            },
            {
              "indexed": false,
              "internalType": "address",
              "name": "oldRecoveryAddress",
              "type": "address"
            },
            {
              "indexed": false,
              "internalType": "address",
              "name": "newRecoveryAddress",
              "type": "address"
            }
          ],
          "name": "RecoveryAddressChangeTriggered",
          "type": "event"
        },
        {
          "anonymous": false,
          "inputs": [
            {
              "indexed": true,
              "internalType": "address",
              "name": "initiator",
              "type": "address"
            },
            {
              "indexed": true,
              "internalType": "uint256",
              "name": "ein",
              "type": "uint256"
            },
            {
              "indexed": false,
              "internalType": "address[]",
              "name": "oldAssociatedAddresses",
              "type": "address[]"
            },
            {
              "indexed": false,
              "internalType": "address",
              "name": "newAssociatedAddress",
              "type": "address"
            }
          ],
          "name": "RecoveryTriggered",
          "type": "event"
        },
        {
          "anonymous": false,
          "inputs": [
            {
              "indexed": true,
              "internalType": "address",
              "name": "initiator",
              "type": "address"
            },
            {
              "indexed": true,
              "internalType": "uint256",
              "name": "ein",
              "type": "uint256"
            },
            {
              "indexed": false,
              "internalType": "address",
              "name": "resolvers",
              "type": "address"
            }
          ],
          "name": "ResolverAdded",
          "type": "event"
        },
        {
          "anonymous": false,
          "inputs": [
            {
              "indexed": true,
              "internalType": "address",
              "name": "initiator",
              "type": "address"
            },
            {
              "indexed": true,
              "internalType": "uint256",
              "name": "ein",
              "type": "uint256"
            },
            {
              "indexed": false,
              "internalType": "address",
              "name": "resolvers",
              "type": "address"
            }
          ],
          "name": "ResolverRemoved",
          "type": "event"
        },
        {
          "inputs": [
            {
              "internalType": "address",
              "name": "approvingAddress",
              "type": "address"
            },
            {
              "internalType": "address",
              "name": "addressToAdd",
              "type": "address"
            },
            {
              "internalType": "uint8",
              "name": "v",
              "type": "uint8"
            },
            {
              "internalType": "bytes32",
              "name": "r",
              "type": "bytes32"
            },
            {
              "internalType": "bytes32",
              "name": "s",
              "type": "bytes32"
            },
            {
              "internalType": "uint256",
              "name": "timestamp",
              "type": "uint256"
            }
          ],
          "name": "addAssociatedAddress",
          "outputs": [],
          "stateMutability": "nonpayable",
          "type": "function"
        },
        {
          "inputs": [
            {
              "internalType": "address",
              "name": "approvingAddress",
              "type": "address"
            },
            {
              "internalType": "address",
              "name": "addressToAdd",
              "type": "address"
            },
            {
              "internalType": "uint8[2]",
              "name": "v",
              "type": "uint8[2]"
            },
            {
              "internalType": "bytes32[2]",
              "name": "r",
              "type": "bytes32[2]"
            },
            {
              "internalType": "bytes32[2]",
              "name": "s",
              "type": "bytes32[2]"
            },
            {
              "internalType": "uint256[2]",
              "name": "timestamp",
              "type": "uint256[2]"
            }
          ],
          "name": "addAssociatedAddressDelegated",
          "outputs": [],
          "stateMutability": "nonpayable",
          "type": "function"
        },
        {
          "inputs": [
            {
              "internalType": "address[]",
              "name": "providers",
              "type": "address[]"
            }
          ],
          "name": "addProviders",
          "outputs": [],
          "stateMutability": "nonpayable",
          "type": "function"
        },
        {
          "inputs": [
            {
              "internalType": "uint256",
              "name": "ein",
              "type": "uint256"
            },
            {
              "internalType": "address[]",
              "name": "providers",
              "type": "address[]"
            }
          ],
          "name": "addProvidersFor",
          "outputs": [],
          "stateMutability": "nonpayable",
          "type": "function"
        },
        {
          "inputs": [
            {
              "internalType": "address[]",
              "name": "resolvers",
              "type": "address[]"
            }
          ],
          "name": "addResolvers",
          "outputs": [],
          "stateMutability": "nonpayable",
          "type": "function"
        },
        {
          "inputs": [
            {
              "internalType": "uint256",
              "name": "ein",
              "type": "uint256"
            },
            {
              "internalType": "address[]",
              "name": "resolvers",
              "type": "address[]"
            }
          ],
          "name": "addResolversFor",
          "outputs": [],
          "stateMutability": "nonpayable",
          "type": "function"
        },
        {
          "inputs": [
            {
              "internalType": "address",
              "name": "recoveryAddress",
              "type": "address"
            },
            {
              "internalType": "address[]",
              "name": "providers",
              "type": "address[]"
            },
            {
              "internalType": "address[]",
              "name": "resolvers",
              "type": "address[]"
            }
          ],
          "name": "createIdentity",
          "outputs": [
            {
              "internalType": "uint256",
              "name": "ein",
              "type": "uint256"
            }
          ],
          "stateMutability": "nonpayable",
          "type": "function"
        },
        {
          "inputs": [
            {
              "internalType": "address",
              "name": "recoveryAddress",
              "type": "address"
            },
            {
              "internalType": "address",
              "name": "associatedAddress",
              "type": "address"
            },
            {
              "internalType": "address[]",
              "name": "providers",
              "type": "address[]"
            },
            {
              "internalType": "address[]",
              "name": "resolvers",
              "type": "address[]"
            },
            {
              "internalType": "uint8",
              "name": "v",
              "type": "uint8"
            },
            {
              "internalType": "bytes32",
              "name": "r",
              "type": "bytes32"
            },
            {
              "internalType": "bytes32",
              "name": "s",
              "type": "bytes32"
            },
            {
              "internalType": "uint256",
              "name": "timestamp",
              "type": "uint256"
            }
          ],
          "name": "createIdentityDelegated",
          "outputs": [
            {
              "internalType": "uint256",
              "name": "ein",
              "type": "uint256"
            }
          ],
          "stateMutability": "nonpayable",
          "type": "function"
        },
        {
          "inputs": [
            {
              "internalType": "address",
              "name": "_address",
              "type": "address"
            }
          ],
          "name": "getEIN",
          "outputs": [
            {
              "internalType": "uint256",
              "name": "ein",
              "type": "uint256"
            }
          ],
          "stateMutability": "view",
          "type": "function"
        },
        {
          "inputs": [
            {
              "internalType": "uint256",
              "name": "ein",
              "type": "uint256"
            }
          ],
          "name": "getIdentity",
          "outputs": [
            {
              "internalType": "address",
              "name": "recoveryAddress",
              "type": "address"
            },
            {
              "internalType": "address[]",
              "name": "associatedAddresses",
              "type": "address[]"
            },
            {
              "internalType": "address[]",
              "name": "providers",
              "type": "address[]"
            },
            {
              "internalType": "address[]",
              "name": "resolvers",
              "type": "address[]"
            }
          ],
          "stateMutability": "view",
          "type": "function"
        },
        {
          "inputs": [
            {
              "internalType": "address",
              "name": "_address",
              "type": "address"
            }
          ],
          "name": "hasIdentity",
          "outputs": [
            {
              "internalType": "bool",
              "name": "",
              "type": "bool"
            }
          ],
          "stateMutability": "view",
          "type": "function"
        },
        {
          "inputs": [
            {
              "internalType": "uint256",
              "name": "ein",
              "type": "uint256"
            }
          ],
          "name": "identityExists",
          "outputs": [
            {
              "internalType": "bool",
              "name": "",
              "type": "bool"
            }
          ],
          "stateMutability": "view",
          "type": "function"
        },
        {
          "inputs": [
            {
              "internalType": "uint256",
              "name": "ein",
              "type": "uint256"
            },
            {
              "internalType": "address",
              "name": "_address",
              "type": "address"
            }
          ],
          "name": "isAssociatedAddressFor",
          "outputs": [
            {
              "internalType": "bool",
              "name": "",
              "type": "bool"
            }
          ],
          "stateMutability": "view",
          "type": "function"
        },
        {
          "inputs": [
            {
              "internalType": "uint256",
              "name": "ein",
              "type": "uint256"
            },
            {
              "internalType": "address",
              "name": "provider",
              "type": "address"
            }
          ],
          "name": "isProviderFor",
          "outputs": [
            {
              "internalType": "bool",
              "name": "",
              "type": "bool"
            }
          ],
          "stateMutability": "view",
          "type": "function"
        },
        {
          "inputs": [
            {
              "internalType": "uint256",
              "name": "ein",
              "type": "uint256"
            },
            {
              "internalType": "address",
              "name": "resolver",
              "type": "address"
            }
          ],
          "name": "isResolverFor",
          "outputs": [
            {
              "internalType": "bool",
              "name": "",
              "type": "bool"
            }
          ],
          "stateMutability": "view",
          "type": "function"
        },
        {
          "inputs": [
            {
              "internalType": "address",
              "name": "_address",
              "type": "address"
            },
            {
              "internalType": "bytes32",
              "name": "messageHash",
              "type": "bytes32"
            },
            {
              "internalType": "uint8",
              "name": "v",
              "type": "uint8"
            },
            {
              "internalType": "bytes32",
              "name": "r",
              "type": "bytes32"
            },
            {
              "internalType": "bytes32",
              "name": "s",
              "type": "bytes32"
            }
          ],
          "name": "isSigned",
          "outputs": [
            {
              "internalType": "bool",
              "name": "",
              "type": "bool"
            }
          ],
          "stateMutability": "pure",
          "type": "function"
        },
        {
          "inputs": [],
          "name": "removeAssociatedAddress",
          "outputs": [],
          "stateMutability": "nonpayable",
          "type": "function"
        },
        {
          "inputs": [
            {
              "internalType": "address",
              "name": "addressToRemove",
              "type": "address"
            },
            {
              "internalType": "uint8",
              "name": "v",
              "type": "uint8"
            },
            {
              "internalType": "bytes32",
              "name": "r",
              "type": "bytes32"
            },
            {
              "internalType": "bytes32",
              "name": "s",
              "type": "bytes32"
            },
            {
              "internalType": "uint256",
              "name": "timestamp",
              "type": "uint256"
            }
          ],
          "name": "removeAssociatedAddressDelegated",
          "outputs": [],
          "stateMutability": "nonpayable",
          "type": "function"
        },
        {
          "inputs": [
            {
              "internalType": "address[]",
              "name": "providers",
              "type": "address[]"
            }
          ],
          "name": "removeProviders",
          "outputs": [],
          "stateMutability": "nonpayable",
          "type": "function"
        },
        {
          "inputs": [
            {
              "internalType": "uint256",
              "name": "ein",
              "type": "uint256"
            },
            {
              "internalType": "address[]",
              "name": "providers",
              "type": "address[]"
            }
          ],
          "name": "removeProvidersFor",
          "outputs": [],
          "stateMutability": "nonpayable",
          "type": "function"
        },
        {
          "inputs": [
            {
              "internalType": "address[]",
              "name": "resolvers",
              "type": "address[]"
            }
          ],
          "name": "removeResolvers",
          "outputs": [],
          "stateMutability": "nonpayable",
          "type": "function"
        },
        {
          "inputs": [
            {
              "internalType": "uint256",
              "name": "ein",
              "type": "uint256"
            },
            {
              "internalType": "address[]",
              "name": "resolvers",
              "type": "address[]"
            }
          ],
          "name": "removeResolversFor",
          "outputs": [],
          "stateMutability": "nonpayable",
          "type": "function"
        },
        {
          "inputs": [
            {
              "internalType": "uint256",
              "name": "ein",
              "type": "uint256"
            },
            {
              "internalType": "address[]",
              "name": "firstChunk",
              "type": "address[]"
            },
            {
              "internalType": "address[]",
              "name": "lastChunk",
              "type": "address[]"
            },
            {
              "internalType": "bool",
              "name": "clearResolvers",
              "type": "bool"
            }
          ],
          "name": "triggerDestruction",
          "outputs": [],
          "stateMutability": "nonpayable",
          "type": "function"
        },
        {
          "inputs": [
            {
              "internalType": "uint256",
              "name": "ein",
              "type": "uint256"
            },
            {
              "internalType": "address",
              "name": "newAssociatedAddress",
              "type": "address"
            },
            {
              "internalType": "uint8",
              "name": "v",
              "type": "uint8"
            },
            {
              "internalType": "bytes32",
              "name": "r",
              "type": "bytes32"
            },
            {
              "internalType": "bytes32",
              "name": "s",
              "type": "bytes32"
            },
            {
              "internalType": "uint256",
              "name": "timestamp",
              "type": "uint256"
            }
          ],
          "name": "triggerRecovery",
          "outputs": [],
          "stateMutability": "nonpayable",
          "type": "function"
        },
        {
          "inputs": [
            {
              "internalType": "address",
              "name": "newRecoveryAddress",
              "type": "address"
            }
          ],
          "name": "triggerRecoveryAddressChange",
          "outputs": [],
          "stateMutability": "nonpayable",
          "type": "function"
        },
        {
          "inputs": [
            {
              "internalType": "uint256",
              "name": "ein",
              "type": "uint256"
            },
            {
              "internalType": "address",
              "name": "newRecoveryAddress",
              "type": "address"
            }
          ],
          "name": "triggerRecoveryAddressChangeFor",
          "outputs": [],
          "stateMutability": "nonpayable",
          "type": "function"
        }
      ],
      "evm": {
        "bytecode": {
          "linkReferences": {},
          "object": "608060405260008060006101000a81548163ffffffff021916908363ffffffff16021790555034801561003157600080fd5b50614b80806100416000396000f3fe608060405234801561001057600080fd5b506004361061018e5760003560e01c80635b5aed3a116100de578063a687662d11610097578063d4b1cdcc11610071578063d4b1cdcc146104a0578063dd9ad9ed146104d0578063e846fd91146104ec578063fa57b576146105085761018e565b8063a687662d14610438578063ab5f678114610468578063b8a5c2a6146104845761018e565b80635b5aed3a146103515780637d0799511461038157806385e3f0581461039d5780638677ebe8146103d05780638e1bb63314610400578063960b11f51461041c5761018e565b8063237f1a211161014b5780633aedf3c9116101255780633aedf3c9146102df5780633b4656a1146102fb57806353a9698a146103055780635726f660146103355761018e565b8063237f1a21146102635780632501faa514610293578063268e8970146102af5761018e565b8063010887dc1461019357806305c62c2f146101af57806306c93c36146101df57806314fb5646146101fb5780631bfe35081461022b578063232e7d8314610247575b600080fd5b6101ad60048036038101906101a89190613d68565b610524565b005b6101c960048036038101906101c491906138ad565b610654565b6040516101d691906144f4565b60405180910390f35b6101f960048036038101906101f49190613d68565b61069d565b005b610215600480360381019061021091906138d6565b6107fe565b60405161022291906144f4565b60405180910390f35b610245600480360381019061024091906138ad565b610ba9565b005b610261600480360381019061025c9190613c39565b610d4b565b005b61027d600480360381019061027891906138ad565b610ef8565b60405161028a9190614454565b60405180910390f35b6102ad60048036038101906102a89190613ca3565b610f49565b005b6102c960048036038101906102c49190613acc565b61102f565b6040516102d691906144f4565b60405180910390f35b6102f960048036038101906102f49190613a43565b611359565b005b6103036117ac565b005b61031f600480360381019061031a9190613ca3565b6118e6565b60405161032c9190614454565b60405180910390f35b61034f600480360381019061034a9190613d68565b611918565b005b61036b60048036038101906103669190613c7a565b611a48565b6040516103789190614454565b60405180910390f35b61039b60048036038101906103969190613c39565b611a78565b005b6103b760048036038101906103b29190613c7a565b611c25565b6040516103c794939291906143a1565b60405180910390f35b6103ea60048036038101906103e59190613b4b565b611e25565b6040516103f79190614454565b60405180910390f35b61041a60048036038101906104159190613cdf565b611e53565b005b61043660048036038101906104319190613d68565b612184565b005b610452600480360381019061044d9190613ca3565b6122e5565b60405161045f9190614454565b60405180910390f35b610482600480360381019061047d91906139b8565b612331565b005b61049e60048036038101906104999190613c39565b61270f565b005b6104ba60048036038101906104b59190613ca3565b6128bc565b6040516104c79190614454565b60405180910390f35b6104ea60048036038101906104e59190613bc2565b6128ee565b005b61050660048036038101906105019190613c39565b612aa1565b005b610522600480360381019061051d9190613dbc565b612c4e565b005b60005b81518163ffffffff16101561064f576105a4828263ffffffff1681518110610578577f4e487b7100000000000000000000000000000000000000000000000000000000600052603260045260246000fd5b602002602001015160016000868152602001908152602001600020600301612f1c90919063ffffffff16565b823373ffffffffffffffffffffffffffffffffffffffff167fd2af86288d6ec28d93c5459bdc5a21da89b340c28ad430327e40139c1178986f848463ffffffff168151811061061c577f4e487b7100000000000000000000000000000000000000000000000000000000600052603260045260246000fd5b602002602001015160016040516106349291906143fb565b60405180910390a38080610647906148e9565b915050610527565b505050565b6000600260008373ffffffffffffffffffffffffffffffffffffffff1673ffffffffffffffffffffffffffffffffffffffff168152602001908152602001600020549050919050565b6106c53360016000858152602001908152602001600020600301612fe190919063ffffffff16565b6106ce57600080fd5b60005b81518163ffffffff1610156107f95761074e828263ffffffff1681518110610722577f4e487b7100000000000000000000000000000000000000000000000000000000600052603260045260246000fd5b60200260200101516001600086815260200190815260200160002060030161316d90919063ffffffff16565b823373ffffffffffffffffffffffffffffffffffffffff167fe41b11c1b8e658dea501b4a432bd3f7b3e6db83ef57ac16c52e5f288edeffec4848463ffffffff16815181106107c6577f4e487b7100000000000000000000000000000000000000000000000000000000600052603260045260246000fd5b602002602001015160016040516107de9291906143fb565b60405180910390a380806107f1906148e9565b9150506106d1565b505050565b600061083d88308b8b8b8b8860405160200161081f969594939291906141e9565b60405160208183030381529060405280519060200120878787611e25565b61087c576040517f08c379a0000000000000000000000000000000000000000000000000000000008152600401610873906144b4565b60405180910390fd5b60016000808282829054906101000a900463ffffffff1661089d9190614725565b92506101000a81548163ffffffff021916908363ffffffff16021790555088600160008060009054906101000a900463ffffffff1663ffffffff16815260200190815260200160002060000160006101000a81548173ffffffffffffffffffffffffffffffffffffffff021916908373ffffffffffffffffffffffffffffffffffffffff16021790555061096688600160008060009054906101000a900463ffffffff1663ffffffff168152602001908152602001600020600101612f1c90919063ffffffff16565b60008054906101000a900463ffffffff1663ffffffff16600260008a73ffffffffffffffffffffffffffffffffffffffff1673ffffffffffffffffffffffffffffffffffffffff1681526020019081526020016000208190555060005b87518163ffffffff161015610a6a57610a57888263ffffffff1681518110610a14577f4e487b7100000000000000000000000000000000000000000000000000000000600052603260045260246000fd5b6020026020010151600160008060009054906101000a900463ffffffff1663ffffffff168152602001908152602001600020600301612f1c90919063ffffffff16565b8080610a62906148e9565b9150506109c3565b5060005b86518163ffffffff161015610b1557610b02888263ffffffff1681518110610abf577f4e487b7100000000000000000000000000000000000000000000000000000000600052603260045260246000fd5b6020026020010151600160008060009054906101000a900463ffffffff1663ffffffff168152602001908152602001600020600301612f1c90919063ffffffff16565b8080610b0d906148e9565b915050610a6e565b5060008054906101000a900463ffffffff1663ffffffff163373ffffffffffffffffffffffffffffffffffffffff167fe541733a4670852051762d3cdb7d9123bea21d01e252aa39ca403c8d0f5ab66c8b8b8b8b6000604051610b7c959493929190614340565b60405180910390a360008054906101000a900463ffffffff1663ffffffff16905098975050505050505050565b600060016000600260003373ffffffffffffffffffffffffffffffffffffffff1673ffffffffffffffffffffffffffffffffffffffff16815260200190815260200160002054815260200190815260200160002060000160009054906101000a900473ffffffffffffffffffffffffffffffffffffffff1690508160016000600260003373ffffffffffffffffffffffffffffffffffffffff1673ffffffffffffffffffffffffffffffffffffffff16815260200190815260200160002054815260200190815260200160002060000160006101000a81548173ffffffffffffffffffffffffffffffffffffffff021916908373ffffffffffffffffffffffffffffffffffffffff160217905550600260003373ffffffffffffffffffffffffffffffffffffffff1673ffffffffffffffffffffffffffffffffffffffff168152602001908152602001600020543373ffffffffffffffffffffffffffffffffffffffff167fec8acd470f49ff49dc25ffb0e4d48da58c5eb79f35afbec88e4abc7156889a738385604051610d3f929190614317565b60405180910390a35050565b60005b81518163ffffffff161015610ef457610e0a828263ffffffff1681518110610d9f577f4e487b7100000000000000000000000000000000000000000000000000000000600052603260045260246000fd5b602002602001015160016000600260003373ffffffffffffffffffffffffffffffffffffffff1673ffffffffffffffffffffffffffffffffffffffff16815260200190815260200160002054815260200190815260200160002060030161316d90919063ffffffff16565b600260003373ffffffffffffffffffffffffffffffffffffffff1673ffffffffffffffffffffffffffffffffffffffff168152602001908152602001600020543373ffffffffffffffffffffffffffffffffffffffff167fe41b11c1b8e658dea501b4a432bd3f7b3e6db83ef57ac16c52e5f288edeffec4848463ffffffff1681518110610ec1577f4e487b7100000000000000000000000000000000000000000000000000000000600052603260045260246000fd5b60200260200101516000604051610ed99291906143fb565b60405180910390a38080610eec906148e9565b915050610d4e565b5050565b6000610f42600260008473ffffffffffffffffffffffffffffffffffffffff1673ffffffffffffffffffffffffffffffffffffffff16815260200190815260200160002054611a48565b9050919050565b60006001600084815260200190815260200160002060000160009054906101000a900473ffffffffffffffffffffffffffffffffffffffff169050816001600085815260200190815260200160002060000160006101000a81548173ffffffffffffffffffffffffffffffffffffffff021916908373ffffffffffffffffffffffffffffffffffffffff160217905550823373ffffffffffffffffffffffffffffffffffffffff167fec8acd470f49ff49dc25ffb0e4d48da58c5eb79f35afbec88e4abc7156889a738385604051611022929190614317565b60405180910390a3505050565b600060016000808282829054906101000a900463ffffffff166110529190614725565b92506101000a81548163ffffffff021916908363ffffffff16021790555083600160008060009054906101000a900463ffffffff1663ffffffff16815260200190815260200160002060000160006101000a81548173ffffffffffffffffffffffffffffffffffffffff021916908373ffffffffffffffffffffffffffffffffffffffff16021790555061111b33600160008060009054906101000a900463ffffffff1663ffffffff168152602001908152602001600020600101612f1c90919063ffffffff16565b60008054906101000a900463ffffffff1663ffffffff16600260003373ffffffffffffffffffffffffffffffffffffffff1673ffffffffffffffffffffffffffffffffffffffff1681526020019081526020016000208190555060005b83518163ffffffff16101561121f5761120c848263ffffffff16815181106111c9577f4e487b7100000000000000000000000000000000000000000000000000000000600052603260045260246000fd5b6020026020010151600160008060009054906101000a900463ffffffff1663ffffffff168152602001908152602001600020600301612f1c90919063ffffffff16565b8080611217906148e9565b915050611178565b5060005b82518163ffffffff1610156112ca576112b7848263ffffffff1681518110611274577f4e487b7100000000000000000000000000000000000000000000000000000000600052603260045260246000fd5b6020026020010151600160008060009054906101000a900463ffffffff1663ffffffff168152602001908152602001600020600301612f1c90919063ffffffff16565b80806112c2906148e9565b915050611223565b5060008054906101000a900463ffffffff1663ffffffff163373ffffffffffffffffffffffffffffffffffffffff167fe541733a4670852051762d3cdb7d9123bea21d01e252aa39ca403c8d0f5ab66c863387876000604051611331959493929190614340565b60405180910390a360008054906101000a900463ffffffff1663ffffffff1690509392505050565b8573ffffffffffffffffffffffffffffffffffffffff163373ffffffffffffffffffffffffffffffffffffffff161415611580576113c28530836040516020016113a492919061425c565b60405160208183030381529060405280519060200120868686611e25565b611401576040517f08c379a00000000000000000000000000000000000000000000000000000000081526004016113f8906144b4565b60405180910390fd5b6114688560016000600260008b73ffffffffffffffffffffffffffffffffffffffff1673ffffffffffffffffffffffffffffffffffffffff168152602001908152602001600020548152602001908152602001600020600101612f1c90919063ffffffff16565b600260008773ffffffffffffffffffffffffffffffffffffffff1673ffffffffffffffffffffffffffffffffffffffff16815260200190815260200160002054600260008773ffffffffffffffffffffffffffffffffffffffff1673ffffffffffffffffffffffffffffffffffffffff16815260200190815260200160002081905550600260008773ffffffffffffffffffffffffffffffffffffffff1673ffffffffffffffffffffffffffffffffffffffff168152602001908152602001600020543373ffffffffffffffffffffffffffffffffffffffff167fa0e763710bdf81797303339803590cdfab14f495ab50975a41f3b00112c5c5238888604051611573929190614317565b60405180910390a36117a4565b8473ffffffffffffffffffffffffffffffffffffffff163373ffffffffffffffffffffffffffffffffffffffff1614156117a3576115e98630836040516020016115cb92919061425c565b60405160208183030381529060405280519060200120868686611e25565b611628576040517f08c379a000000000000000000000000000000000000000000000000000000000815260040161161f906144b4565b60405180910390fd5b61168f8560016000600260008b73ffffffffffffffffffffffffffffffffffffffff1673ffffffffffffffffffffffffffffffffffffffff168152602001908152602001600020548152602001908152602001600020600101612f1c90919063ffffffff16565b600260008773ffffffffffffffffffffffffffffffffffffffff1673ffffffffffffffffffffffffffffffffffffffff16815260200190815260200160002054600260008773ffffffffffffffffffffffffffffffffffffffff1673ffffffffffffffffffffffffffffffffffffffff16815260200190815260200160002081905550600260008773ffffffffffffffffffffffffffffffffffffffff1673ffffffffffffffffffffffffffffffffffffffff168152602001908152602001600020543373ffffffffffffffffffffffffffffffffffffffff167fa0e763710bdf81797303339803590cdfab14f495ab50975a41f3b00112c5c523888860405161179a929190614317565b60405180910390a35b5b505050505050565b6118133360016000600260003373ffffffffffffffffffffffffffffffffffffffff1673ffffffffffffffffffffffffffffffffffffffff16815260200190815260200160002054815260200190815260200160002060010161316d90919063ffffffff16565b600260003373ffffffffffffffffffffffffffffffffffffffff1673ffffffffffffffffffffffffffffffffffffffff16815260200190815260200160002060009055600260003373ffffffffffffffffffffffffffffffffffffffff1673ffffffffffffffffffffffffffffffffffffffff168152602001908152602001600020543373ffffffffffffffffffffffffffffffffffffffff167f4ed4e3bbe2efe2f41f7496df45bc4627eb3610c8f242638c7165ea0fb285d607336040516118dc91906142fc565b60405180910390a3565b60006119108260016000868152602001908152602001600020600301612fe190919063ffffffff16565b905092915050565b60005b81518163ffffffff161015611a4357611998828263ffffffff168151811061196c577f4e487b7100000000000000000000000000000000000000000000000000000000600052603260045260246000fd5b60200260200101516001600086815260200190815260200160002060030161316d90919063ffffffff16565b823373ffffffffffffffffffffffffffffffffffffffff167fe41b11c1b8e658dea501b4a432bd3f7b3e6db83ef57ac16c52e5f288edeffec4848463ffffffff1681518110611a10577f4e487b7100000000000000000000000000000000000000000000000000000000600052603260045260246000fd5b60200260200101516001604051611a289291906143fb565b60405180910390a38080611a3b906148e9565b91505061191b565b505050565b60008060009054906101000a900463ffffffff1663ffffffff168211158015611a715750600082115b9050919050565b60005b81518163ffffffff161015611c2157611b37828263ffffffff1681518110611acc577f4e487b7100000000000000000000000000000000000000000000000000000000600052603260045260246000fd5b602002602001015160016000600260003373ffffffffffffffffffffffffffffffffffffffff1673ffffffffffffffffffffffffffffffffffffffff168152602001908152602001600020548152602001908152602001600020600301612f1c90919063ffffffff16565b600260003373ffffffffffffffffffffffffffffffffffffffff1673ffffffffffffffffffffffffffffffffffffffff168152602001908152602001600020543373ffffffffffffffffffffffffffffffffffffffff167fd2af86288d6ec28d93c5459bdc5a21da89b340c28ad430327e40139c1178986f848463ffffffff1681518110611bee577f4e487b7100000000000000000000000000000000000000000000000000000000600052603260045260246000fd5b60200260200101516000604051611c069291906143fb565b60405180910390a38080611c19906148e9565b915050611a7b565b5050565b6000606080606060006001600087815260200190815260200160002090508060000160009054906101000a900473ffffffffffffffffffffffffffffffffffffffff1681600101600001826003016000018360050160000182805480602002602001604051908101604052809291908181526020018280548015611cfe57602002820191906000526020600020905b8160009054906101000a900473ffffffffffffffffffffffffffffffffffffffff1673ffffffffffffffffffffffffffffffffffffffff1681526020019060010190808311611cb4575b5050505050925081805480602002602001604051908101604052809291908181526020018280548015611d8657602002820191906000526020600020905b8160009054906101000a900473ffffffffffffffffffffffffffffffffffffffff1673ffffffffffffffffffffffffffffffffffffffff1681526020019060010190808311611d3c575b5050505050915080805480602002602001604051908101604052809291908181526020018280548015611e0e57602002820191906000526020600020905b8160009054906101000a900473ffffffffffffffffffffffffffffffffffffffff1673ffffffffffffffffffffffffffffffffffffffff1681526020019060010190808311611dc4575b505050505090509450945094509450509193509193565b6000611e3486868686866134bb565b80611e485750611e478686868686613545565b5b905095945050505050565b611ebe6001600088815260200190815260200160002060000160009054906101000a900473ffffffffffffffffffffffffffffffffffffffff163083604051602001611ea092919061425c565b60405160208183030381529060405280519060200120868686611e25565b611efd576040517f08c379a0000000000000000000000000000000000000000000000000000000008152600401611ef4906144b4565b60405180910390fd5b600060016000888152602001908152602001600020600101600001805480602002602001604051908101604052809291908181526020018280548015611f9857602002820191906000526020600020905b8160009054906101000a900473ffffffffffffffffffffffffffffffffffffffff1673ffffffffffffffffffffffffffffffffffffffff1681526020019060010190808311611f4e575b505050505090506212750042611fae91906146cf565b82101561217b5760005b611fd6600160008a81526020019081526020016000206001016135c1565b8110156120ae5760026000600160008b81526020019081526020016000206001016000018381548110612032577f4e487b7100000000000000000000000000000000000000000000000000000000600052603260045260246000fd5b9060005260206000200160009054906101000a900473ffffffffffffffffffffffffffffffffffffffff1673ffffffffffffffffffffffffffffffffffffffff1673ffffffffffffffffffffffffffffffffffffffff1681526020019081526020016000206000905580806120a6906148a0565b915050611fb8565b5060016000888152602001908152602001600020600101600080820160006120d691906135d2565b505060016000888152602001908152602001600020600301600080820160006120ff91906135d2565b505061212986600160008a8152602001908152602001600020600101612f1c90919063ffffffff16565b863373ffffffffffffffffffffffffffffffffffffffff167f2fe95fbd211d0471c596b1f81d913d1389d5d1ddeb2bdd96143acc651aa3b02e8389604051612172929190614424565b60405180910390a35b50505050505050565b6121ac3360016000858152602001908152602001600020600301612fe190919063ffffffff16565b6121b557600080fd5b60005b81518163ffffffff1610156122e057612235828263ffffffff1681518110612209577f4e487b7100000000000000000000000000000000000000000000000000000000600052603260045260246000fd5b602002602001015160016000868152602001908152602001600020600301612f1c90919063ffffffff16565b823373ffffffffffffffffffffffffffffffffffffffff167fd2af86288d6ec28d93c5459bdc5a21da89b340c28ad430327e40139c1178986f848463ffffffff16815181106122ad577f4e487b7100000000000000000000000000000000000000000000000000000000600052603260045260246000fd5b602002602001015160016040516122c59291906143fb565b60405180910390a380806122d8906148e9565b9150506121b8565b505050565b600082600260008473ffffffffffffffffffffffffffffffffffffffff1673ffffffffffffffffffffffffffffffffffffffff1681526020019081526020016000205414905092915050565b6124208530836040516020016123489291906141bd565b6040516020818303038152906040528051906020012086600160028110612398577f4e487b7100000000000000000000000000000000000000000000000000000000600052603260045260246000fd5b6020020151866001600281106123d7577f4e487b7100000000000000000000000000000000000000000000000000000000600052603260045260246000fd5b602002015186600160028110612416577f4e487b7100000000000000000000000000000000000000000000000000000000600052603260045260246000fd5b6020020151611e25565b61245f576040517f08c379a0000000000000000000000000000000000000000000000000000000008152600401612456906144b4565b60405180910390fd5b61254e8630836040516020016124769291906141bd565b60405160208183030381529060405280519060200120866000600281106124c6577f4e487b7100000000000000000000000000000000000000000000000000000000600052603260045260246000fd5b602002015186600060028110612505577f4e487b7100000000000000000000000000000000000000000000000000000000600052603260045260246000fd5b602002015186600060028110612544577f4e487b7100000000000000000000000000000000000000000000000000000000600052603260045260246000fd5b6020020151611e25565b61258d576040517f08c379a0000000000000000000000000000000000000000000000000000000008152600401612584906144b4565b60405180910390fd5b6125f48560016000600260008b73ffffffffffffffffffffffffffffffffffffffff1673ffffffffffffffffffffffffffffffffffffffff168152602001908152602001600020548152602001908152602001600020600101612f1c90919063ffffffff16565b600260008773ffffffffffffffffffffffffffffffffffffffff1673ffffffffffffffffffffffffffffffffffffffff16815260200190815260200160002054600260008773ffffffffffffffffffffffffffffffffffffffff1673ffffffffffffffffffffffffffffffffffffffff16815260200190815260200160002081905550600260008773ffffffffffffffffffffffffffffffffffffffff1673ffffffffffffffffffffffffffffffffffffffff168152602001908152602001600020543373ffffffffffffffffffffffffffffffffffffffff167fa0e763710bdf81797303339803590cdfab14f495ab50975a41f3b00112c5c52388886040516126ff929190614317565b60405180910390a3505050505050565b60005b81518163ffffffff1610156128b8576127ce828263ffffffff1681518110612763577f4e487b7100000000000000000000000000000000000000000000000000000000600052603260045260246000fd5b602002602001015160016000600260003373ffffffffffffffffffffffffffffffffffffffff1673ffffffffffffffffffffffffffffffffffffffff16815260200190815260200160002054815260200190815260200160002060030161316d90919063ffffffff16565b600260003373ffffffffffffffffffffffffffffffffffffffff1673ffffffffffffffffffffffffffffffffffffffff168152602001908152602001600020543373ffffffffffffffffffffffffffffffffffffffff167fe41b11c1b8e658dea501b4a432bd3f7b3e6db83ef57ac16c52e5f288edeffec4848463ffffffff1681518110612885577f4e487b7100000000000000000000000000000000000000000000000000000000600052603260045260246000fd5b6020026020010151600060405161289d9291906143fb565b60405180910390a380806128b0906148e9565b915050612712565b5050565b60006128e68260016000868152602001908152602001600020600501612fe190919063ffffffff16565b905092915050565b61292385308360405160200161290592919061425c565b60405160208183030381529060405280519060200120868686611e25565b612962576040517f08c379a0000000000000000000000000000000000000000000000000000000008152600401612959906144b4565b60405180910390fd5b6129c98560016000600260008a73ffffffffffffffffffffffffffffffffffffffff1673ffffffffffffffffffffffffffffffffffffffff16815260200190815260200160002054815260200190815260200160002060010161316d90919063ffffffff16565b600260008673ffffffffffffffffffffffffffffffffffffffff1673ffffffffffffffffffffffffffffffffffffffff16815260200190815260200160002060009055600260003373ffffffffffffffffffffffffffffffffffffffff1673ffffffffffffffffffffffffffffffffffffffff168152602001908152602001600020543373ffffffffffffffffffffffffffffffffffffffff167f4ed4e3bbe2efe2f41f7496df45bc4627eb3610c8f242638c7165ea0fb285d60733604051612a9291906142fc565b60405180910390a35050505050565b60005b81518163ffffffff161015612c4a57612b60828263ffffffff1681518110612af5577f4e487b7100000000000000000000000000000000000000000000000000000000600052603260045260246000fd5b602002602001015160016000600260003373ffffffffffffffffffffffffffffffffffffffff1673ffffffffffffffffffffffffffffffffffffffff168152602001908152602001600020548152602001908152602001600020600301612f1c90919063ffffffff16565b600260003373ffffffffffffffffffffffffffffffffffffffff1673ffffffffffffffffffffffffffffffffffffffff168152602001908152602001600020543373ffffffffffffffffffffffffffffffffffffffff167fd2af86288d6ec28d93c5459bdc5a21da89b340c28ad430327e40139c1178986f848463ffffffff1681518110612c17577f4e487b7100000000000000000000000000000000000000000000000000000000600052603260045260246000fd5b60200260200101516000604051612c2f9291906143fb565b60405180910390a38080612c42906148e9565b915050612aa4565b5050565b6000600160008681526020019081526020016000209050600060405180602001604052803373ffffffffffffffffffffffffffffffffffffffff1673ffffffffffffffffffffffffffffffffffffffff16815250905081600101600001604051602001612cbb91906142bd565b60405160208183030381529060405280519060200120858286604051602001612ce693929190614288565b6040516020818303038152906040528051906020012014612d3c576040517f08c379a0000000000000000000000000000000000000000000000000000000008152600401612d33906144d4565b60405180910390fd5b60005b612d4b836001016135c1565b811015612e235760026000600160008a81526020019081526020016000206001016000018381548110612da7577f4e487b7100000000000000000000000000000000000000000000000000000000600052603260045260246000fd5b9060005260206000200160009054906101000a900473ffffffffffffffffffffffffffffffffffffffff1673ffffffffffffffffffffffffffffffffffffffff1673ffffffffffffffffffffffffffffffffffffffff168152602001908152602001600020600090558080612e1b906148a0565b915050612d3f565b506001600087815260200190815260200160002060010160008082016000612e4b91906135d2565b50506001600087815260200190815260200160002060030160008082016000612e7491906135d2565b50506001600087815260200190815260200160002060050160008082016000612e9d91906135d2565b5050853373ffffffffffffffffffffffffffffffffffffffff167f1807cc67f627d55c0a797a6c603fa124978caf5bb45c1748329489fd0185b9ef8460000160009054906101000a900473ffffffffffffffffffffffffffffffffffffffff1686604051612f0c9291906143fb565b60405180910390a3505050505050565b612f268282612fe1565b612fdd5781600001819080600181540180825580915050600190039060005260206000200160009091909190916101000a81548173ffffffffffffffffffffffffffffffffffffffff021916908373ffffffffffffffffffffffffffffffffffffffff16021790555081600001805490508260010160008373ffffffffffffffffffffffffffffffffffffffff1673ffffffffffffffffffffffffffffffffffffffff168152602001908152602001600020819055505b5050565b6000808360010160008473ffffffffffffffffffffffffffffffffffffffff1673ffffffffffffffffffffffffffffffffffffffff1681526020019081526020016000205411801561307b57508260010160008373ffffffffffffffffffffffffffffffffffffffff1673ffffffffffffffffffffffffffffffffffffffff16815260200190815260200160002054836000018054905010155b801561316557508173ffffffffffffffffffffffffffffffffffffffff168360000160018560010160008673ffffffffffffffffffffffffffffffffffffffff1673ffffffffffffffffffffffffffffffffffffffff168152602001908152602001600020546130eb919061475f565b81548110613122577f4e487b7100000000000000000000000000000000000000000000000000000000600052603260045260246000fd5b9060005260206000200160009054906101000a900473ffffffffffffffffffffffffffffffffffffffff1673ffffffffffffffffffffffffffffffffffffffff16145b905092915050565b6131778282612fe1565b156134b75781600001600161318b846135c1565b613195919061475f565b815481106131cc577f4e487b7100000000000000000000000000000000000000000000000000000000600052603260045260246000fd5b9060005260206000200160009054906101000a900473ffffffffffffffffffffffffffffffffffffffff168260000160018460010160008573ffffffffffffffffffffffffffffffffffffffff1673ffffffffffffffffffffffffffffffffffffffff16815260200190815260200160002054613249919061475f565b81548110613280577f4e487b7100000000000000000000000000000000000000000000000000000000600052603260045260246000fd5b9060005260206000200160006101000a81548173ffffffffffffffffffffffffffffffffffffffff021916908373ffffffffffffffffffffffffffffffffffffffff1602179055508160010160008273ffffffffffffffffffffffffffffffffffffffff1673ffffffffffffffffffffffffffffffffffffffff168152602001908152602001600020548260010160008460000160018660010160008773ffffffffffffffffffffffffffffffffffffffff1673ffffffffffffffffffffffffffffffffffffffff16815260200190815260200160002054613362919061475f565b81548110613399577f4e487b7100000000000000000000000000000000000000000000000000000000600052603260045260246000fd5b9060005260206000200160009054906101000a900473ffffffffffffffffffffffffffffffffffffffff1673ffffffffffffffffffffffffffffffffffffffff1673ffffffffffffffffffffffffffffffffffffffff168152602001908152602001600020819055508160010160008273ffffffffffffffffffffffffffffffffffffffff1673ffffffffffffffffffffffffffffffffffffffff1681526020019081526020016000206000905581600001805480613481577f4e487b7100000000000000000000000000000000000000000000000000000000600052603160045260246000fd5b6001900381819060005260206000200160006101000a81549073ffffffffffffffffffffffffffffffffffffffff021916905590555b5050565b60008573ffffffffffffffffffffffffffffffffffffffff16600186868686604051600081526020016040526040516134f7949392919061446f565b6020604051602081039080840390855afa158015613519573d6000803e3d6000fd5b5050506020604051035173ffffffffffffffffffffffffffffffffffffffff1614905095945050505050565b6000806040518060400160405280601c81526020017f19457468657265756d205369676e6564204d6573736167653a0a33320000000081525090506135b58782886040516020016135979291906142d4565b604051602081830303815290604052805190602001208787876134bb565b91505095945050505050565b600081600001805490509050919050565b50805460008255906000526020600020908101906135f091906135f3565b50565b5b8082111561360c5760008160009055506001016135f4565b5090565b600061362361361e84614534565b61450f565b9050808382526020820190508285602086028201111561364257600080fd5b60005b85811015613672578161365888826137a5565b845260208401935060208301925050600181019050613645565b5050509392505050565b600061368f61368a84614560565b61450f565b905080828560208602820111156136a557600080fd5b60005b858110156136d557816136bb888261386e565b8452602084019350602083019250506001810190506136a8565b5050509392505050565b60006136f26136ed84614586565b61450f565b9050808285602086028201111561370857600080fd5b60005b85811015613738578161371e8882613883565b84526020840193506020830192505060018101905061370b565b5050509392505050565b6000613755613750846145ac565b61450f565b9050808285602086028201111561376b57600080fd5b60005b8581101561379b57816137818882613898565b84526020840193506020830192505060018101905061376e565b5050509392505050565b6000813590506137b481614ad7565b92915050565b600082601f8301126137cb57600080fd5b81356137db848260208601613610565b91505092915050565b600082601f8301126137f557600080fd5b600261380284828561367c565b91505092915050565b600082601f83011261381c57600080fd5b60026138298482856136df565b91505092915050565b600082601f83011261384357600080fd5b6002613850848285613742565b91505092915050565b60008135905061386881614aee565b92915050565b60008135905061387d81614b05565b92915050565b60008135905061389281614b1c565b92915050565b6000813590506138a781614b33565b92915050565b6000602082840312156138bf57600080fd5b60006138cd848285016137a5565b91505092915050565b600080600080600080600080610100898b0312156138f357600080fd5b60006139018b828c016137a5565b98505060206139128b828c016137a5565b975050604089013567ffffffffffffffff81111561392f57600080fd5b61393b8b828c016137ba565b965050606089013567ffffffffffffffff81111561395857600080fd5b6139648b828c016137ba565b95505060806139758b828c01613898565b94505060a06139868b828c0161386e565b93505060c06139978b828c0161386e565b92505060e06139a88b828c01613883565b9150509295985092959890939650565b60008060008060008061014087890312156139d257600080fd5b60006139e089828a016137a5565b96505060206139f189828a016137a5565b9550506040613a0289828a01613832565b9450506080613a1389828a016137e4565b93505060c0613a2489828a016137e4565b925050610100613a3689828a0161380b565b9150509295509295509295565b60008060008060008060c08789031215613a5c57600080fd5b6000613a6a89828a016137a5565b9650506020613a7b89828a016137a5565b9550506040613a8c89828a01613898565b9450506060613a9d89828a0161386e565b9350506080613aae89828a0161386e565b92505060a0613abf89828a01613883565b9150509295509295509295565b600080600060608486031215613ae157600080fd5b6000613aef868287016137a5565b935050602084013567ffffffffffffffff811115613b0c57600080fd5b613b18868287016137ba565b925050604084013567ffffffffffffffff811115613b3557600080fd5b613b41868287016137ba565b9150509250925092565b600080600080600060a08688031215613b6357600080fd5b6000613b71888289016137a5565b9550506020613b828882890161386e565b9450506040613b9388828901613898565b9350506060613ba48882890161386e565b9250506080613bb58882890161386e565b9150509295509295909350565b600080600080600060a08688031215613bda57600080fd5b6000613be8888289016137a5565b9550506020613bf988828901613898565b9450506040613c0a8882890161386e565b9350506060613c1b8882890161386e565b9250506080613c2c88828901613883565b9150509295509295909350565b600060208284031215613c4b57600080fd5b600082013567ffffffffffffffff811115613c6557600080fd5b613c71848285016137ba565b91505092915050565b600060208284031215613c8c57600080fd5b6000613c9a84828501613883565b91505092915050565b60008060408385031215613cb657600080fd5b6000613cc485828601613883565b9250506020613cd5858286016137a5565b9150509250929050565b60008060008060008060c08789031215613cf857600080fd5b6000613d0689828a01613883565b9650506020613d1789828a016137a5565b9550506040613d2889828a01613898565b9450506060613d3989828a0161386e565b9350506080613d4a89828a0161386e565b92505060a0613d5b89828a01613883565b9150509295509295509295565b60008060408385031215613d7b57600080fd5b6000613d8985828601613883565b925050602083013567ffffffffffffffff811115613da657600080fd5b613db2858286016137ba565b9150509250929050565b60008060008060808587031215613dd257600080fd5b6000613de087828801613883565b945050602085013567ffffffffffffffff811115613dfd57600080fd5b613e09878288016137ba565b935050604085013567ffffffffffffffff811115613e2657600080fd5b613e32878288016137ba565b9250506060613e4387828801613859565b91505092959194509250565b6000613e5b8383613e97565b60208301905092915050565b6000613e738383613eb5565b60208301905092915050565b6000613e8b8383614188565b60208301905092915050565b613ea0816147b3565b82525050565b613eaf816147b3565b82525050565b613ebe816147b3565b82525050565b613ed5613ed0826147b3565b614916565b82525050565b613ee48161460b565b613eee8184614676565b9250613ef9826145d2565b8060005b83811015613f2a578151613f118782613e67565b9650613f1c83614642565b925050600181019050613efd565b505050505050565b6000613f3d82614616565b613f478185614681565b9350613f52836145dc565b8060005b83811015613f83578151613f6a8882613e4f565b9750613f758361464f565b925050600181019050613f56565b5085935050505092915050565b6000613f9b82614616565b613fa58185614692565b9350613fb0836145dc565b8060005b83811015613fe1578151613fc88882613e67565b9750613fd38361464f565b925050600181019050613fb4565b5085935050505092915050565b6000613ff982614621565b6140038185614692565b935061400e836145ec565b8060005b8381101561404657614023826149ac565b61402d8882613e67565b97506140388361465c565b925050600181019050614012565b5085935050505092915050565b61405c8161462c565b614066818461469d565b925061407182614601565b8060005b838110156140a25781516140898782613e7f565b965061409483614669565b925050600181019050614075565b505050505050565b6140b3816147c5565b82525050565b6140c2816147d1565b82525050565b6140d96140d4826147d1565b614928565b82525050565b60006140ea82614637565b6140f481856146a8565b9350614104818560208601614822565b80840191505092915050565b600061411d6012836146b3565b9150614128826149ea565b602082019050919050565b60006141406035836146c4565b915061414b82614a13565b603582019050919050565b6000614163605f836146b3565b915061416e82614a62565b606082019050919050565b614182816147fb565b82525050565b614191816147fb565b82525050565b6141a86141a3826147fb565b614944565b82525050565b6141b781614815565b82525050565b60006141c98285613ec4565b6014820191506141d98284614053565b6040820191508190509392505050565b60006141f58289613ec4565b60148201915061420482614133565b91506142108288613ec4565b6014820191506142208287613ec4565b6014820191506142308286613f90565b915061423c8285613f90565b91506142488284614197565b602082019150819050979650505050505050565b60006142688285613ec4565b6014820191506142788284614197565b6020820191508190509392505050565b60006142948286613f90565b91506142a08285613edb565b6020820191506142b08284613f90565b9150819050949350505050565b60006142c98284613fee565b915081905092915050565b60006142e082856140df565b91506142ec82846140c8565b6020820191508190509392505050565b60006020820190506143116000830184613ea6565b92915050565b600060408201905061432c6000830185613ea6565b6143396020830184613ea6565b9392505050565b600060a0820190506143556000830188613ea6565b6143626020830187613ea6565b81810360408301526143748186613f32565b905081810360608301526143888185613f32565b905061439760808301846140aa565b9695505050505050565b60006080820190506143b66000830187613ea6565b81810360208301526143c88186613f32565b905081810360408301526143dc8185613f32565b905081810360608301526143f08184613f32565b905095945050505050565b60006040820190506144106000830185613ea6565b61441d60208301846140aa565b9392505050565b6000604082019050818103600083015261443e8185613f32565b905061444d6020830184613ea6565b9392505050565b600060208201905061446960008301846140aa565b92915050565b600060808201905061448460008301876140b9565b61449160208301866141ae565b61449e60408301856140b9565b6144ab60608301846140b9565b95945050505050565b600060208201905081810360008301526144cd81614110565b9050919050565b600060208201905081810360008301526144ed81614156565b9050919050565b60006020820190506145096000830184614179565b92915050565b600061451961452a565b9050614525828261486f565b919050565b6000604051905090565b600067ffffffffffffffff82111561454f5761454e61497d565b5b602082029050602081019050919050565b600067ffffffffffffffff82111561457b5761457a61497d565b5b602082029050919050565b600067ffffffffffffffff8211156145a1576145a061497d565b5b602082029050919050565b600067ffffffffffffffff8211156145c7576145c661497d565b5b602082029050919050565b6000819050919050565b6000819050602082019050919050565b60008190508160005260206000209050919050565b6000819050919050565b600060019050919050565b600081519050919050565b600081549050919050565b600060029050919050565b600081519050919050565b6000602082019050919050565b6000602082019050919050565b6000600182019050919050565b6000602082019050919050565b600081905092915050565b600082825260208201905092915050565b600081905092915050565b600081905092915050565b600081905092915050565b600082825260208201905092915050565b600081905092915050565b60006146da826147fb565b91506146e5836147fb565b9250827fffffffffffffffffffffffffffffffffffffffffffffffffffffffffffffffff0382111561471a5761471961494e565b5b828201905092915050565b600061473082614805565b915061473b83614805565b92508263ffffffff038211156147545761475361494e565b5b828201905092915050565b600061476a826147fb565b9150614775836147fb565b9250828210156147885761478761494e565b5b828203905092915050565b600073ffffffffffffffffffffffffffffffffffffffff82169050919050565b60006147be826147db565b9050919050565b60008115159050919050565b6000819050919050565b600073ffffffffffffffffffffffffffffffffffffffff82169050919050565b6000819050919050565b600063ffffffff82169050919050565b600060ff82169050919050565b60005b83811015614840578082015181840152602081019050614825565b8381111561484f576000848401525b50505050565b6000614868614863836149dd565b614793565b9050919050565b614878826149bf565b810181811067ffffffffffffffff821117156148975761489661497d565b5b80604052505050565b60006148ab826147fb565b91507fffffffffffffffffffffffffffffffffffffffffffffffffffffffffffffffff8214156148de576148dd61494e565b5b600182019050919050565b60006148f482614805565b915063ffffffff82141561490b5761490a61494e565b5b600182019050919050565b600061492182614932565b9050919050565b6000819050919050565b600061493d826149d0565b9050919050565b6000819050919050565b7f4e487b7100000000000000000000000000000000000000000000000000000000600052601160045260246000fd5b7f4e487b7100000000000000000000000000000000000000000000000000000000600052604160045260246000fd5b60006149b88254614855565b9050919050565b6000601f19601f8301169050919050565b60008160601b9050919050565b60008160001c9050919050565b7f5065726d697373696f6e2064656e6965642e0000000000000000000000000000600082015250565b7f4920617574686f72697a6520746865206372656174696f6e206f6620616e204960008201527f64656e74697479206f6e206d7920626568616c662e0000000000000000000000602082015250565b7f43616e6e6f742064657374726f7920616e2045494e2066726f6d20616e20616460008201527f6472657373207468617420776173206e6f7420726563656e746c792072656d6f60208201527f7665642066726f6d20736169642045494e20766961207265636f766572792e00604082015250565b614ae0816147b3565b8114614aeb57600080fd5b50565b614af7816147c5565b8114614b0257600080fd5b50565b614b0e816147d1565b8114614b1957600080fd5b50565b614b25816147fb565b8114614b3057600080fd5b50565b614b3c81614815565b8114614b4757600080fd5b5056fea264697066735822122052a0015e74c5d430d72f87f4712761a1130709d8d3fdf8d016587ad94842fa9f64736f6c63430008040033",
          "opcodes": "PUSH1 0x80 PUSH1 0x40 MSTORE PUSH1 0x0 DUP1 PUSH1 0x0 PUSH2 0x100 EXP DUP2 SLOAD DUP2 PUSH4 0xFFFFFFFF MUL NOT AND SWAP1 DUP4 PUSH4 0xFFFFFFFF AND MUL OR SWAP1 SSTORE POP CALLVALUE DUP1 ISZERO PUSH2 0x31 JUMPI PUSH1 0x0 DUP1 REVERT JUMPDEST POP PUSH2 0x4B80 DUP1 PUSH2 0x41 PUSH1 0x0 CODECOPY PUSH1 0x0 RETURN INVALID PUSH1 0x80 PUSH1 0x40 MSTORE CALLVALUE DUP1 ISZERO PUSH2 0x10 JUMPI PUSH1 0x0 DUP1 REVERT JUMPDEST POP PUSH1 0x4 CALLDATASIZE LT PUSH2 0x18E JUMPI PUSH1 0x0 CALLDATALOAD PUSH1 0xE0 SHR DUP1 PUSH4 0x5B5AED3A GT PUSH2 0xDE JUMPI DUP1 PUSH4 0xA687662D GT PUSH2 0x97 JUMPI DUP1 PUSH4 0xD4B1CDCC GT PUSH2 0x71 JUMPI DUP1 PUSH4 0xD4B1CDCC EQ PUSH2 0x4A0 JUMPI DUP1 PUSH4 0xDD9AD9ED EQ PUSH2 0x4D0 JUMPI DUP1 PUSH4 0xE846FD91 EQ PUSH2 0x4EC JUMPI DUP1 PUSH4 0xFA57B576 EQ PUSH2 0x508 JUMPI PUSH2 0x18E JUMP JUMPDEST DUP1 PUSH4 0xA687662D EQ PUSH2 0x438 JUMPI DUP1 PUSH4 0xAB5F6781 EQ PUSH2 0x468 JUMPI DUP1 PUSH4 0xB8A5C2A6 EQ PUSH2 0x484 JUMPI PUSH2 0x18E JUMP JUMPDEST DUP1 PUSH4 0x5B5AED3A EQ PUSH2 0x351 JUMPI DUP1 PUSH4 0x7D079951 EQ PUSH2 0x381 JUMPI DUP1 PUSH4 0x85E3F058 EQ PUSH2 0x39D JUMPI DUP1 PUSH4 0x8677EBE8 EQ PUSH2 0x3D0 JUMPI DUP1 PUSH4 0x8E1BB633 EQ PUSH2 0x400 JUMPI DUP1 PUSH4 0x960B11F5 EQ PUSH2 0x41C JUMPI PUSH2 0x18E JUMP JUMPDEST DUP1 PUSH4 0x237F1A21 GT PUSH2 0x14B JUMPI DUP1 PUSH4 0x3AEDF3C9 GT PUSH2 0x125 JUMPI DUP1 PUSH4 0x3AEDF3C9 EQ PUSH2 0x2DF JUMPI DUP1 PUSH4 0x3B4656A1 EQ PUSH2 0x2FB JUMPI DUP1 PUSH4 0x53A9698A EQ PUSH2 0x305 JUMPI DUP1 PUSH4 0x5726F660 EQ PUSH2 0x335 JUMPI PUSH2 0x18E JUMP JUMPDEST DUP1 PUSH4 0x237F1A21 EQ PUSH2 0x263 JUMPI DUP1 PUSH4 0x2501FAA5 EQ PUSH2 0x293 JUMPI DUP1 PUSH4 0x268E8970 EQ PUSH2 0x2AF JUMPI PUSH2 0x18E JUMP JUMPDEST DUP1 PUSH4 0x10887DC EQ PUSH2 0x193 JUMPI DUP1 PUSH4 0x5C62C2F EQ PUSH2 0x1AF JUMPI DUP1 PUSH4 0x6C93C36 EQ PUSH2 0x1DF JUMPI DUP1 PUSH4 0x14FB5646 EQ PUSH2 0x1FB JUMPI DUP1 PUSH4 0x1BFE3508 EQ PUSH2 0x22B JUMPI DUP1 PUSH4 0x232E7D83 EQ PUSH2 0x247 JUMPI JUMPDEST PUSH1 0x0 DUP1 REVERT JUMPDEST PUSH2 0x1AD PUSH1 0x4 DUP1 CALLDATASIZE SUB DUP2 ADD SWAP1 PUSH2 0x1A8 SWAP2 SWAP1 PUSH2 0x3D68 JUMP JUMPDEST PUSH2 0x524 JUMP JUMPDEST STOP JUMPDEST PUSH2 0x1C9 PUSH1 0x4 DUP1 CALLDATASIZE SUB DUP2 ADD SWAP1 PUSH2 0x1C4 SWAP2 SWAP1 PUSH2 0x38AD JUMP JUMPDEST PUSH2 0x654 JUMP JUMPDEST PUSH1 0x40 MLOAD PUSH2 0x1D6 SWAP2 SWAP1 PUSH2 0x44F4 JUMP JUMPDEST PUSH1 0x40 MLOAD DUP1 SWAP2 SUB SWAP1 RETURN JUMPDEST PUSH2 0x1F9 PUSH1 0x4 DUP1 CALLDATASIZE SUB DUP2 ADD SWAP1 PUSH2 0x1F4 SWAP2 SWAP1 PUSH2 0x3D68 JUMP JUMPDEST PUSH2 0x69D JUMP JUMPDEST STOP JUMPDEST PUSH2 0x215 PUSH1 0x4 DUP1 CALLDATASIZE SUB DUP2 ADD SWAP1 PUSH2 0x210 SWAP2 SWAP1 PUSH2 0x38D6 JUMP JUMPDEST PUSH2 0x7FE JUMP JUMPDEST PUSH1 0x40 MLOAD PUSH2 0x222 SWAP2 SWAP1 PUSH2 0x44F4 JUMP JUMPDEST PUSH1 0x40 MLOAD DUP1 SWAP2 SUB SWAP1 RETURN JUMPDEST PUSH2 0x245 PUSH1 0x4 DUP1 CALLDATASIZE SUB DUP2 ADD SWAP1 PUSH2 0x240 SWAP2 SWAP1 PUSH2 0x38AD JUMP JUMPDEST PUSH2 0xBA9 JUMP JUMPDEST STOP JUMPDEST PUSH2 0x261 PUSH1 0x4 DUP1 CALLDATASIZE SUB DUP2 ADD SWAP1 PUSH2 0x25C SWAP2 SWAP1 PUSH2 0x3C39 JUMP JUMPDEST PUSH2 0xD4B JUMP JUMPDEST STOP JUMPDEST PUSH2 0x27D PUSH1 0x4 DUP1 CALLDATASIZE SUB DUP2 ADD SWAP1 PUSH2 0x278 SWAP2 SWAP1 PUSH2 0x38AD JUMP JUMPDEST PUSH2 0xEF8 JUMP JUMPDEST PUSH1 0x40 MLOAD PUSH2 0x28A SWAP2 SWAP1 PUSH2 0x4454 JUMP JUMPDEST PUSH1 0x40 MLOAD DUP1 SWAP2 SUB SWAP1 RETURN JUMPDEST PUSH2 0x2AD PUSH1 0x4 DUP1 CALLDATASIZE SUB DUP2 ADD SWAP1 PUSH2 0x2A8 SWAP2 SWAP1 PUSH2 0x3CA3 JUMP JUMPDEST PUSH2 0xF49 JUMP JUMPDEST STOP JUMPDEST PUSH2 0x2C9 PUSH1 0x4 DUP1 CALLDATASIZE SUB DUP2 ADD SWAP1 PUSH2 0x2C4 SWAP2 SWAP1 PUSH2 0x3ACC JUMP JUMPDEST PUSH2 0x102F JUMP JUMPDEST PUSH1 0x40 MLOAD PUSH2 0x2D6 SWAP2 SWAP1 PUSH2 0x44F4 JUMP JUMPDEST PUSH1 0x40 MLOAD DUP1 SWAP2 SUB SWAP1 RETURN JUMPDEST PUSH2 0x2F9 PUSH1 0x4 DUP1 CALLDATASIZE SUB DUP2 ADD SWAP1 PUSH2 0x2F4 SWAP2 SWAP1 PUSH2 0x3A43 JUMP JUMPDEST PUSH2 0x1359 JUMP JUMPDEST STOP JUMPDEST PUSH2 0x303 PUSH2 0x17AC JUMP JUMPDEST STOP JUMPDEST PUSH2 0x31F PUSH1 0x4 DUP1 CALLDATASIZE SUB DUP2 ADD SWAP1 PUSH2 0x31A SWAP2 SWAP1 PUSH2 0x3CA3 JUMP JUMPDEST PUSH2 0x18E6 JUMP JUMPDEST PUSH1 0x40 MLOAD PUSH2 0x32C SWAP2 SWAP1 PUSH2 0x4454 JUMP JUMPDEST PUSH1 0x40 MLOAD DUP1 SWAP2 SUB SWAP1 RETURN JUMPDEST PUSH2 0x34F PUSH1 0x4 DUP1 CALLDATASIZE SUB DUP2 ADD SWAP1 PUSH2 0x34A SWAP2 SWAP1 PUSH2 0x3D68 JUMP JUMPDEST PUSH2 0x1918 JUMP JUMPDEST STOP JUMPDEST PUSH2 0x36B PUSH1 0x4 DUP1 CALLDATASIZE SUB DUP2 ADD SWAP1 PUSH2 0x366 SWAP2 SWAP1 PUSH2 0x3C7A JUMP JUMPDEST PUSH2 0x1A48 JUMP JUMPDEST PUSH1 0x40 MLOAD PUSH2 0x378 SWAP2 SWAP1 PUSH2 0x4454 JUMP JUMPDEST PUSH1 0x40 MLOAD DUP1 SWAP2 SUB SWAP1 RETURN JUMPDEST PUSH2 0x39B PUSH1 0x4 DUP1 CALLDATASIZE SUB DUP2 ADD SWAP1 PUSH2 0x396 SWAP2 SWAP1 PUSH2 0x3C39 JUMP JUMPDEST PUSH2 0x1A78 JUMP JUMPDEST STOP JUMPDEST PUSH2 0x3B7 PUSH1 0x4 DUP1 CALLDATASIZE SUB DUP2 ADD SWAP1 PUSH2 0x3B2 SWAP2 SWAP1 PUSH2 0x3C7A JUMP JUMPDEST PUSH2 0x1C25 JUMP JUMPDEST PUSH1 0x40 MLOAD PUSH2 0x3C7 SWAP5 SWAP4 SWAP3 SWAP2 SWAP1 PUSH2 0x43A1 JUMP JUMPDEST PUSH1 0x40 MLOAD DUP1 SWAP2 SUB SWAP1 RETURN JUMPDEST PUSH2 0x3EA PUSH1 0x4 DUP1 CALLDATASIZE SUB DUP2 ADD SWAP1 PUSH2 0x3E5 SWAP2 SWAP1 PUSH2 0x3B4B JUMP JUMPDEST PUSH2 0x1E25 JUMP JUMPDEST PUSH1 0x40 MLOAD PUSH2 0x3F7 SWAP2 SWAP1 PUSH2 0x4454 JUMP JUMPDEST PUSH1 0x40 MLOAD DUP1 SWAP2 SUB SWAP1 RETURN JUMPDEST PUSH2 0x41A PUSH1 0x4 DUP1 CALLDATASIZE SUB DUP2 ADD SWAP1 PUSH2 0x415 SWAP2 SWAP1 PUSH2 0x3CDF JUMP JUMPDEST PUSH2 0x1E53 JUMP JUMPDEST STOP JUMPDEST PUSH2 0x436 PUSH1 0x4 DUP1 CALLDATASIZE SUB DUP2 ADD SWAP1 PUSH2 0x431 SWAP2 SWAP1 PUSH2 0x3D68 JUMP JUMPDEST PUSH2 0x2184 JUMP JUMPDEST STOP JUMPDEST PUSH2 0x452 PUSH1 0x4 DUP1 CALLDATASIZE SUB DUP2 ADD SWAP1 PUSH2 0x44D SWAP2 SWAP1 PUSH2 0x3CA3 JUMP JUMPDEST PUSH2 0x22E5 JUMP JUMPDEST PUSH1 0x40 MLOAD PUSH2 0x45F SWAP2 SWAP1 PUSH2 0x4454 JUMP JUMPDEST PUSH1 0x40 MLOAD DUP1 SWAP2 SUB SWAP1 RETURN JUMPDEST PUSH2 0x482 PUSH1 0x4 DUP1 CALLDATASIZE SUB DUP2 ADD SWAP1 PUSH2 0x47D SWAP2 SWAP1 PUSH2 0x39B8 JUMP JUMPDEST PUSH2 0x2331 JUMP JUMPDEST STOP JUMPDEST PUSH2 0x49E PUSH1 0x4 DUP1 CALLDATASIZE SUB DUP2 ADD SWAP1 PUSH2 0x499 SWAP2 SWAP1 PUSH2 0x3C39 JUMP JUMPDEST PUSH2 0x270F JUMP JUMPDEST STOP JUMPDEST PUSH2 0x4BA PUSH1 0x4 DUP1 CALLDATASIZE SUB DUP2 ADD SWAP1 PUSH2 0x4B5 SWAP2 SWAP1 PUSH2 0x3CA3 JUMP JUMPDEST PUSH2 0x28BC JUMP JUMPDEST PUSH1 0x40 MLOAD PUSH2 0x4C7 SWAP2 SWAP1 PUSH2 0x4454 JUMP JUMPDEST PUSH1 0x40 MLOAD DUP1 SWAP2 SUB SWAP1 RETURN JUMPDEST PUSH2 0x4EA PUSH1 0x4 DUP1 CALLDATASIZE SUB DUP2 ADD SWAP1 PUSH2 0x4E5 SWAP2 SWAP1 PUSH2 0x3BC2 JUMP JUMPDEST PUSH2 0x28EE JUMP JUMPDEST STOP JUMPDEST PUSH2 0x506 PUSH1 0x4 DUP1 CALLDATASIZE SUB DUP2 ADD SWAP1 PUSH2 0x501 SWAP2 SWAP1 PUSH2 0x3C39 JUMP JUMPDEST PUSH2 0x2AA1 JUMP JUMPDEST STOP JUMPDEST PUSH2 0x522 PUSH1 0x4 DUP1 CALLDATASIZE SUB DUP2 ADD SWAP1 PUSH2 0x51D SWAP2 SWAP1 PUSH2 0x3DBC JUMP JUMPDEST PUSH2 0x2C4E JUMP JUMPDEST STOP JUMPDEST PUSH1 0x0 JUMPDEST DUP2 MLOAD DUP2 PUSH4 0xFFFFFFFF AND LT ISZERO PUSH2 0x64F JUMPI PUSH2 0x5A4 DUP3 DUP3 PUSH4 0xFFFFFFFF AND DUP2 MLOAD DUP2 LT PUSH2 0x578 JUMPI PUSH32 0x4E487B7100000000000000000000000000000000000000000000000000000000 PUSH1 0x0 MSTORE PUSH1 0x32 PUSH1 0x4 MSTORE PUSH1 0x24 PUSH1 0x0 REVERT JUMPDEST PUSH1 0x20 MUL PUSH1 0x20 ADD ADD MLOAD PUSH1 0x1 PUSH1 0x0 DUP7 DUP2 MSTORE PUSH1 0x20 ADD SWAP1 DUP2 MSTORE PUSH1 0x20 ADD PUSH1 0x0 KECCAK256 PUSH1 0x3 ADD PUSH2 0x2F1C SWAP1 SWAP2 SWAP1 PUSH4 0xFFFFFFFF AND JUMP JUMPDEST DUP3 CALLER PUSH20 0xFFFFFFFFFFFFFFFFFFFFFFFFFFFFFFFFFFFFFFFF AND PUSH32 0xD2AF86288D6EC28D93C5459BDC5A21DA89B340C28AD430327E40139C1178986F DUP5 DUP5 PUSH4 0xFFFFFFFF AND DUP2 MLOAD DUP2 LT PUSH2 0x61C JUMPI PUSH32 0x4E487B7100000000000000000000000000000000000000000000000000000000 PUSH1 0x0 MSTORE PUSH1 0x32 PUSH1 0x4 MSTORE PUSH1 0x24 PUSH1 0x0 REVERT JUMPDEST PUSH1 0x20 MUL PUSH1 0x20 ADD ADD MLOAD PUSH1 0x1 PUSH1 0x40 MLOAD PUSH2 0x634 SWAP3 SWAP2 SWAP1 PUSH2 0x43FB JUMP JUMPDEST PUSH1 0x40 MLOAD DUP1 SWAP2 SUB SWAP1 LOG3 DUP1 DUP1 PUSH2 0x647 SWAP1 PUSH2 0x48E9 JUMP JUMPDEST SWAP2 POP POP PUSH2 0x527 JUMP JUMPDEST POP POP POP JUMP JUMPDEST PUSH1 0x0 PUSH1 0x2 PUSH1 0x0 DUP4 PUSH20 0xFFFFFFFFFFFFFFFFFFFFFFFFFFFFFFFFFFFFFFFF AND PUSH20 0xFFFFFFFFFFFFFFFFFFFFFFFFFFFFFFFFFFFFFFFF AND DUP2 MSTORE PUSH1 0x20 ADD SWAP1 DUP2 MSTORE PUSH1 0x20 ADD PUSH1 0x0 KECCAK256 SLOAD SWAP1 POP SWAP2 SWAP1 POP JUMP JUMPDEST PUSH2 0x6C5 CALLER PUSH1 0x1 PUSH1 0x0 DUP6 DUP2 MSTORE PUSH1 0x20 ADD SWAP1 DUP2 MSTORE PUSH1 0x20 ADD PUSH1 0x0 KECCAK256 PUSH1 0x3 ADD PUSH2 0x2FE1 SWAP1 SWAP2 SWAP1 PUSH4 0xFFFFFFFF AND JUMP JUMPDEST PUSH2 0x6CE JUMPI PUSH1 0x0 DUP1 REVERT JUMPDEST PUSH1 0x0 JUMPDEST DUP2 MLOAD DUP2 PUSH4 0xFFFFFFFF AND LT ISZERO PUSH2 0x7F9 JUMPI PUSH2 0x74E DUP3 DUP3 PUSH4 0xFFFFFFFF AND DUP2 MLOAD DUP2 LT PUSH2 0x722 JUMPI PUSH32 0x4E487B7100000000000000000000000000000000000000000000000000000000 PUSH1 0x0 MSTORE PUSH1 0x32 PUSH1 0x4 MSTORE PUSH1 0x24 PUSH1 0x0 REVERT JUMPDEST PUSH1 0x20 MUL PUSH1 0x20 ADD ADD MLOAD PUSH1 0x1 PUSH1 0x0 DUP7 DUP2 MSTORE PUSH1 0x20 ADD SWAP1 DUP2 MSTORE PUSH1 0x20 ADD PUSH1 0x0 KECCAK256 PUSH1 0x3 ADD PUSH2 0x316D SWAP1 SWAP2 SWAP1 PUSH4 0xFFFFFFFF AND JUMP JUMPDEST DUP3 CALLER PUSH20 0xFFFFFFFFFFFFFFFFFFFFFFFFFFFFFFFFFFFFFFFF AND PUSH32 0xE41B11C1B8E658DEA501B4A432BD3F7B3E6DB83EF57AC16C52E5F288EDEFFEC4 DUP5 DUP5 PUSH4 0xFFFFFFFF AND DUP2 MLOAD DUP2 LT PUSH2 0x7C6 JUMPI PUSH32 0x4E487B7100000000000000000000000000000000000000000000000000000000 PUSH1 0x0 MSTORE PUSH1 0x32 PUSH1 0x4 MSTORE PUSH1 0x24 PUSH1 0x0 REVERT JUMPDEST PUSH1 0x20 MUL PUSH1 0x20 ADD ADD MLOAD PUSH1 0x1 PUSH1 0x40 MLOAD PUSH2 0x7DE SWAP3 SWAP2 SWAP1 PUSH2 0x43FB JUMP JUMPDEST PUSH1 0x40 MLOAD DUP1 SWAP2 SUB SWAP1 LOG3 DUP1 DUP1 PUSH2 0x7F1 SWAP1 PUSH2 0x48E9 JUMP JUMPDEST SWAP2 POP POP PUSH2 0x6D1 JUMP JUMPDEST POP POP POP JUMP JUMPDEST PUSH1 0x0 PUSH2 0x83D DUP9 ADDRESS DUP12 DUP12 DUP12 DUP12 DUP9 PUSH1 0x40 MLOAD PUSH1 0x20 ADD PUSH2 0x81F SWAP7 SWAP6 SWAP5 SWAP4 SWAP3 SWAP2 SWAP1 PUSH2 0x41E9 JUMP JUMPDEST PUSH1 0x40 MLOAD PUSH1 0x20 DUP2 DUP4 SUB SUB DUP2 MSTORE SWAP1 PUSH1 0x40 MSTORE DUP1 MLOAD SWAP1 PUSH1 0x20 ADD KECCAK256 DUP8 DUP8 DUP8 PUSH2 0x1E25 JUMP JUMPDEST PUSH2 0x87C JUMPI PUSH1 0x40 MLOAD PUSH32 0x8C379A000000000000000000000000000000000000000000000000000000000 DUP2 MSTORE PUSH1 0x4 ADD PUSH2 0x873 SWAP1 PUSH2 0x44B4 JUMP JUMPDEST PUSH1 0x40 MLOAD DUP1 SWAP2 SUB SWAP1 REVERT JUMPDEST PUSH1 0x1 PUSH1 0x0 DUP1 DUP3 DUP3 DUP3 SWAP1 SLOAD SWAP1 PUSH2 0x100 EXP SWAP1 DIV PUSH4 0xFFFFFFFF AND PUSH2 0x89D SWAP2 SWAP1 PUSH2 0x4725 JUMP JUMPDEST SWAP3 POP PUSH2 0x100 EXP DUP2 SLOAD DUP2 PUSH4 0xFFFFFFFF MUL NOT AND SWAP1 DUP4 PUSH4 0xFFFFFFFF AND MUL OR SWAP1 SSTORE POP DUP9 PUSH1 0x1 PUSH1 0x0 DUP1 PUSH1 0x0 SWAP1 SLOAD SWAP1 PUSH2 0x100 EXP SWAP1 DIV PUSH4 0xFFFFFFFF AND PUSH4 0xFFFFFFFF AND DUP2 MSTORE PUSH1 0x20 ADD SWAP1 DUP2 MSTORE PUSH1 0x20 ADD PUSH1 0x0 KECCAK256 PUSH1 0x0 ADD PUSH1 0x0 PUSH2 0x100 EXP DUP2 SLOAD DUP2 PUSH20 0xFFFFFFFFFFFFFFFFFFFFFFFFFFFFFFFFFFFFFFFF MUL NOT AND SWAP1 DUP4 PUSH20 0xFFFFFFFFFFFFFFFFFFFFFFFFFFFFFFFFFFFFFFFF AND MUL OR SWAP1 SSTORE POP PUSH2 0x966 DUP9 PUSH1 0x1 PUSH1 0x0 DUP1 PUSH1 0x0 SWAP1 SLOAD SWAP1 PUSH2 0x100 EXP SWAP1 DIV PUSH4 0xFFFFFFFF AND PUSH4 0xFFFFFFFF AND DUP2 MSTORE PUSH1 0x20 ADD SWAP1 DUP2 MSTORE PUSH1 0x20 ADD PUSH1 0x0 KECCAK256 PUSH1 0x1 ADD PUSH2 0x2F1C SWAP1 SWAP2 SWAP1 PUSH4 0xFFFFFFFF AND JUMP JUMPDEST PUSH1 0x0 DUP1 SLOAD SWAP1 PUSH2 0x100 EXP SWAP1 DIV PUSH4 0xFFFFFFFF AND PUSH4 0xFFFFFFFF AND PUSH1 0x2 PUSH1 0x0 DUP11 PUSH20 0xFFFFFFFFFFFFFFFFFFFFFFFFFFFFFFFFFFFFFFFF AND PUSH20 0xFFFFFFFFFFFFFFFFFFFFFFFFFFFFFFFFFFFFFFFF AND DUP2 MSTORE PUSH1 0x20 ADD SWAP1 DUP2 MSTORE PUSH1 0x20 ADD PUSH1 0x0 KECCAK256 DUP2 SWAP1 SSTORE POP PUSH1 0x0 JUMPDEST DUP8 MLOAD DUP2 PUSH4 0xFFFFFFFF AND LT ISZERO PUSH2 0xA6A JUMPI PUSH2 0xA57 DUP9 DUP3 PUSH4 0xFFFFFFFF AND DUP2 MLOAD DUP2 LT PUSH2 0xA14 JUMPI PUSH32 0x4E487B7100000000000000000000000000000000000000000000000000000000 PUSH1 0x0 MSTORE PUSH1 0x32 PUSH1 0x4 MSTORE PUSH1 0x24 PUSH1 0x0 REVERT JUMPDEST PUSH1 0x20 MUL PUSH1 0x20 ADD ADD MLOAD PUSH1 0x1 PUSH1 0x0 DUP1 PUSH1 0x0 SWAP1 SLOAD SWAP1 PUSH2 0x100 EXP SWAP1 DIV PUSH4 0xFFFFFFFF AND PUSH4 0xFFFFFFFF AND DUP2 MSTORE PUSH1 0x20 ADD SWAP1 DUP2 MSTORE PUSH1 0x20 ADD PUSH1 0x0 KECCAK256 PUSH1 0x3 ADD PUSH2 0x2F1C SWAP1 SWAP2 SWAP1 PUSH4 0xFFFFFFFF AND JUMP JUMPDEST DUP1 DUP1 PUSH2 0xA62 SWAP1 PUSH2 0x48E9 JUMP JUMPDEST SWAP2 POP POP PUSH2 0x9C3 JUMP JUMPDEST POP PUSH1 0x0 JUMPDEST DUP7 MLOAD DUP2 PUSH4 0xFFFFFFFF AND LT ISZERO PUSH2 0xB15 JUMPI PUSH2 0xB02 DUP9 DUP3 PUSH4 0xFFFFFFFF AND DUP2 MLOAD DUP2 LT PUSH2 0xABF JUMPI PUSH32 0x4E487B7100000000000000000000000000000000000000000000000000000000 PUSH1 0x0 MSTORE PUSH1 0x32 PUSH1 0x4 MSTORE PUSH1 0x24 PUSH1 0x0 REVERT JUMPDEST PUSH1 0x20 MUL PUSH1 0x20 ADD ADD MLOAD PUSH1 0x1 PUSH1 0x0 DUP1 PUSH1 0x0 SWAP1 SLOAD SWAP1 PUSH2 0x100 EXP SWAP1 DIV PUSH4 0xFFFFFFFF AND PUSH4 0xFFFFFFFF AND DUP2 MSTORE PUSH1 0x20 ADD SWAP1 DUP2 MSTORE PUSH1 0x20 ADD PUSH1 0x0 KECCAK256 PUSH1 0x3 ADD PUSH2 0x2F1C SWAP1 SWAP2 SWAP1 PUSH4 0xFFFFFFFF AND JUMP JUMPDEST DUP1 DUP1 PUSH2 0xB0D SWAP1 PUSH2 0x48E9 JUMP JUMPDEST SWAP2 POP POP PUSH2 0xA6E JUMP JUMPDEST POP PUSH1 0x0 DUP1 SLOAD SWAP1 PUSH2 0x100 EXP SWAP1 DIV PUSH4 0xFFFFFFFF AND PUSH4 0xFFFFFFFF AND CALLER PUSH20 0xFFFFFFFFFFFFFFFFFFFFFFFFFFFFFFFFFFFFFFFF AND PUSH32 0xE541733A4670852051762D3CDB7D9123BEA21D01E252AA39CA403C8D0F5AB66C DUP12 DUP12 DUP12 DUP12 PUSH1 0x0 PUSH1 0x40 MLOAD PUSH2 0xB7C SWAP6 SWAP5 SWAP4 SWAP3 SWAP2 SWAP1 PUSH2 0x4340 JUMP JUMPDEST PUSH1 0x40 MLOAD DUP1 SWAP2 SUB SWAP1 LOG3 PUSH1 0x0 DUP1 SLOAD SWAP1 PUSH2 0x100 EXP SWAP1 DIV PUSH4 0xFFFFFFFF AND PUSH4 0xFFFFFFFF AND SWAP1 POP SWAP9 SWAP8 POP POP POP POP POP POP POP POP JUMP JUMPDEST PUSH1 0x0 PUSH1 0x1 PUSH1 0x0 PUSH1 0x2 PUSH1 0x0 CALLER PUSH20 0xFFFFFFFFFFFFFFFFFFFFFFFFFFFFFFFFFFFFFFFF AND PUSH20 0xFFFFFFFFFFFFFFFFFFFFFFFFFFFFFFFFFFFFFFFF AND DUP2 MSTORE PUSH1 0x20 ADD SWAP1 DUP2 MSTORE PUSH1 0x20 ADD PUSH1 0x0 KECCAK256 SLOAD DUP2 MSTORE PUSH1 0x20 ADD SWAP1 DUP2 MSTORE PUSH1 0x20 ADD PUSH1 0x0 KECCAK256 PUSH1 0x0 ADD PUSH1 0x0 SWAP1 SLOAD SWAP1 PUSH2 0x100 EXP SWAP1 DIV PUSH20 0xFFFFFFFFFFFFFFFFFFFFFFFFFFFFFFFFFFFFFFFF AND SWAP1 POP DUP2 PUSH1 0x1 PUSH1 0x0 PUSH1 0x2 PUSH1 0x0 CALLER PUSH20 0xFFFFFFFFFFFFFFFFFFFFFFFFFFFFFFFFFFFFFFFF AND PUSH20 0xFFFFFFFFFFFFFFFFFFFFFFFFFFFFFFFFFFFFFFFF AND DUP2 MSTORE PUSH1 0x20 ADD SWAP1 DUP2 MSTORE PUSH1 0x20 ADD PUSH1 0x0 KECCAK256 SLOAD DUP2 MSTORE PUSH1 0x20 ADD SWAP1 DUP2 MSTORE PUSH1 0x20 ADD PUSH1 0x0 KECCAK256 PUSH1 0x0 ADD PUSH1 0x0 PUSH2 0x100 EXP DUP2 SLOAD DUP2 PUSH20 0xFFFFFFFFFFFFFFFFFFFFFFFFFFFFFFFFFFFFFFFF MUL NOT AND SWAP1 DUP4 PUSH20 0xFFFFFFFFFFFFFFFFFFFFFFFFFFFFFFFFFFFFFFFF AND MUL OR SWAP1 SSTORE POP PUSH1 0x2 PUSH1 0x0 CALLER PUSH20 0xFFFFFFFFFFFFFFFFFFFFFFFFFFFFFFFFFFFFFFFF AND PUSH20 0xFFFFFFFFFFFFFFFFFFFFFFFFFFFFFFFFFFFFFFFF AND DUP2 MSTORE PUSH1 0x20 ADD SWAP1 DUP2 MSTORE PUSH1 0x20 ADD PUSH1 0x0 KECCAK256 SLOAD CALLER PUSH20 0xFFFFFFFFFFFFFFFFFFFFFFFFFFFFFFFFFFFFFFFF AND PUSH32 0xEC8ACD470F49FF49DC25FFB0E4D48DA58C5EB79F35AFBEC88E4ABC7156889A73 DUP4 DUP6 PUSH1 0x40 MLOAD PUSH2 0xD3F SWAP3 SWAP2 SWAP1 PUSH2 0x4317 JUMP JUMPDEST PUSH1 0x40 MLOAD DUP1 SWAP2 SUB SWAP1 LOG3 POP POP JUMP JUMPDEST PUSH1 0x0 JUMPDEST DUP2 MLOAD DUP2 PUSH4 0xFFFFFFFF AND LT ISZERO PUSH2 0xEF4 JUMPI PUSH2 0xE0A DUP3 DUP3 PUSH4 0xFFFFFFFF AND DUP2 MLOAD DUP2 LT PUSH2 0xD9F JUMPI PUSH32 0x4E487B7100000000000000000000000000000000000000000000000000000000 PUSH1 0x0 MSTORE PUSH1 0x32 PUSH1 0x4 MSTORE PUSH1 0x24 PUSH1 0x0 REVERT JUMPDEST PUSH1 0x20 MUL PUSH1 0x20 ADD ADD MLOAD PUSH1 0x1 PUSH1 0x0 PUSH1 0x2 PUSH1 0x0 CALLER PUSH20 0xFFFFFFFFFFFFFFFFFFFFFFFFFFFFFFFFFFFFFFFF AND PUSH20 0xFFFFFFFFFFFFFFFFFFFFFFFFFFFFFFFFFFFFFFFF AND DUP2 MSTORE PUSH1 0x20 ADD SWAP1 DUP2 MSTORE PUSH1 0x20 ADD PUSH1 0x0 KECCAK256 SLOAD DUP2 MSTORE PUSH1 0x20 ADD SWAP1 DUP2 MSTORE PUSH1 0x20 ADD PUSH1 0x0 KECCAK256 PUSH1 0x3 ADD PUSH2 0x316D SWAP1 SWAP2 SWAP1 PUSH4 0xFFFFFFFF AND JUMP JUMPDEST PUSH1 0x2 PUSH1 0x0 CALLER PUSH20 0xFFFFFFFFFFFFFFFFFFFFFFFFFFFFFFFFFFFFFFFF AND PUSH20 0xFFFFFFFFFFFFFFFFFFFFFFFFFFFFFFFFFFFFFFFF AND DUP2 MSTORE PUSH1 0x20 ADD SWAP1 DUP2 MSTORE PUSH1 0x20 ADD PUSH1 0x0 KECCAK256 SLOAD CALLER PUSH20 0xFFFFFFFFFFFFFFFFFFFFFFFFFFFFFFFFFFFFFFFF AND PUSH32 0xE41B11C1B8E658DEA501B4A432BD3F7B3E6DB83EF57AC16C52E5F288EDEFFEC4 DUP5 DUP5 PUSH4 0xFFFFFFFF AND DUP2 MLOAD DUP2 LT PUSH2 0xEC1 JUMPI PUSH32 0x4E487B7100000000000000000000000000000000000000000000000000000000 PUSH1 0x0 MSTORE PUSH1 0x32 PUSH1 0x4 MSTORE PUSH1 0x24 PUSH1 0x0 REVERT JUMPDEST PUSH1 0x20 MUL PUSH1 0x20 ADD ADD MLOAD PUSH1 0x0 PUSH1 0x40 MLOAD PUSH2 0xED9 SWAP3 SWAP2 SWAP1 PUSH2 0x43FB JUMP JUMPDEST PUSH1 0x40 MLOAD DUP1 SWAP2 SUB SWAP1 LOG3 DUP1 DUP1 PUSH2 0xEEC SWAP1 PUSH2 0x48E9 JUMP JUMPDEST SWAP2 POP POP PUSH2 0xD4E JUMP JUMPDEST POP POP JUMP JUMPDEST PUSH1 0x0 PUSH2 0xF42 PUSH1 0x2 PUSH1 0x0 DUP5 PUSH20 0xFFFFFFFFFFFFFFFFFFFFFFFFFFFFFFFFFFFFFFFF AND PUSH20 0xFFFFFFFFFFFFFFFFFFFFFFFFFFFFFFFFFFFFFFFF AND DUP2 MSTORE PUSH1 0x20 ADD SWAP1 DUP2 MSTORE PUSH1 0x20 ADD PUSH1 0x0 KECCAK256 SLOAD PUSH2 0x1A48 JUMP JUMPDEST SWAP1 POP SWAP2 SWAP1 POP JUMP JUMPDEST PUSH1 0x0 PUSH1 0x1 PUSH1 0x0 DUP5 DUP2 MSTORE PUSH1 0x20 ADD SWAP1 DUP2 MSTORE PUSH1 0x20 ADD PUSH1 0x0 KECCAK256 PUSH1 0x0 ADD PUSH1 0x0 SWAP1 SLOAD SWAP1 PUSH2 0x100 EXP SWAP1 DIV PUSH20 0xFFFFFFFFFFFFFFFFFFFFFFFFFFFFFFFFFFFFFFFF AND SWAP1 POP DUP2 PUSH1 0x1 PUSH1 0x0 DUP6 DUP2 MSTORE PUSH1 0x20 ADD SWAP1 DUP2 MSTORE PUSH1 0x20 ADD PUSH1 0x0 KECCAK256 PUSH1 0x0 ADD PUSH1 0x0 PUSH2 0x100 EXP DUP2 SLOAD DUP2 PUSH20 0xFFFFFFFFFFFFFFFFFFFFFFFFFFFFFFFFFFFFFFFF MUL NOT AND SWAP1 DUP4 PUSH20 0xFFFFFFFFFFFFFFFFFFFFFFFFFFFFFFFFFFFFFFFF AND MUL OR SWAP1 SSTORE POP DUP3 CALLER PUSH20 0xFFFFFFFFFFFFFFFFFFFFFFFFFFFFFFFFFFFFFFFF AND PUSH32 0xEC8ACD470F49FF49DC25FFB0E4D48DA58C5EB79F35AFBEC88E4ABC7156889A73 DUP4 DUP6 PUSH1 0x40 MLOAD PUSH2 0x1022 SWAP3 SWAP2 SWAP1 PUSH2 0x4317 JUMP JUMPDEST PUSH1 0x40 MLOAD DUP1 SWAP2 SUB SWAP1 LOG3 POP POP POP JUMP JUMPDEST PUSH1 0x0 PUSH1 0x1 PUSH1 0x0 DUP1 DUP3 DUP3 DUP3 SWAP1 SLOAD SWAP1 PUSH2 0x100 EXP SWAP1 DIV PUSH4 0xFFFFFFFF AND PUSH2 0x1052 SWAP2 SWAP1 PUSH2 0x4725 JUMP JUMPDEST SWAP3 POP PUSH2 0x100 EXP DUP2 SLOAD DUP2 PUSH4 0xFFFFFFFF MUL NOT AND SWAP1 DUP4 PUSH4 0xFFFFFFFF AND MUL OR SWAP1 SSTORE POP DUP4 PUSH1 0x1 PUSH1 0x0 DUP1 PUSH1 0x0 SWAP1 SLOAD SWAP1 PUSH2 0x100 EXP SWAP1 DIV PUSH4 0xFFFFFFFF AND PUSH4 0xFFFFFFFF AND DUP2 MSTORE PUSH1 0x20 ADD SWAP1 DUP2 MSTORE PUSH1 0x20 ADD PUSH1 0x0 KECCAK256 PUSH1 0x0 ADD PUSH1 0x0 PUSH2 0x100 EXP DUP2 SLOAD DUP2 PUSH20 0xFFFFFFFFFFFFFFFFFFFFFFFFFFFFFFFFFFFFFFFF MUL NOT AND SWAP1 DUP4 PUSH20 0xFFFFFFFFFFFFFFFFFFFFFFFFFFFFFFFFFFFFFFFF AND MUL OR SWAP1 SSTORE POP PUSH2 0x111B CALLER PUSH1 0x1 PUSH1 0x0 DUP1 PUSH1 0x0 SWAP1 SLOAD SWAP1 PUSH2 0x100 EXP SWAP1 DIV PUSH4 0xFFFFFFFF AND PUSH4 0xFFFFFFFF AND DUP2 MSTORE PUSH1 0x20 ADD SWAP1 DUP2 MSTORE PUSH1 0x20 ADD PUSH1 0x0 KECCAK256 PUSH1 0x1 ADD PUSH2 0x2F1C SWAP1 SWAP2 SWAP1 PUSH4 0xFFFFFFFF AND JUMP JUMPDEST PUSH1 0x0 DUP1 SLOAD SWAP1 PUSH2 0x100 EXP SWAP1 DIV PUSH4 0xFFFFFFFF AND PUSH4 0xFFFFFFFF AND PUSH1 0x2 PUSH1 0x0 CALLER PUSH20 0xFFFFFFFFFFFFFFFFFFFFFFFFFFFFFFFFFFFFFFFF AND PUSH20 0xFFFFFFFFFFFFFFFFFFFFFFFFFFFFFFFFFFFFFFFF AND DUP2 MSTORE PUSH1 0x20 ADD SWAP1 DUP2 MSTORE PUSH1 0x20 ADD PUSH1 0x0 KECCAK256 DUP2 SWAP1 SSTORE POP PUSH1 0x0 JUMPDEST DUP4 MLOAD DUP2 PUSH4 0xFFFFFFFF AND LT ISZERO PUSH2 0x121F JUMPI PUSH2 0x120C DUP5 DUP3 PUSH4 0xFFFFFFFF AND DUP2 MLOAD DUP2 LT PUSH2 0x11C9 JUMPI PUSH32 0x4E487B7100000000000000000000000000000000000000000000000000000000 PUSH1 0x0 MSTORE PUSH1 0x32 PUSH1 0x4 MSTORE PUSH1 0x24 PUSH1 0x0 REVERT JUMPDEST PUSH1 0x20 MUL PUSH1 0x20 ADD ADD MLOAD PUSH1 0x1 PUSH1 0x0 DUP1 PUSH1 0x0 SWAP1 SLOAD SWAP1 PUSH2 0x100 EXP SWAP1 DIV PUSH4 0xFFFFFFFF AND PUSH4 0xFFFFFFFF AND DUP2 MSTORE PUSH1 0x20 ADD SWAP1 DUP2 MSTORE PUSH1 0x20 ADD PUSH1 0x0 KECCAK256 PUSH1 0x3 ADD PUSH2 0x2F1C SWAP1 SWAP2 SWAP1 PUSH4 0xFFFFFFFF AND JUMP JUMPDEST DUP1 DUP1 PUSH2 0x1217 SWAP1 PUSH2 0x48E9 JUMP JUMPDEST SWAP2 POP POP PUSH2 0x1178 JUMP JUMPDEST POP PUSH1 0x0 JUMPDEST DUP3 MLOAD DUP2 PUSH4 0xFFFFFFFF AND LT ISZERO PUSH2 0x12CA JUMPI PUSH2 0x12B7 DUP5 DUP3 PUSH4 0xFFFFFFFF AND DUP2 MLOAD DUP2 LT PUSH2 0x1274 JUMPI PUSH32 0x4E487B7100000000000000000000000000000000000000000000000000000000 PUSH1 0x0 MSTORE PUSH1 0x32 PUSH1 0x4 MSTORE PUSH1 0x24 PUSH1 0x0 REVERT JUMPDEST PUSH1 0x20 MUL PUSH1 0x20 ADD ADD MLOAD PUSH1 0x1 PUSH1 0x0 DUP1 PUSH1 0x0 SWAP1 SLOAD SWAP1 PUSH2 0x100 EXP SWAP1 DIV PUSH4 0xFFFFFFFF AND PUSH4 0xFFFFFFFF AND DUP2 MSTORE PUSH1 0x20 ADD SWAP1 DUP2 MSTORE PUSH1 0x20 ADD PUSH1 0x0 KECCAK256 PUSH1 0x3 ADD PUSH2 0x2F1C SWAP1 SWAP2 SWAP1 PUSH4 0xFFFFFFFF AND JUMP JUMPDEST DUP1 DUP1 PUSH2 0x12C2 SWAP1 PUSH2 0x48E9 JUMP JUMPDEST SWAP2 POP POP PUSH2 0x1223 JUMP JUMPDEST POP PUSH1 0x0 DUP1 SLOAD SWAP1 PUSH2 0x100 EXP SWAP1 DIV PUSH4 0xFFFFFFFF AND PUSH4 0xFFFFFFFF AND CALLER PUSH20 0xFFFFFFFFFFFFFFFFFFFFFFFFFFFFFFFFFFFFFFFF AND PUSH32 0xE541733A4670852051762D3CDB7D9123BEA21D01E252AA39CA403C8D0F5AB66C DUP7 CALLER DUP8 DUP8 PUSH1 0x0 PUSH1 0x40 MLOAD PUSH2 0x1331 SWAP6 SWAP5 SWAP4 SWAP3 SWAP2 SWAP1 PUSH2 0x4340 JUMP JUMPDEST PUSH1 0x40 MLOAD DUP1 SWAP2 SUB SWAP1 LOG3 PUSH1 0x0 DUP1 SLOAD SWAP1 PUSH2 0x100 EXP SWAP1 DIV PUSH4 0xFFFFFFFF AND PUSH4 0xFFFFFFFF AND SWAP1 POP SWAP4 SWAP3 POP POP POP JUMP JUMPDEST DUP6 PUSH20 0xFFFFFFFFFFFFFFFFFFFFFFFFFFFFFFFFFFFFFFFF AND CALLER PUSH20 0xFFFFFFFFFFFFFFFFFFFFFFFFFFFFFFFFFFFFFFFF AND EQ ISZERO PUSH2 0x1580 JUMPI PUSH2 0x13C2 DUP6 ADDRESS DUP4 PUSH1 0x40 MLOAD PUSH1 0x20 ADD PUSH2 0x13A4 SWAP3 SWAP2 SWAP1 PUSH2 0x425C JUMP JUMPDEST PUSH1 0x40 MLOAD PUSH1 0x20 DUP2 DUP4 SUB SUB DUP2 MSTORE SWAP1 PUSH1 0x40 MSTORE DUP1 MLOAD SWAP1 PUSH1 0x20 ADD KECCAK256 DUP7 DUP7 DUP7 PUSH2 0x1E25 JUMP JUMPDEST PUSH2 0x1401 JUMPI PUSH1 0x40 MLOAD PUSH32 0x8C379A000000000000000000000000000000000000000000000000000000000 DUP2 MSTORE PUSH1 0x4 ADD PUSH2 0x13F8 SWAP1 PUSH2 0x44B4 JUMP JUMPDEST PUSH1 0x40 MLOAD DUP1 SWAP2 SUB SWAP1 REVERT JUMPDEST PUSH2 0x1468 DUP6 PUSH1 0x1 PUSH1 0x0 PUSH1 0x2 PUSH1 0x0 DUP12 PUSH20 0xFFFFFFFFFFFFFFFFFFFFFFFFFFFFFFFFFFFFFFFF AND PUSH20 0xFFFFFFFFFFFFFFFFFFFFFFFFFFFFFFFFFFFFFFFF AND DUP2 MSTORE PUSH1 0x20 ADD SWAP1 DUP2 MSTORE PUSH1 0x20 ADD PUSH1 0x0 KECCAK256 SLOAD DUP2 MSTORE PUSH1 0x20 ADD SWAP1 DUP2 MSTORE PUSH1 0x20 ADD PUSH1 0x0 KECCAK256 PUSH1 0x1 ADD PUSH2 0x2F1C SWAP1 SWAP2 SWAP1 PUSH4 0xFFFFFFFF AND JUMP JUMPDEST PUSH1 0x2 PUSH1 0x0 DUP8 PUSH20 0xFFFFFFFFFFFFFFFFFFFFFFFFFFFFFFFFFFFFFFFF AND PUSH20 0xFFFFFFFFFFFFFFFFFFFFFFFFFFFFFFFFFFFFFFFF AND DUP2 MSTORE PUSH1 0x20 ADD SWAP1 DUP2 MSTORE PUSH1 0x20 ADD PUSH1 0x0 KECCAK256 SLOAD PUSH1 0x2 PUSH1 0x0 DUP8 PUSH20 0xFFFFFFFFFFFFFFFFFFFFFFFFFFFFFFFFFFFFFFFF AND PUSH20 0xFFFFFFFFFFFFFFFFFFFFFFFFFFFFFFFFFFFFFFFF AND DUP2 MSTORE PUSH1 0x20 ADD SWAP1 DUP2 MSTORE PUSH1 0x20 ADD PUSH1 0x0 KECCAK256 DUP2 SWAP1 SSTORE POP PUSH1 0x2 PUSH1 0x0 DUP8 PUSH20 0xFFFFFFFFFFFFFFFFFFFFFFFFFFFFFFFFFFFFFFFF AND PUSH20 0xFFFFFFFFFFFFFFFFFFFFFFFFFFFFFFFFFFFFFFFF AND DUP2 MSTORE PUSH1 0x20 ADD SWAP1 DUP2 MSTORE PUSH1 0x20 ADD PUSH1 0x0 KECCAK256 SLOAD CALLER PUSH20 0xFFFFFFFFFFFFFFFFFFFFFFFFFFFFFFFFFFFFFFFF AND PUSH32 0xA0E763710BDF81797303339803590CDFAB14F495AB50975A41F3B00112C5C523 DUP9 DUP9 PUSH1 0x40 MLOAD PUSH2 0x1573 SWAP3 SWAP2 SWAP1 PUSH2 0x4317 JUMP JUMPDEST PUSH1 0x40 MLOAD DUP1 SWAP2 SUB SWAP1 LOG3 PUSH2 0x17A4 JUMP JUMPDEST DUP5 PUSH20 0xFFFFFFFFFFFFFFFFFFFFFFFFFFFFFFFFFFFFFFFF AND CALLER PUSH20 0xFFFFFFFFFFFFFFFFFFFFFFFFFFFFFFFFFFFFFFFF AND EQ ISZERO PUSH2 0x17A3 JUMPI PUSH2 0x15E9 DUP7 ADDRESS DUP4 PUSH1 0x40 MLOAD PUSH1 0x20 ADD PUSH2 0x15CB SWAP3 SWAP2 SWAP1 PUSH2 0x425C JUMP JUMPDEST PUSH1 0x40 MLOAD PUSH1 0x20 DUP2 DUP4 SUB SUB DUP2 MSTORE SWAP1 PUSH1 0x40 MSTORE DUP1 MLOAD SWAP1 PUSH1 0x20 ADD KECCAK256 DUP7 DUP7 DUP7 PUSH2 0x1E25 JUMP JUMPDEST PUSH2 0x1628 JUMPI PUSH1 0x40 MLOAD PUSH32 0x8C379A000000000000000000000000000000000000000000000000000000000 DUP2 MSTORE PUSH1 0x4 ADD PUSH2 0x161F SWAP1 PUSH2 0x44B4 JUMP JUMPDEST PUSH1 0x40 MLOAD DUP1 SWAP2 SUB SWAP1 REVERT JUMPDEST PUSH2 0x168F DUP6 PUSH1 0x1 PUSH1 0x0 PUSH1 0x2 PUSH1 0x0 DUP12 PUSH20 0xFFFFFFFFFFFFFFFFFFFFFFFFFFFFFFFFFFFFFFFF AND PUSH20 0xFFFFFFFFFFFFFFFFFFFFFFFFFFFFFFFFFFFFFFFF AND DUP2 MSTORE PUSH1 0x20 ADD SWAP1 DUP2 MSTORE PUSH1 0x20 ADD PUSH1 0x0 KECCAK256 SLOAD DUP2 MSTORE PUSH1 0x20 ADD SWAP1 DUP2 MSTORE PUSH1 0x20 ADD PUSH1 0x0 KECCAK256 PUSH1 0x1 ADD PUSH2 0x2F1C SWAP1 SWAP2 SWAP1 PUSH4 0xFFFFFFFF AND JUMP JUMPDEST PUSH1 0x2 PUSH1 0x0 DUP8 PUSH20 0xFFFFFFFFFFFFFFFFFFFFFFFFFFFFFFFFFFFFFFFF AND PUSH20 0xFFFFFFFFFFFFFFFFFFFFFFFFFFFFFFFFFFFFFFFF AND DUP2 MSTORE PUSH1 0x20 ADD SWAP1 DUP2 MSTORE PUSH1 0x20 ADD PUSH1 0x0 KECCAK256 SLOAD PUSH1 0x2 PUSH1 0x0 DUP8 PUSH20 0xFFFFFFFFFFFFFFFFFFFFFFFFFFFFFFFFFFFFFFFF AND PUSH20 0xFFFFFFFFFFFFFFFFFFFFFFFFFFFFFFFFFFFFFFFF AND DUP2 MSTORE PUSH1 0x20 ADD SWAP1 DUP2 MSTORE PUSH1 0x20 ADD PUSH1 0x0 KECCAK256 DUP2 SWAP1 SSTORE POP PUSH1 0x2 PUSH1 0x0 DUP8 PUSH20 0xFFFFFFFFFFFFFFFFFFFFFFFFFFFFFFFFFFFFFFFF AND PUSH20 0xFFFFFFFFFFFFFFFFFFFFFFFFFFFFFFFFFFFFFFFF AND DUP2 MSTORE PUSH1 0x20 ADD SWAP1 DUP2 MSTORE PUSH1 0x20 ADD PUSH1 0x0 KECCAK256 SLOAD CALLER PUSH20 0xFFFFFFFFFFFFFFFFFFFFFFFFFFFFFFFFFFFFFFFF AND PUSH32 0xA0E763710BDF81797303339803590CDFAB14F495AB50975A41F3B00112C5C523 DUP9 DUP9 PUSH1 0x40 MLOAD PUSH2 0x179A SWAP3 SWAP2 SWAP1 PUSH2 0x4317 JUMP JUMPDEST PUSH1 0x40 MLOAD DUP1 SWAP2 SUB SWAP1 LOG3 JUMPDEST JUMPDEST POP POP POP POP POP POP JUMP JUMPDEST PUSH2 0x1813 CALLER PUSH1 0x1 PUSH1 0x0 PUSH1 0x2 PUSH1 0x0 CALLER PUSH20 0xFFFFFFFFFFFFFFFFFFFFFFFFFFFFFFFFFFFFFFFF AND PUSH20 0xFFFFFFFFFFFFFFFFFFFFFFFFFFFFFFFFFFFFFFFF AND DUP2 MSTORE PUSH1 0x20 ADD SWAP1 DUP2 MSTORE PUSH1 0x20 ADD PUSH1 0x0 KECCAK256 SLOAD DUP2 MSTORE PUSH1 0x20 ADD SWAP1 DUP2 MSTORE PUSH1 0x20 ADD PUSH1 0x0 KECCAK256 PUSH1 0x1 ADD PUSH2 0x316D SWAP1 SWAP2 SWAP1 PUSH4 0xFFFFFFFF AND JUMP JUMPDEST PUSH1 0x2 PUSH1 0x0 CALLER PUSH20 0xFFFFFFFFFFFFFFFFFFFFFFFFFFFFFFFFFFFFFFFF AND PUSH20 0xFFFFFFFFFFFFFFFFFFFFFFFFFFFFFFFFFFFFFFFF AND DUP2 MSTORE PUSH1 0x20 ADD SWAP1 DUP2 MSTORE PUSH1 0x20 ADD PUSH1 0x0 KECCAK256 PUSH1 0x0 SWAP1 SSTORE PUSH1 0x2 PUSH1 0x0 CALLER PUSH20 0xFFFFFFFFFFFFFFFFFFFFFFFFFFFFFFFFFFFFFFFF AND PUSH20 0xFFFFFFFFFFFFFFFFFFFFFFFFFFFFFFFFFFFFFFFF AND DUP2 MSTORE PUSH1 0x20 ADD SWAP1 DUP2 MSTORE PUSH1 0x20 ADD PUSH1 0x0 KECCAK256 SLOAD CALLER PUSH20 0xFFFFFFFFFFFFFFFFFFFFFFFFFFFFFFFFFFFFFFFF AND PUSH32 0x4ED4E3BBE2EFE2F41F7496DF45BC4627EB3610C8F242638C7165EA0FB285D607 CALLER PUSH1 0x40 MLOAD PUSH2 0x18DC SWAP2 SWAP1 PUSH2 0x42FC JUMP JUMPDEST PUSH1 0x40 MLOAD DUP1 SWAP2 SUB SWAP1 LOG3 JUMP JUMPDEST PUSH1 0x0 PUSH2 0x1910 DUP3 PUSH1 0x1 PUSH1 0x0 DUP7 DUP2 MSTORE PUSH1 0x20 ADD SWAP1 DUP2 MSTORE PUSH1 0x20 ADD PUSH1 0x0 KECCAK256 PUSH1 0x3 ADD PUSH2 0x2FE1 SWAP1 SWAP2 SWAP1 PUSH4 0xFFFFFFFF AND JUMP JUMPDEST SWAP1 POP SWAP3 SWAP2 POP POP JUMP JUMPDEST PUSH1 0x0 JUMPDEST DUP2 MLOAD DUP2 PUSH4 0xFFFFFFFF AND LT ISZERO PUSH2 0x1A43 JUMPI PUSH2 0x1998 DUP3 DUP3 PUSH4 0xFFFFFFFF AND DUP2 MLOAD DUP2 LT PUSH2 0x196C JUMPI PUSH32 0x4E487B7100000000000000000000000000000000000000000000000000000000 PUSH1 0x0 MSTORE PUSH1 0x32 PUSH1 0x4 MSTORE PUSH1 0x24 PUSH1 0x0 REVERT JUMPDEST PUSH1 0x20 MUL PUSH1 0x20 ADD ADD MLOAD PUSH1 0x1 PUSH1 0x0 DUP7 DUP2 MSTORE PUSH1 0x20 ADD SWAP1 DUP2 MSTORE PUSH1 0x20 ADD PUSH1 0x0 KECCAK256 PUSH1 0x3 ADD PUSH2 0x316D SWAP1 SWAP2 SWAP1 PUSH4 0xFFFFFFFF AND JUMP JUMPDEST DUP3 CALLER PUSH20 0xFFFFFFFFFFFFFFFFFFFFFFFFFFFFFFFFFFFFFFFF AND PUSH32 0xE41B11C1B8E658DEA501B4A432BD3F7B3E6DB83EF57AC16C52E5F288EDEFFEC4 DUP5 DUP5 PUSH4 0xFFFFFFFF AND DUP2 MLOAD DUP2 LT PUSH2 0x1A10 JUMPI PUSH32 0x4E487B7100000000000000000000000000000000000000000000000000000000 PUSH1 0x0 MSTORE PUSH1 0x32 PUSH1 0x4 MSTORE PUSH1 0x24 PUSH1 0x0 REVERT JUMPDEST PUSH1 0x20 MUL PUSH1 0x20 ADD ADD MLOAD PUSH1 0x1 PUSH1 0x40 MLOAD PUSH2 0x1A28 SWAP3 SWAP2 SWAP1 PUSH2 0x43FB JUMP JUMPDEST PUSH1 0x40 MLOAD DUP1 SWAP2 SUB SWAP1 LOG3 DUP1 DUP1 PUSH2 0x1A3B SWAP1 PUSH2 0x48E9 JUMP JUMPDEST SWAP2 POP POP PUSH2 0x191B JUMP JUMPDEST POP POP POP JUMP JUMPDEST PUSH1 0x0 DUP1 PUSH1 0x0 SWAP1 SLOAD SWAP1 PUSH2 0x100 EXP SWAP1 DIV PUSH4 0xFFFFFFFF AND PUSH4 0xFFFFFFFF AND DUP3 GT ISZERO DUP1 ISZERO PUSH2 0x1A71 JUMPI POP PUSH1 0x0 DUP3 GT JUMPDEST SWAP1 POP SWAP2 SWAP1 POP JUMP JUMPDEST PUSH1 0x0 JUMPDEST DUP2 MLOAD DUP2 PUSH4 0xFFFFFFFF AND LT ISZERO PUSH2 0x1C21 JUMPI PUSH2 0x1B37 DUP3 DUP3 PUSH4 0xFFFFFFFF AND DUP2 MLOAD DUP2 LT PUSH2 0x1ACC JUMPI PUSH32 0x4E487B7100000000000000000000000000000000000000000000000000000000 PUSH1 0x0 MSTORE PUSH1 0x32 PUSH1 0x4 MSTORE PUSH1 0x24 PUSH1 0x0 REVERT JUMPDEST PUSH1 0x20 MUL PUSH1 0x20 ADD ADD MLOAD PUSH1 0x1 PUSH1 0x0 PUSH1 0x2 PUSH1 0x0 CALLER PUSH20 0xFFFFFFFFFFFFFFFFFFFFFFFFFFFFFFFFFFFFFFFF AND PUSH20 0xFFFFFFFFFFFFFFFFFFFFFFFFFFFFFFFFFFFFFFFF AND DUP2 MSTORE PUSH1 0x20 ADD SWAP1 DUP2 MSTORE PUSH1 0x20 ADD PUSH1 0x0 KECCAK256 SLOAD DUP2 MSTORE PUSH1 0x20 ADD SWAP1 DUP2 MSTORE PUSH1 0x20 ADD PUSH1 0x0 KECCAK256 PUSH1 0x3 ADD PUSH2 0x2F1C SWAP1 SWAP2 SWAP1 PUSH4 0xFFFFFFFF AND JUMP JUMPDEST PUSH1 0x2 PUSH1 0x0 CALLER PUSH20 0xFFFFFFFFFFFFFFFFFFFFFFFFFFFFFFFFFFFFFFFF AND PUSH20 0xFFFFFFFFFFFFFFFFFFFFFFFFFFFFFFFFFFFFFFFF AND DUP2 MSTORE PUSH1 0x20 ADD SWAP1 DUP2 MSTORE PUSH1 0x20 ADD PUSH1 0x0 KECCAK256 SLOAD CALLER PUSH20 0xFFFFFFFFFFFFFFFFFFFFFFFFFFFFFFFFFFFFFFFF AND PUSH32 0xD2AF86288D6EC28D93C5459BDC5A21DA89B340C28AD430327E40139C1178986F DUP5 DUP5 PUSH4 0xFFFFFFFF AND DUP2 MLOAD DUP2 LT PUSH2 0x1BEE JUMPI PUSH32 0x4E487B7100000000000000000000000000000000000000000000000000000000 PUSH1 0x0 MSTORE PUSH1 0x32 PUSH1 0x4 MSTORE PUSH1 0x24 PUSH1 0x0 REVERT JUMPDEST PUSH1 0x20 MUL PUSH1 0x20 ADD ADD MLOAD PUSH1 0x0 PUSH1 0x40 MLOAD PUSH2 0x1C06 SWAP3 SWAP2 SWAP1 PUSH2 0x43FB JUMP JUMPDEST PUSH1 0x40 MLOAD DUP1 SWAP2 SUB SWAP1 LOG3 DUP1 DUP1 PUSH2 0x1C19 SWAP1 PUSH2 0x48E9 JUMP JUMPDEST SWAP2 POP POP PUSH2 0x1A7B JUMP JUMPDEST POP POP JUMP JUMPDEST PUSH1 0x0 PUSH1 0x60 DUP1 PUSH1 0x60 PUSH1 0x0 PUSH1 0x1 PUSH1 0x0 DUP8 DUP2 MSTORE PUSH1 0x20 ADD SWAP1 DUP2 MSTORE PUSH1 0x20 ADD PUSH1 0x0 KECCAK256 SWAP1 POP DUP1 PUSH1 0x0 ADD PUSH1 0x0 SWAP1 SLOAD SWAP1 PUSH2 0x100 EXP SWAP1 DIV PUSH20 0xFFFFFFFFFFFFFFFFFFFFFFFFFFFFFFFFFFFFFFFF AND DUP2 PUSH1 0x1 ADD PUSH1 0x0 ADD DUP3 PUSH1 0x3 ADD PUSH1 0x0 ADD DUP4 PUSH1 0x5 ADD PUSH1 0x0 ADD DUP3 DUP1 SLOAD DUP1 PUSH1 0x20 MUL PUSH1 0x20 ADD PUSH1 0x40 MLOAD SWAP1 DUP2 ADD PUSH1 0x40 MSTORE DUP1 SWAP3 SWAP2 SWAP1 DUP2 DUP2 MSTORE PUSH1 0x20 ADD DUP3 DUP1 SLOAD DUP1 ISZERO PUSH2 0x1CFE JUMPI PUSH1 0x20 MUL DUP3 ADD SWAP2 SWAP1 PUSH1 0x0 MSTORE PUSH1 0x20 PUSH1 0x0 KECCAK256 SWAP1 JUMPDEST DUP2 PUSH1 0x0 SWAP1 SLOAD SWAP1 PUSH2 0x100 EXP SWAP1 DIV PUSH20 0xFFFFFFFFFFFFFFFFFFFFFFFFFFFFFFFFFFFFFFFF AND PUSH20 0xFFFFFFFFFFFFFFFFFFFFFFFFFFFFFFFFFFFFFFFF AND DUP2 MSTORE PUSH1 0x20 ADD SWAP1 PUSH1 0x1 ADD SWAP1 DUP1 DUP4 GT PUSH2 0x1CB4 JUMPI JUMPDEST POP POP POP POP POP SWAP3 POP DUP2 DUP1 SLOAD DUP1 PUSH1 0x20 MUL PUSH1 0x20 ADD PUSH1 0x40 MLOAD SWAP1 DUP2 ADD PUSH1 0x40 MSTORE DUP1 SWAP3 SWAP2 SWAP1 DUP2 DUP2 MSTORE PUSH1 0x20 ADD DUP3 DUP1 SLOAD DUP1 ISZERO PUSH2 0x1D86 JUMPI PUSH1 0x20 MUL DUP3 ADD SWAP2 SWAP1 PUSH1 0x0 MSTORE PUSH1 0x20 PUSH1 0x0 KECCAK256 SWAP1 JUMPDEST DUP2 PUSH1 0x0 SWAP1 SLOAD SWAP1 PUSH2 0x100 EXP SWAP1 DIV PUSH20 0xFFFFFFFFFFFFFFFFFFFFFFFFFFFFFFFFFFFFFFFF AND PUSH20 0xFFFFFFFFFFFFFFFFFFFFFFFFFFFFFFFFFFFFFFFF AND DUP2 MSTORE PUSH1 0x20 ADD SWAP1 PUSH1 0x1 ADD SWAP1 DUP1 DUP4 GT PUSH2 0x1D3C JUMPI JUMPDEST POP POP POP POP POP SWAP2 POP DUP1 DUP1 SLOAD DUP1 PUSH1 0x20 MUL PUSH1 0x20 ADD PUSH1 0x40 MLOAD SWAP1 DUP2 ADD PUSH1 0x40 MSTORE DUP1 SWAP3 SWAP2 SWAP1 DUP2 DUP2 MSTORE PUSH1 0x20 ADD DUP3 DUP1 SLOAD DUP1 ISZERO PUSH2 0x1E0E JUMPI PUSH1 0x20 MUL DUP3 ADD SWAP2 SWAP1 PUSH1 0x0 MSTORE PUSH1 0x20 PUSH1 0x0 KECCAK256 SWAP1 JUMPDEST DUP2 PUSH1 0x0 SWAP1 SLOAD SWAP1 PUSH2 0x100 EXP SWAP1 DIV PUSH20 0xFFFFFFFFFFFFFFFFFFFFFFFFFFFFFFFFFFFFFFFF AND PUSH20 0xFFFFFFFFFFFFFFFFFFFFFFFFFFFFFFFFFFFFFFFF AND DUP2 MSTORE PUSH1 0x20 ADD SWAP1 PUSH1 0x1 ADD SWAP1 DUP1 DUP4 GT PUSH2 0x1DC4 JUMPI JUMPDEST POP POP POP POP POP SWAP1 POP SWAP5 POP SWAP5 POP SWAP5 POP SWAP5 POP POP SWAP2 SWAP4 POP SWAP2 SWAP4 JUMP JUMPDEST PUSH1 0x0 PUSH2 0x1E34 DUP7 DUP7 DUP7 DUP7 DUP7 PUSH2 0x34BB JUMP JUMPDEST DUP1 PUSH2 0x1E48 JUMPI POP PUSH2 0x1E47 DUP7 DUP7 DUP7 DUP7 DUP7 PUSH2 0x3545 JUMP JUMPDEST JUMPDEST SWAP1 POP SWAP6 SWAP5 POP POP POP POP POP JUMP JUMPDEST PUSH2 0x1EBE PUSH1 0x1 PUSH1 0x0 DUP9 DUP2 MSTORE PUSH1 0x20 ADD SWAP1 DUP2 MSTORE PUSH1 0x20 ADD PUSH1 0x0 KECCAK256 PUSH1 0x0 ADD PUSH1 0x0 SWAP1 SLOAD SWAP1 PUSH2 0x100 EXP SWAP1 DIV PUSH20 0xFFFFFFFFFFFFFFFFFFFFFFFFFFFFFFFFFFFFFFFF AND ADDRESS DUP4 PUSH1 0x40 MLOAD PUSH1 0x20 ADD PUSH2 0x1EA0 SWAP3 SWAP2 SWAP1 PUSH2 0x425C JUMP JUMPDEST PUSH1 0x40 MLOAD PUSH1 0x20 DUP2 DUP4 SUB SUB DUP2 MSTORE SWAP1 PUSH1 0x40 MSTORE DUP1 MLOAD SWAP1 PUSH1 0x20 ADD KECCAK256 DUP7 DUP7 DUP7 PUSH2 0x1E25 JUMP JUMPDEST PUSH2 0x1EFD JUMPI PUSH1 0x40 MLOAD PUSH32 0x8C379A000000000000000000000000000000000000000000000000000000000 DUP2 MSTORE PUSH1 0x4 ADD PUSH2 0x1EF4 SWAP1 PUSH2 0x44B4 JUMP JUMPDEST PUSH1 0x40 MLOAD DUP1 SWAP2 SUB SWAP1 REVERT JUMPDEST PUSH1 0x0 PUSH1 0x1 PUSH1 0x0 DUP9 DUP2 MSTORE PUSH1 0x20 ADD SWAP1 DUP2 MSTORE PUSH1 0x20 ADD PUSH1 0x0 KECCAK256 PUSH1 0x1 ADD PUSH1 0x0 ADD DUP1 SLOAD DUP1 PUSH1 0x20 MUL PUSH1 0x20 ADD PUSH1 0x40 MLOAD SWAP1 DUP2 ADD PUSH1 0x40 MSTORE DUP1 SWAP3 SWAP2 SWAP1 DUP2 DUP2 MSTORE PUSH1 0x20 ADD DUP3 DUP1 SLOAD DUP1 ISZERO PUSH2 0x1F98 JUMPI PUSH1 0x20 MUL DUP3 ADD SWAP2 SWAP1 PUSH1 0x0 MSTORE PUSH1 0x20 PUSH1 0x0 KECCAK256 SWAP1 JUMPDEST DUP2 PUSH1 0x0 SWAP1 SLOAD SWAP1 PUSH2 0x100 EXP SWAP1 DIV PUSH20 0xFFFFFFFFFFFFFFFFFFFFFFFFFFFFFFFFFFFFFFFF AND PUSH20 0xFFFFFFFFFFFFFFFFFFFFFFFFFFFFFFFFFFFFFFFF AND DUP2 MSTORE PUSH1 0x20 ADD SWAP1 PUSH1 0x1 ADD SWAP1 DUP1 DUP4 GT PUSH2 0x1F4E JUMPI JUMPDEST POP POP POP POP POP SWAP1 POP PUSH3 0x127500 TIMESTAMP PUSH2 0x1FAE SWAP2 SWAP1 PUSH2 0x46CF JUMP JUMPDEST DUP3 LT ISZERO PUSH2 0x217B JUMPI PUSH1 0x0 JUMPDEST PUSH2 0x1FD6 PUSH1 0x1 PUSH1 0x0 DUP11 DUP2 MSTORE PUSH1 0x20 ADD SWAP1 DUP2 MSTORE PUSH1 0x20 ADD PUSH1 0x0 KECCAK256 PUSH1 0x1 ADD PUSH2 0x35C1 JUMP JUMPDEST DUP2 LT ISZERO PUSH2 0x20AE JUMPI PUSH1 0x2 PUSH1 0x0 PUSH1 0x1 PUSH1 0x0 DUP12 DUP2 MSTORE PUSH1 0x20 ADD SWAP1 DUP2 MSTORE PUSH1 0x20 ADD PUSH1 0x0 KECCAK256 PUSH1 0x1 ADD PUSH1 0x0 ADD DUP4 DUP2 SLOAD DUP2 LT PUSH2 0x2032 JUMPI PUSH32 0x4E487B7100000000000000000000000000000000000000000000000000000000 PUSH1 0x0 MSTORE PUSH1 0x32 PUSH1 0x4 MSTORE PUSH1 0x24 PUSH1 0x0 REVERT JUMPDEST SWAP1 PUSH1 0x0 MSTORE PUSH1 0x20 PUSH1 0x0 KECCAK256 ADD PUSH1 0x0 SWAP1 SLOAD SWAP1 PUSH2 0x100 EXP SWAP1 DIV PUSH20 0xFFFFFFFFFFFFFFFFFFFFFFFFFFFFFFFFFFFFFFFF AND PUSH20 0xFFFFFFFFFFFFFFFFFFFFFFFFFFFFFFFFFFFFFFFF AND PUSH20 0xFFFFFFFFFFFFFFFFFFFFFFFFFFFFFFFFFFFFFFFF AND DUP2 MSTORE PUSH1 0x20 ADD SWAP1 DUP2 MSTORE PUSH1 0x20 ADD PUSH1 0x0 KECCAK256 PUSH1 0x0 SWAP1 SSTORE DUP1 DUP1 PUSH2 0x20A6 SWAP1 PUSH2 0x48A0 JUMP JUMPDEST SWAP2 POP POP PUSH2 0x1FB8 JUMP JUMPDEST POP PUSH1 0x1 PUSH1 0x0 DUP9 DUP2 MSTORE PUSH1 0x20 ADD SWAP1 DUP2 MSTORE PUSH1 0x20 ADD PUSH1 0x0 KECCAK256 PUSH1 0x1 ADD PUSH1 0x0 DUP1 DUP3 ADD PUSH1 0x0 PUSH2 0x20D6 SWAP2 SWAP1 PUSH2 0x35D2 JUMP JUMPDEST POP POP PUSH1 0x1 PUSH1 0x0 DUP9 DUP2 MSTORE PUSH1 0x20 ADD SWAP1 DUP2 MSTORE PUSH1 0x20 ADD PUSH1 0x0 KECCAK256 PUSH1 0x3 ADD PUSH1 0x0 DUP1 DUP3 ADD PUSH1 0x0 PUSH2 0x20FF SWAP2 SWAP1 PUSH2 0x35D2 JUMP JUMPDEST POP POP PUSH2 0x2129 DUP7 PUSH1 0x1 PUSH1 0x0 DUP11 DUP2 MSTORE PUSH1 0x20 ADD SWAP1 DUP2 MSTORE PUSH1 0x20 ADD PUSH1 0x0 KECCAK256 PUSH1 0x1 ADD PUSH2 0x2F1C SWAP1 SWAP2 SWAP1 PUSH4 0xFFFFFFFF AND JUMP JUMPDEST DUP7 CALLER PUSH20 0xFFFFFFFFFFFFFFFFFFFFFFFFFFFFFFFFFFFFFFFF AND PUSH32 0x2FE95FBD211D0471C596B1F81D913D1389D5D1DDEB2BDD96143ACC651AA3B02E DUP4 DUP10 PUSH1 0x40 MLOAD PUSH2 0x2172 SWAP3 SWAP2 SWAP1 PUSH2 0x4424 JUMP JUMPDEST PUSH1 0x40 MLOAD DUP1 SWAP2 SUB SWAP1 LOG3 JUMPDEST POP POP POP POP POP POP POP JUMP JUMPDEST PUSH2 0x21AC CALLER PUSH1 0x1 PUSH1 0x0 DUP6 DUP2 MSTORE PUSH1 0x20 ADD SWAP1 DUP2 MSTORE PUSH1 0x20 ADD PUSH1 0x0 KECCAK256 PUSH1 0x3 ADD PUSH2 0x2FE1 SWAP1 SWAP2 SWAP1 PUSH4 0xFFFFFFFF AND JUMP JUMPDEST PUSH2 0x21B5 JUMPI PUSH1 0x0 DUP1 REVERT JUMPDEST PUSH1 0x0 JUMPDEST DUP2 MLOAD DUP2 PUSH4 0xFFFFFFFF AND LT ISZERO PUSH2 0x22E0 JUMPI PUSH2 0x2235 DUP3 DUP3 PUSH4 0xFFFFFFFF AND DUP2 MLOAD DUP2 LT PUSH2 0x2209 JUMPI PUSH32 0x4E487B7100000000000000000000000000000000000000000000000000000000 PUSH1 0x0 MSTORE PUSH1 0x32 PUSH1 0x4 MSTORE PUSH1 0x24 PUSH1 0x0 REVERT JUMPDEST PUSH1 0x20 MUL PUSH1 0x20 ADD ADD MLOAD PUSH1 0x1 PUSH1 0x0 DUP7 DUP2 MSTORE PUSH1 0x20 ADD SWAP1 DUP2 MSTORE PUSH1 0x20 ADD PUSH1 0x0 KECCAK256 PUSH1 0x3 ADD PUSH2 0x2F1C SWAP1 SWAP2 SWAP1 PUSH4 0xFFFFFFFF AND JUMP JUMPDEST DUP3 CALLER PUSH20 0xFFFFFFFFFFFFFFFFFFFFFFFFFFFFFFFFFFFFFFFF AND PUSH32 0xD2AF86288D6EC28D93C5459BDC5A21DA89B340C28AD430327E40139C1178986F DUP5 DUP5 PUSH4 0xFFFFFFFF AND DUP2 MLOAD DUP2 LT PUSH2 0x22AD JUMPI PUSH32 0x4E487B7100000000000000000000000000000000000000000000000000000000 PUSH1 0x0 MSTORE PUSH1 0x32 PUSH1 0x4 MSTORE PUSH1 0x24 PUSH1 0x0 REVERT JUMPDEST PUSH1 0x20 MUL PUSH1 0x20 ADD ADD MLOAD PUSH1 0x1 PUSH1 0x40 MLOAD PUSH2 0x22C5 SWAP3 SWAP2 SWAP1 PUSH2 0x43FB JUMP JUMPDEST PUSH1 0x40 MLOAD DUP1 SWAP2 SUB SWAP1 LOG3 DUP1 DUP1 PUSH2 0x22D8 SWAP1 PUSH2 0x48E9 JUMP JUMPDEST SWAP2 POP POP PUSH2 0x21B8 JUMP JUMPDEST POP POP POP JUMP JUMPDEST PUSH1 0x0 DUP3 PUSH1 0x2 PUSH1 0x0 DUP5 PUSH20 0xFFFFFFFFFFFFFFFFFFFFFFFFFFFFFFFFFFFFFFFF AND PUSH20 0xFFFFFFFFFFFFFFFFFFFFFFFFFFFFFFFFFFFFFFFF AND DUP2 MSTORE PUSH1 0x20 ADD SWAP1 DUP2 MSTORE PUSH1 0x20 ADD PUSH1 0x0 KECCAK256 SLOAD EQ SWAP1 POP SWAP3 SWAP2 POP POP JUMP JUMPDEST PUSH2 0x2420 DUP6 ADDRESS DUP4 PUSH1 0x40 MLOAD PUSH1 0x20 ADD PUSH2 0x2348 SWAP3 SWAP2 SWAP1 PUSH2 0x41BD JUMP JUMPDEST PUSH1 0x40 MLOAD PUSH1 0x20 DUP2 DUP4 SUB SUB DUP2 MSTORE SWAP1 PUSH1 0x40 MSTORE DUP1 MLOAD SWAP1 PUSH1 0x20 ADD KECCAK256 DUP7 PUSH1 0x1 PUSH1 0x2 DUP2 LT PUSH2 0x2398 JUMPI PUSH32 0x4E487B7100000000000000000000000000000000000000000000000000000000 PUSH1 0x0 MSTORE PUSH1 0x32 PUSH1 0x4 MSTORE PUSH1 0x24 PUSH1 0x0 REVERT JUMPDEST PUSH1 0x20 MUL ADD MLOAD DUP7 PUSH1 0x1 PUSH1 0x2 DUP2 LT PUSH2 0x23D7 JUMPI PUSH32 0x4E487B7100000000000000000000000000000000000000000000000000000000 PUSH1 0x0 MSTORE PUSH1 0x32 PUSH1 0x4 MSTORE PUSH1 0x24 PUSH1 0x0 REVERT JUMPDEST PUSH1 0x20 MUL ADD MLOAD DUP7 PUSH1 0x1 PUSH1 0x2 DUP2 LT PUSH2 0x2416 JUMPI PUSH32 0x4E487B7100000000000000000000000000000000000000000000000000000000 PUSH1 0x0 MSTORE PUSH1 0x32 PUSH1 0x4 MSTORE PUSH1 0x24 PUSH1 0x0 REVERT JUMPDEST PUSH1 0x20 MUL ADD MLOAD PUSH2 0x1E25 JUMP JUMPDEST PUSH2 0x245F JUMPI PUSH1 0x40 MLOAD PUSH32 0x8C379A000000000000000000000000000000000000000000000000000000000 DUP2 MSTORE PUSH1 0x4 ADD PUSH2 0x2456 SWAP1 PUSH2 0x44B4 JUMP JUMPDEST PUSH1 0x40 MLOAD DUP1 SWAP2 SUB SWAP1 REVERT JUMPDEST PUSH2 0x254E DUP7 ADDRESS DUP4 PUSH1 0x40 MLOAD PUSH1 0x20 ADD PUSH2 0x2476 SWAP3 SWAP2 SWAP1 PUSH2 0x41BD JUMP JUMPDEST PUSH1 0x40 MLOAD PUSH1 0x20 DUP2 DUP4 SUB SUB DUP2 MSTORE SWAP1 PUSH1 0x40 MSTORE DUP1 MLOAD SWAP1 PUSH1 0x20 ADD KECCAK256 DUP7 PUSH1 0x0 PUSH1 0x2 DUP2 LT PUSH2 0x24C6 JUMPI PUSH32 0x4E487B7100000000000000000000000000000000000000000000000000000000 PUSH1 0x0 MSTORE PUSH1 0x32 PUSH1 0x4 MSTORE PUSH1 0x24 PUSH1 0x0 REVERT JUMPDEST PUSH1 0x20 MUL ADD MLOAD DUP7 PUSH1 0x0 PUSH1 0x2 DUP2 LT PUSH2 0x2505 JUMPI PUSH32 0x4E487B7100000000000000000000000000000000000000000000000000000000 PUSH1 0x0 MSTORE PUSH1 0x32 PUSH1 0x4 MSTORE PUSH1 0x24 PUSH1 0x0 REVERT JUMPDEST PUSH1 0x20 MUL ADD MLOAD DUP7 PUSH1 0x0 PUSH1 0x2 DUP2 LT PUSH2 0x2544 JUMPI PUSH32 0x4E487B7100000000000000000000000000000000000000000000000000000000 PUSH1 0x0 MSTORE PUSH1 0x32 PUSH1 0x4 MSTORE PUSH1 0x24 PUSH1 0x0 REVERT JUMPDEST PUSH1 0x20 MUL ADD MLOAD PUSH2 0x1E25 JUMP JUMPDEST PUSH2 0x258D JUMPI PUSH1 0x40 MLOAD PUSH32 0x8C379A000000000000000000000000000000000000000000000000000000000 DUP2 MSTORE PUSH1 0x4 ADD PUSH2 0x2584 SWAP1 PUSH2 0x44B4 JUMP JUMPDEST PUSH1 0x40 MLOAD DUP1 SWAP2 SUB SWAP1 REVERT JUMPDEST PUSH2 0x25F4 DUP6 PUSH1 0x1 PUSH1 0x0 PUSH1 0x2 PUSH1 0x0 DUP12 PUSH20 0xFFFFFFFFFFFFFFFFFFFFFFFFFFFFFFFFFFFFFFFF AND PUSH20 0xFFFFFFFFFFFFFFFFFFFFFFFFFFFFFFFFFFFFFFFF AND DUP2 MSTORE PUSH1 0x20 ADD SWAP1 DUP2 MSTORE PUSH1 0x20 ADD PUSH1 0x0 KECCAK256 SLOAD DUP2 MSTORE PUSH1 0x20 ADD SWAP1 DUP2 MSTORE PUSH1 0x20 ADD PUSH1 0x0 KECCAK256 PUSH1 0x1 ADD PUSH2 0x2F1C SWAP1 SWAP2 SWAP1 PUSH4 0xFFFFFFFF AND JUMP JUMPDEST PUSH1 0x2 PUSH1 0x0 DUP8 PUSH20 0xFFFFFFFFFFFFFFFFFFFFFFFFFFFFFFFFFFFFFFFF AND PUSH20 0xFFFFFFFFFFFFFFFFFFFFFFFFFFFFFFFFFFFFFFFF AND DUP2 MSTORE PUSH1 0x20 ADD SWAP1 DUP2 MSTORE PUSH1 0x20 ADD PUSH1 0x0 KECCAK256 SLOAD PUSH1 0x2 PUSH1 0x0 DUP8 PUSH20 0xFFFFFFFFFFFFFFFFFFFFFFFFFFFFFFFFFFFFFFFF AND PUSH20 0xFFFFFFFFFFFFFFFFFFFFFFFFFFFFFFFFFFFFFFFF AND DUP2 MSTORE PUSH1 0x20 ADD SWAP1 DUP2 MSTORE PUSH1 0x20 ADD PUSH1 0x0 KECCAK256 DUP2 SWAP1 SSTORE POP PUSH1 0x2 PUSH1 0x0 DUP8 PUSH20 0xFFFFFFFFFFFFFFFFFFFFFFFFFFFFFFFFFFFFFFFF AND PUSH20 0xFFFFFFFFFFFFFFFFFFFFFFFFFFFFFFFFFFFFFFFF AND DUP2 MSTORE PUSH1 0x20 ADD SWAP1 DUP2 MSTORE PUSH1 0x20 ADD PUSH1 0x0 KECCAK256 SLOAD CALLER PUSH20 0xFFFFFFFFFFFFFFFFFFFFFFFFFFFFFFFFFFFFFFFF AND PUSH32 0xA0E763710BDF81797303339803590CDFAB14F495AB50975A41F3B00112C5C523 DUP9 DUP9 PUSH1 0x40 MLOAD PUSH2 0x26FF SWAP3 SWAP2 SWAP1 PUSH2 0x4317 JUMP JUMPDEST PUSH1 0x40 MLOAD DUP1 SWAP2 SUB SWAP1 LOG3 POP POP POP POP POP POP JUMP JUMPDEST PUSH1 0x0 JUMPDEST DUP2 MLOAD DUP2 PUSH4 0xFFFFFFFF AND LT ISZERO PUSH2 0x28B8 JUMPI PUSH2 0x27CE DUP3 DUP3 PUSH4 0xFFFFFFFF AND DUP2 MLOAD DUP2 LT PUSH2 0x2763 JUMPI PUSH32 0x4E487B7100000000000000000000000000000000000000000000000000000000 PUSH1 0x0 MSTORE PUSH1 0x32 PUSH1 0x4 MSTORE PUSH1 0x24 PUSH1 0x0 REVERT JUMPDEST PUSH1 0x20 MUL PUSH1 0x20 ADD ADD MLOAD PUSH1 0x1 PUSH1 0x0 PUSH1 0x2 PUSH1 0x0 CALLER PUSH20 0xFFFFFFFFFFFFFFFFFFFFFFFFFFFFFFFFFFFFFFFF AND PUSH20 0xFFFFFFFFFFFFFFFFFFFFFFFFFFFFFFFFFFFFFFFF AND DUP2 MSTORE PUSH1 0x20 ADD SWAP1 DUP2 MSTORE PUSH1 0x20 ADD PUSH1 0x0 KECCAK256 SLOAD DUP2 MSTORE PUSH1 0x20 ADD SWAP1 DUP2 MSTORE PUSH1 0x20 ADD PUSH1 0x0 KECCAK256 PUSH1 0x3 ADD PUSH2 0x316D SWAP1 SWAP2 SWAP1 PUSH4 0xFFFFFFFF AND JUMP JUMPDEST PUSH1 0x2 PUSH1 0x0 CALLER PUSH20 0xFFFFFFFFFFFFFFFFFFFFFFFFFFFFFFFFFFFFFFFF AND PUSH20 0xFFFFFFFFFFFFFFFFFFFFFFFFFFFFFFFFFFFFFFFF AND DUP2 MSTORE PUSH1 0x20 ADD SWAP1 DUP2 MSTORE PUSH1 0x20 ADD PUSH1 0x0 KECCAK256 SLOAD CALLER PUSH20 0xFFFFFFFFFFFFFFFFFFFFFFFFFFFFFFFFFFFFFFFF AND PUSH32 0xE41B11C1B8E658DEA501B4A432BD3F7B3E6DB83EF57AC16C52E5F288EDEFFEC4 DUP5 DUP5 PUSH4 0xFFFFFFFF AND DUP2 MLOAD DUP2 LT PUSH2 0x2885 JUMPI PUSH32 0x4E487B7100000000000000000000000000000000000000000000000000000000 PUSH1 0x0 MSTORE PUSH1 0x32 PUSH1 0x4 MSTORE PUSH1 0x24 PUSH1 0x0 REVERT JUMPDEST PUSH1 0x20 MUL PUSH1 0x20 ADD ADD MLOAD PUSH1 0x0 PUSH1 0x40 MLOAD PUSH2 0x289D SWAP3 SWAP2 SWAP1 PUSH2 0x43FB JUMP JUMPDEST PUSH1 0x40 MLOAD DUP1 SWAP2 SUB SWAP1 LOG3 DUP1 DUP1 PUSH2 0x28B0 SWAP1 PUSH2 0x48E9 JUMP JUMPDEST SWAP2 POP POP PUSH2 0x2712 JUMP JUMPDEST POP POP JUMP JUMPDEST PUSH1 0x0 PUSH2 0x28E6 DUP3 PUSH1 0x1 PUSH1 0x0 DUP7 DUP2 MSTORE PUSH1 0x20 ADD SWAP1 DUP2 MSTORE PUSH1 0x20 ADD PUSH1 0x0 KECCAK256 PUSH1 0x5 ADD PUSH2 0x2FE1 SWAP1 SWAP2 SWAP1 PUSH4 0xFFFFFFFF AND JUMP JUMPDEST SWAP1 POP SWAP3 SWAP2 POP POP JUMP JUMPDEST PUSH2 0x2923 DUP6 ADDRESS DUP4 PUSH1 0x40 MLOAD PUSH1 0x20 ADD PUSH2 0x2905 SWAP3 SWAP2 SWAP1 PUSH2 0x425C JUMP JUMPDEST PUSH1 0x40 MLOAD PUSH1 0x20 DUP2 DUP4 SUB SUB DUP2 MSTORE SWAP1 PUSH1 0x40 MSTORE DUP1 MLOAD SWAP1 PUSH1 0x20 ADD KECCAK256 DUP7 DUP7 DUP7 PUSH2 0x1E25 JUMP JUMPDEST PUSH2 0x2962 JUMPI PUSH1 0x40 MLOAD PUSH32 0x8C379A000000000000000000000000000000000000000000000000000000000 DUP2 MSTORE PUSH1 0x4 ADD PUSH2 0x2959 SWAP1 PUSH2 0x44B4 JUMP JUMPDEST PUSH1 0x40 MLOAD DUP1 SWAP2 SUB SWAP1 REVERT JUMPDEST PUSH2 0x29C9 DUP6 PUSH1 0x1 PUSH1 0x0 PUSH1 0x2 PUSH1 0x0 DUP11 PUSH20 0xFFFFFFFFFFFFFFFFFFFFFFFFFFFFFFFFFFFFFFFF AND PUSH20 0xFFFFFFFFFFFFFFFFFFFFFFFFFFFFFFFFFFFFFFFF AND DUP2 MSTORE PUSH1 0x20 ADD SWAP1 DUP2 MSTORE PUSH1 0x20 ADD PUSH1 0x0 KECCAK256 SLOAD DUP2 MSTORE PUSH1 0x20 ADD SWAP1 DUP2 MSTORE PUSH1 0x20 ADD PUSH1 0x0 KECCAK256 PUSH1 0x1 ADD PUSH2 0x316D SWAP1 SWAP2 SWAP1 PUSH4 0xFFFFFFFF AND JUMP JUMPDEST PUSH1 0x2 PUSH1 0x0 DUP7 PUSH20 0xFFFFFFFFFFFFFFFFFFFFFFFFFFFFFFFFFFFFFFFF AND PUSH20 0xFFFFFFFFFFFFFFFFFFFFFFFFFFFFFFFFFFFFFFFF AND DUP2 MSTORE PUSH1 0x20 ADD SWAP1 DUP2 MSTORE PUSH1 0x20 ADD PUSH1 0x0 KECCAK256 PUSH1 0x0 SWAP1 SSTORE PUSH1 0x2 PUSH1 0x0 CALLER PUSH20 0xFFFFFFFFFFFFFFFFFFFFFFFFFFFFFFFFFFFFFFFF AND PUSH20 0xFFFFFFFFFFFFFFFFFFFFFFFFFFFFFFFFFFFFFFFF AND DUP2 MSTORE PUSH1 0x20 ADD SWAP1 DUP2 MSTORE PUSH1 0x20 ADD PUSH1 0x0 KECCAK256 SLOAD CALLER PUSH20 0xFFFFFFFFFFFFFFFFFFFFFFFFFFFFFFFFFFFFFFFF AND PUSH32 0x4ED4E3BBE2EFE2F41F7496DF45BC4627EB3610C8F242638C7165EA0FB285D607 CALLER PUSH1 0x40 MLOAD PUSH2 0x2A92 SWAP2 SWAP1 PUSH2 0x42FC JUMP JUMPDEST PUSH1 0x40 MLOAD DUP1 SWAP2 SUB SWAP1 LOG3 POP POP POP POP POP JUMP JUMPDEST PUSH1 0x0 JUMPDEST DUP2 MLOAD DUP2 PUSH4 0xFFFFFFFF AND LT ISZERO PUSH2 0x2C4A JUMPI PUSH2 0x2B60 DUP3 DUP3 PUSH4 0xFFFFFFFF AND DUP2 MLOAD DUP2 LT PUSH2 0x2AF5 JUMPI PUSH32 0x4E487B7100000000000000000000000000000000000000000000000000000000 PUSH1 0x0 MSTORE PUSH1 0x32 PUSH1 0x4 MSTORE PUSH1 0x24 PUSH1 0x0 REVERT JUMPDEST PUSH1 0x20 MUL PUSH1 0x20 ADD ADD MLOAD PUSH1 0x1 PUSH1 0x0 PUSH1 0x2 PUSH1 0x0 CALLER PUSH20 0xFFFFFFFFFFFFFFFFFFFFFFFFFFFFFFFFFFFFFFFF AND PUSH20 0xFFFFFFFFFFFFFFFFFFFFFFFFFFFFFFFFFFFFFFFF AND DUP2 MSTORE PUSH1 0x20 ADD SWAP1 DUP2 MSTORE PUSH1 0x20 ADD PUSH1 0x0 KECCAK256 SLOAD DUP2 MSTORE PUSH1 0x20 ADD SWAP1 DUP2 MSTORE PUSH1 0x20 ADD PUSH1 0x0 KECCAK256 PUSH1 0x3 ADD PUSH2 0x2F1C SWAP1 SWAP2 SWAP1 PUSH4 0xFFFFFFFF AND JUMP JUMPDEST PUSH1 0x2 PUSH1 0x0 CALLER PUSH20 0xFFFFFFFFFFFFFFFFFFFFFFFFFFFFFFFFFFFFFFFF AND PUSH20 0xFFFFFFFFFFFFFFFFFFFFFFFFFFFFFFFFFFFFFFFF AND DUP2 MSTORE PUSH1 0x20 ADD SWAP1 DUP2 MSTORE PUSH1 0x20 ADD PUSH1 0x0 KECCAK256 SLOAD CALLER PUSH20 0xFFFFFFFFFFFFFFFFFFFFFFFFFFFFFFFFFFFFFFFF AND PUSH32 0xD2AF86288D6EC28D93C5459BDC5A21DA89B340C28AD430327E40139C1178986F DUP5 DUP5 PUSH4 0xFFFFFFFF AND DUP2 MLOAD DUP2 LT PUSH2 0x2C17 JUMPI PUSH32 0x4E487B7100000000000000000000000000000000000000000000000000000000 PUSH1 0x0 MSTORE PUSH1 0x32 PUSH1 0x4 MSTORE PUSH1 0x24 PUSH1 0x0 REVERT JUMPDEST PUSH1 0x20 MUL PUSH1 0x20 ADD ADD MLOAD PUSH1 0x0 PUSH1 0x40 MLOAD PUSH2 0x2C2F SWAP3 SWAP2 SWAP1 PUSH2 0x43FB JUMP JUMPDEST PUSH1 0x40 MLOAD DUP1 SWAP2 SUB SWAP1 LOG3 DUP1 DUP1 PUSH2 0x2C42 SWAP1 PUSH2 0x48E9 JUMP JUMPDEST SWAP2 POP POP PUSH2 0x2AA4 JUMP JUMPDEST POP POP JUMP JUMPDEST PUSH1 0x0 PUSH1 0x1 PUSH1 0x0 DUP7 DUP2 MSTORE PUSH1 0x20 ADD SWAP1 DUP2 MSTORE PUSH1 0x20 ADD PUSH1 0x0 KECCAK256 SWAP1 POP PUSH1 0x0 PUSH1 0x40 MLOAD DUP1 PUSH1 0x20 ADD PUSH1 0x40 MSTORE DUP1 CALLER PUSH20 0xFFFFFFFFFFFFFFFFFFFFFFFFFFFFFFFFFFFFFFFF AND PUSH20 0xFFFFFFFFFFFFFFFFFFFFFFFFFFFFFFFFFFFFFFFF AND DUP2 MSTORE POP SWAP1 POP DUP2 PUSH1 0x1 ADD PUSH1 0x0 ADD PUSH1 0x40 MLOAD PUSH1 0x20 ADD PUSH2 0x2CBB SWAP2 SWAP1 PUSH2 0x42BD JUMP JUMPDEST PUSH1 0x40 MLOAD PUSH1 0x20 DUP2 DUP4 SUB SUB DUP2 MSTORE SWAP1 PUSH1 0x40 MSTORE DUP1 MLOAD SWAP1 PUSH1 0x20 ADD KECCAK256 DUP6 DUP3 DUP7 PUSH1 0x40 MLOAD PUSH1 0x20 ADD PUSH2 0x2CE6 SWAP4 SWAP3 SWAP2 SWAP1 PUSH2 0x4288 JUMP JUMPDEST PUSH1 0x40 MLOAD PUSH1 0x20 DUP2 DUP4 SUB SUB DUP2 MSTORE SWAP1 PUSH1 0x40 MSTORE DUP1 MLOAD SWAP1 PUSH1 0x20 ADD KECCAK256 EQ PUSH2 0x2D3C JUMPI PUSH1 0x40 MLOAD PUSH32 0x8C379A000000000000000000000000000000000000000000000000000000000 DUP2 MSTORE PUSH1 0x4 ADD PUSH2 0x2D33 SWAP1 PUSH2 0x44D4 JUMP JUMPDEST PUSH1 0x40 MLOAD DUP1 SWAP2 SUB SWAP1 REVERT JUMPDEST PUSH1 0x0 JUMPDEST PUSH2 0x2D4B DUP4 PUSH1 0x1 ADD PUSH2 0x35C1 JUMP JUMPDEST DUP2 LT ISZERO PUSH2 0x2E23 JUMPI PUSH1 0x2 PUSH1 0x0 PUSH1 0x1 PUSH1 0x0 DUP11 DUP2 MSTORE PUSH1 0x20 ADD SWAP1 DUP2 MSTORE PUSH1 0x20 ADD PUSH1 0x0 KECCAK256 PUSH1 0x1 ADD PUSH1 0x0 ADD DUP4 DUP2 SLOAD DUP2 LT PUSH2 0x2DA7 JUMPI PUSH32 0x4E487B7100000000000000000000000000000000000000000000000000000000 PUSH1 0x0 MSTORE PUSH1 0x32 PUSH1 0x4 MSTORE PUSH1 0x24 PUSH1 0x0 REVERT JUMPDEST SWAP1 PUSH1 0x0 MSTORE PUSH1 0x20 PUSH1 0x0 KECCAK256 ADD PUSH1 0x0 SWAP1 SLOAD SWAP1 PUSH2 0x100 EXP SWAP1 DIV PUSH20 0xFFFFFFFFFFFFFFFFFFFFFFFFFFFFFFFFFFFFFFFF AND PUSH20 0xFFFFFFFFFFFFFFFFFFFFFFFFFFFFFFFFFFFFFFFF AND PUSH20 0xFFFFFFFFFFFFFFFFFFFFFFFFFFFFFFFFFFFFFFFF AND DUP2 MSTORE PUSH1 0x20 ADD SWAP1 DUP2 MSTORE PUSH1 0x20 ADD PUSH1 0x0 KECCAK256 PUSH1 0x0 SWAP1 SSTORE DUP1 DUP1 PUSH2 0x2E1B SWAP1 PUSH2 0x48A0 JUMP JUMPDEST SWAP2 POP POP PUSH2 0x2D3F JUMP JUMPDEST POP PUSH1 0x1 PUSH1 0x0 DUP8 DUP2 MSTORE PUSH1 0x20 ADD SWAP1 DUP2 MSTORE PUSH1 0x20 ADD PUSH1 0x0 KECCAK256 PUSH1 0x1 ADD PUSH1 0x0 DUP1 DUP3 ADD PUSH1 0x0 PUSH2 0x2E4B SWAP2 SWAP1 PUSH2 0x35D2 JUMP JUMPDEST POP POP PUSH1 0x1 PUSH1 0x0 DUP8 DUP2 MSTORE PUSH1 0x20 ADD SWAP1 DUP2 MSTORE PUSH1 0x20 ADD PUSH1 0x0 KECCAK256 PUSH1 0x3 ADD PUSH1 0x0 DUP1 DUP3 ADD PUSH1 0x0 PUSH2 0x2E74 SWAP2 SWAP1 PUSH2 0x35D2 JUMP JUMPDEST POP POP PUSH1 0x1 PUSH1 0x0 DUP8 DUP2 MSTORE PUSH1 0x20 ADD SWAP1 DUP2 MSTORE PUSH1 0x20 ADD PUSH1 0x0 KECCAK256 PUSH1 0x5 ADD PUSH1 0x0 DUP1 DUP3 ADD PUSH1 0x0 PUSH2 0x2E9D SWAP2 SWAP1 PUSH2 0x35D2 JUMP JUMPDEST POP POP DUP6 CALLER PUSH20 0xFFFFFFFFFFFFFFFFFFFFFFFFFFFFFFFFFFFFFFFF AND PUSH32 0x1807CC67F627D55C0A797A6C603FA124978CAF5BB45C1748329489FD0185B9EF DUP5 PUSH1 0x0 ADD PUSH1 0x0 SWAP1 SLOAD SWAP1 PUSH2 0x100 EXP SWAP1 DIV PUSH20 0xFFFFFFFFFFFFFFFFFFFFFFFFFFFFFFFFFFFFFFFF AND DUP7 PUSH1 0x40 MLOAD PUSH2 0x2F0C SWAP3 SWAP2 SWAP1 PUSH2 0x43FB JUMP JUMPDEST PUSH1 0x40 MLOAD DUP1 SWAP2 SUB SWAP1 LOG3 POP POP POP POP POP POP JUMP JUMPDEST PUSH2 0x2F26 DUP3 DUP3 PUSH2 0x2FE1 JUMP JUMPDEST PUSH2 0x2FDD JUMPI DUP2 PUSH1 0x0 ADD DUP2 SWAP1 DUP1 PUSH1 0x1 DUP2 SLOAD ADD DUP1 DUP3 SSTORE DUP1 SWAP2 POP POP PUSH1 0x1 SWAP1 SUB SWAP1 PUSH1 0x0 MSTORE PUSH1 0x20 PUSH1 0x0 KECCAK256 ADD PUSH1 0x0 SWAP1 SWAP2 SWAP1 SWAP2 SWAP1 SWAP2 PUSH2 0x100 EXP DUP2 SLOAD DUP2 PUSH20 0xFFFFFFFFFFFFFFFFFFFFFFFFFFFFFFFFFFFFFFFF MUL NOT AND SWAP1 DUP4 PUSH20 0xFFFFFFFFFFFFFFFFFFFFFFFFFFFFFFFFFFFFFFFF AND MUL OR SWAP1 SSTORE POP DUP2 PUSH1 0x0 ADD DUP1 SLOAD SWAP1 POP DUP3 PUSH1 0x1 ADD PUSH1 0x0 DUP4 PUSH20 0xFFFFFFFFFFFFFFFFFFFFFFFFFFFFFFFFFFFFFFFF AND PUSH20 0xFFFFFFFFFFFFFFFFFFFFFFFFFFFFFFFFFFFFFFFF AND DUP2 MSTORE PUSH1 0x20 ADD SWAP1 DUP2 MSTORE PUSH1 0x20 ADD PUSH1 0x0 KECCAK256 DUP2 SWAP1 SSTORE POP JUMPDEST POP POP JUMP JUMPDEST PUSH1 0x0 DUP1 DUP4 PUSH1 0x1 ADD PUSH1 0x0 DUP5 PUSH20 0xFFFFFFFFFFFFFFFFFFFFFFFFFFFFFFFFFFFFFFFF AND PUSH20 0xFFFFFFFFFFFFFFFFFFFFFFFFFFFFFFFFFFFFFFFF AND DUP2 MSTORE PUSH1 0x20 ADD SWAP1 DUP2 MSTORE PUSH1 0x20 ADD PUSH1 0x0 KECCAK256 SLOAD GT DUP1 ISZERO PUSH2 0x307B JUMPI POP DUP3 PUSH1 0x1 ADD PUSH1 0x0 DUP4 PUSH20 0xFFFFFFFFFFFFFFFFFFFFFFFFFFFFFFFFFFFFFFFF AND PUSH20 0xFFFFFFFFFFFFFFFFFFFFFFFFFFFFFFFFFFFFFFFF AND DUP2 MSTORE PUSH1 0x20 ADD SWAP1 DUP2 MSTORE PUSH1 0x20 ADD PUSH1 0x0 KECCAK256 SLOAD DUP4 PUSH1 0x0 ADD DUP1 SLOAD SWAP1 POP LT ISZERO JUMPDEST DUP1 ISZERO PUSH2 0x3165 JUMPI POP DUP2 PUSH20 0xFFFFFFFFFFFFFFFFFFFFFFFFFFFFFFFFFFFFFFFF AND DUP4 PUSH1 0x0 ADD PUSH1 0x1 DUP6 PUSH1 0x1 ADD PUSH1 0x0 DUP7 PUSH20 0xFFFFFFFFFFFFFFFFFFFFFFFFFFFFFFFFFFFFFFFF AND PUSH20 0xFFFFFFFFFFFFFFFFFFFFFFFFFFFFFFFFFFFFFFFF AND DUP2 MSTORE PUSH1 0x20 ADD SWAP1 DUP2 MSTORE PUSH1 0x20 ADD PUSH1 0x0 KECCAK256 SLOAD PUSH2 0x30EB SWAP2 SWAP1 PUSH2 0x475F JUMP JUMPDEST DUP2 SLOAD DUP2 LT PUSH2 0x3122 JUMPI PUSH32 0x4E487B7100000000000000000000000000000000000000000000000000000000 PUSH1 0x0 MSTORE PUSH1 0x32 PUSH1 0x4 MSTORE PUSH1 0x24 PUSH1 0x0 REVERT JUMPDEST SWAP1 PUSH1 0x0 MSTORE PUSH1 0x20 PUSH1 0x0 KECCAK256 ADD PUSH1 0x0 SWAP1 SLOAD SWAP1 PUSH2 0x100 EXP SWAP1 DIV PUSH20 0xFFFFFFFFFFFFFFFFFFFFFFFFFFFFFFFFFFFFFFFF AND PUSH20 0xFFFFFFFFFFFFFFFFFFFFFFFFFFFFFFFFFFFFFFFF AND EQ JUMPDEST SWAP1 POP SWAP3 SWAP2 POP POP JUMP JUMPDEST PUSH2 0x3177 DUP3 DUP3 PUSH2 0x2FE1 JUMP JUMPDEST ISZERO PUSH2 0x34B7 JUMPI DUP2 PUSH1 0x0 ADD PUSH1 0x1 PUSH2 0x318B DUP5 PUSH2 0x35C1 JUMP JUMPDEST PUSH2 0x3195 SWAP2 SWAP1 PUSH2 0x475F JUMP JUMPDEST DUP2 SLOAD DUP2 LT PUSH2 0x31CC JUMPI PUSH32 0x4E487B7100000000000000000000000000000000000000000000000000000000 PUSH1 0x0 MSTORE PUSH1 0x32 PUSH1 0x4 MSTORE PUSH1 0x24 PUSH1 0x0 REVERT JUMPDEST SWAP1 PUSH1 0x0 MSTORE PUSH1 0x20 PUSH1 0x0 KECCAK256 ADD PUSH1 0x0 SWAP1 SLOAD SWAP1 PUSH2 0x100 EXP SWAP1 DIV PUSH20 0xFFFFFFFFFFFFFFFFFFFFFFFFFFFFFFFFFFFFFFFF AND DUP3 PUSH1 0x0 ADD PUSH1 0x1 DUP5 PUSH1 0x1 ADD PUSH1 0x0 DUP6 PUSH20 0xFFFFFFFFFFFFFFFFFFFFFFFFFFFFFFFFFFFFFFFF AND PUSH20 0xFFFFFFFFFFFFFFFFFFFFFFFFFFFFFFFFFFFFFFFF AND DUP2 MSTORE PUSH1 0x20 ADD SWAP1 DUP2 MSTORE PUSH1 0x20 ADD PUSH1 0x0 KECCAK256 SLOAD PUSH2 0x3249 SWAP2 SWAP1 PUSH2 0x475F JUMP JUMPDEST DUP2 SLOAD DUP2 LT PUSH2 0x3280 JUMPI PUSH32 0x4E487B7100000000000000000000000000000000000000000000000000000000 PUSH1 0x0 MSTORE PUSH1 0x32 PUSH1 0x4 MSTORE PUSH1 0x24 PUSH1 0x0 REVERT JUMPDEST SWAP1 PUSH1 0x0 MSTORE PUSH1 0x20 PUSH1 0x0 KECCAK256 ADD PUSH1 0x0 PUSH2 0x100 EXP DUP2 SLOAD DUP2 PUSH20 0xFFFFFFFFFFFFFFFFFFFFFFFFFFFFFFFFFFFFFFFF MUL NOT AND SWAP1 DUP4 PUSH20 0xFFFFFFFFFFFFFFFFFFFFFFFFFFFFFFFFFFFFFFFF AND MUL OR SWAP1 SSTORE POP DUP2 PUSH1 0x1 ADD PUSH1 0x0 DUP3 PUSH20 0xFFFFFFFFFFFFFFFFFFFFFFFFFFFFFFFFFFFFFFFF AND PUSH20 0xFFFFFFFFFFFFFFFFFFFFFFFFFFFFFFFFFFFFFFFF AND DUP2 MSTORE PUSH1 0x20 ADD SWAP1 DUP2 MSTORE PUSH1 0x20 ADD PUSH1 0x0 KECCAK256 SLOAD DUP3 PUSH1 0x1 ADD PUSH1 0x0 DUP5 PUSH1 0x0 ADD PUSH1 0x1 DUP7 PUSH1 0x1 ADD PUSH1 0x0 DUP8 PUSH20 0xFFFFFFFFFFFFFFFFFFFFFFFFFFFFFFFFFFFFFFFF AND PUSH20 0xFFFFFFFFFFFFFFFFFFFFFFFFFFFFFFFFFFFFFFFF AND DUP2 MSTORE PUSH1 0x20 ADD SWAP1 DUP2 MSTORE PUSH1 0x20 ADD PUSH1 0x0 KECCAK256 SLOAD PUSH2 0x3362 SWAP2 SWAP1 PUSH2 0x475F JUMP JUMPDEST DUP2 SLOAD DUP2 LT PUSH2 0x3399 JUMPI PUSH32 0x4E487B7100000000000000000000000000000000000000000000000000000000 PUSH1 0x0 MSTORE PUSH1 0x32 PUSH1 0x4 MSTORE PUSH1 0x24 PUSH1 0x0 REVERT JUMPDEST SWAP1 PUSH1 0x0 MSTORE PUSH1 0x20 PUSH1 0x0 KECCAK256 ADD PUSH1 0x0 SWAP1 SLOAD SWAP1 PUSH2 0x100 EXP SWAP1 DIV PUSH20 0xFFFFFFFFFFFFFFFFFFFFFFFFFFFFFFFFFFFFFFFF AND PUSH20 0xFFFFFFFFFFFFFFFFFFFFFFFFFFFFFFFFFFFFFFFF AND PUSH20 0xFFFFFFFFFFFFFFFFFFFFFFFFFFFFFFFFFFFFFFFF AND DUP2 MSTORE PUSH1 0x20 ADD SWAP1 DUP2 MSTORE PUSH1 0x20 ADD PUSH1 0x0 KECCAK256 DUP2 SWAP1 SSTORE POP DUP2 PUSH1 0x1 ADD PUSH1 0x0 DUP3 PUSH20 0xFFFFFFFFFFFFFFFFFFFFFFFFFFFFFFFFFFFFFFFF AND PUSH20 0xFFFFFFFFFFFFFFFFFFFFFFFFFFFFFFFFFFFFFFFF AND DUP2 MSTORE PUSH1 0x20 ADD SWAP1 DUP2 MSTORE PUSH1 0x20 ADD PUSH1 0x0 KECCAK256 PUSH1 0x0 SWAP1 SSTORE DUP2 PUSH1 0x0 ADD DUP1 SLOAD DUP1 PUSH2 0x3481 JUMPI PUSH32 0x4E487B7100000000000000000000000000000000000000000000000000000000 PUSH1 0x0 MSTORE PUSH1 0x31 PUSH1 0x4 MSTORE PUSH1 0x24 PUSH1 0x0 REVERT JUMPDEST PUSH1 0x1 SWAP1 SUB DUP2 DUP2 SWAP1 PUSH1 0x0 MSTORE PUSH1 0x20 PUSH1 0x0 KECCAK256 ADD PUSH1 0x0 PUSH2 0x100 EXP DUP2 SLOAD SWAP1 PUSH20 0xFFFFFFFFFFFFFFFFFFFFFFFFFFFFFFFFFFFFFFFF MUL NOT AND SWAP1 SSTORE SWAP1 SSTORE JUMPDEST POP POP JUMP JUMPDEST PUSH1 0x0 DUP6 PUSH20 0xFFFFFFFFFFFFFFFFFFFFFFFFFFFFFFFFFFFFFFFF AND PUSH1 0x1 DUP7 DUP7 DUP7 DUP7 PUSH1 0x40 MLOAD PUSH1 0x0 DUP2 MSTORE PUSH1 0x20 ADD PUSH1 0x40 MSTORE PUSH1 0x40 MLOAD PUSH2 0x34F7 SWAP5 SWAP4 SWAP3 SWAP2 SWAP1 PUSH2 0x446F JUMP JUMPDEST PUSH1 0x20 PUSH1 0x40 MLOAD PUSH1 0x20 DUP2 SUB SWAP1 DUP1 DUP5 SUB SWAP1 DUP6 GAS STATICCALL ISZERO DUP1 ISZERO PUSH2 0x3519 JUMPI RETURNDATASIZE PUSH1 0x0 DUP1 RETURNDATACOPY RETURNDATASIZE PUSH1 0x0 REVERT JUMPDEST POP POP POP PUSH1 0x20 PUSH1 0x40 MLOAD SUB MLOAD PUSH20 0xFFFFFFFFFFFFFFFFFFFFFFFFFFFFFFFFFFFFFFFF AND EQ SWAP1 POP SWAP6 SWAP5 POP POP POP POP POP JUMP JUMPDEST PUSH1 0x0 DUP1 PUSH1 0x40 MLOAD DUP1 PUSH1 0x40 ADD PUSH1 0x40 MSTORE DUP1 PUSH1 0x1C DUP2 MSTORE PUSH1 0x20 ADD PUSH32 0x19457468657265756D205369676E6564204D6573736167653A0A333200000000 DUP2 MSTORE POP SWAP1 POP PUSH2 0x35B5 DUP8 DUP3 DUP9 PUSH1 0x40 MLOAD PUSH1 0x20 ADD PUSH2 0x3597 SWAP3 SWAP2 SWAP1 PUSH2 0x42D4 JUMP JUMPDEST PUSH1 0x40 MLOAD PUSH1 0x20 DUP2 DUP4 SUB SUB DUP2 MSTORE SWAP1 PUSH1 0x40 MSTORE DUP1 MLOAD SWAP1 PUSH1 0x20 ADD KECCAK256 DUP8 DUP8 DUP8 PUSH2 0x34BB JUMP JUMPDEST SWAP2 POP POP SWAP6 SWAP5 POP POP POP POP POP JUMP JUMPDEST PUSH1 0x0 DUP2 PUSH1 0x0 ADD DUP1 SLOAD SWAP1 POP SWAP1 POP SWAP2 SWAP1 POP JUMP JUMPDEST POP DUP1 SLOAD PUSH1 0x0 DUP3 SSTORE SWAP1 PUSH1 0x0 MSTORE PUSH1 0x20 PUSH1 0x0 KECCAK256 SWAP1 DUP2 ADD SWAP1 PUSH2 0x35F0 SWAP2 SWAP1 PUSH2 0x35F3 JUMP JUMPDEST POP JUMP JUMPDEST JUMPDEST DUP1 DUP3 GT ISZERO PUSH2 0x360C JUMPI PUSH1 0x0 DUP2 PUSH1 0x0 SWAP1 SSTORE POP PUSH1 0x1 ADD PUSH2 0x35F4 JUMP JUMPDEST POP SWAP1 JUMP JUMPDEST PUSH1 0x0 PUSH2 0x3623 PUSH2 0x361E DUP5 PUSH2 0x4534 JUMP JUMPDEST PUSH2 0x450F JUMP JUMPDEST SWAP1 POP DUP1 DUP4 DUP3 MSTORE PUSH1 0x20 DUP3 ADD SWAP1 POP DUP3 DUP6 PUSH1 0x20 DUP7 MUL DUP3 ADD GT ISZERO PUSH2 0x3642 JUMPI PUSH1 0x0 DUP1 REVERT JUMPDEST PUSH1 0x0 JUMPDEST DUP6 DUP2 LT ISZERO PUSH2 0x3672 JUMPI DUP2 PUSH2 0x3658 DUP9 DUP3 PUSH2 0x37A5 JUMP JUMPDEST DUP5 MSTORE PUSH1 0x20 DUP5 ADD SWAP4 POP PUSH1 0x20 DUP4 ADD SWAP3 POP POP PUSH1 0x1 DUP2 ADD SWAP1 POP PUSH2 0x3645 JUMP JUMPDEST POP POP POP SWAP4 SWAP3 POP POP POP JUMP JUMPDEST PUSH1 0x0 PUSH2 0x368F PUSH2 0x368A DUP5 PUSH2 0x4560 JUMP JUMPDEST PUSH2 0x450F JUMP JUMPDEST SWAP1 POP DUP1 DUP3 DUP6 PUSH1 0x20 DUP7 MUL DUP3 ADD GT ISZERO PUSH2 0x36A5 JUMPI PUSH1 0x0 DUP1 REVERT JUMPDEST PUSH1 0x0 JUMPDEST DUP6 DUP2 LT ISZERO PUSH2 0x36D5 JUMPI DUP2 PUSH2 0x36BB DUP9 DUP3 PUSH2 0x386E JUMP JUMPDEST DUP5 MSTORE PUSH1 0x20 DUP5 ADD SWAP4 POP PUSH1 0x20 DUP4 ADD SWAP3 POP POP PUSH1 0x1 DUP2 ADD SWAP1 POP PUSH2 0x36A8 JUMP JUMPDEST POP POP POP SWAP4 SWAP3 POP POP POP JUMP JUMPDEST PUSH1 0x0 PUSH2 0x36F2 PUSH2 0x36ED DUP5 PUSH2 0x4586 JUMP JUMPDEST PUSH2 0x450F JUMP JUMPDEST SWAP1 POP DUP1 DUP3 DUP6 PUSH1 0x20 DUP7 MUL DUP3 ADD GT ISZERO PUSH2 0x3708 JUMPI PUSH1 0x0 DUP1 REVERT JUMPDEST PUSH1 0x0 JUMPDEST DUP6 DUP2 LT ISZERO PUSH2 0x3738 JUMPI DUP2 PUSH2 0x371E DUP9 DUP3 PUSH2 0x3883 JUMP JUMPDEST DUP5 MSTORE PUSH1 0x20 DUP5 ADD SWAP4 POP PUSH1 0x20 DUP4 ADD SWAP3 POP POP PUSH1 0x1 DUP2 ADD SWAP1 POP PUSH2 0x370B JUMP JUMPDEST POP POP POP SWAP4 SWAP3 POP POP POP JUMP JUMPDEST PUSH1 0x0 PUSH2 0x3755 PUSH2 0x3750 DUP5 PUSH2 0x45AC JUMP JUMPDEST PUSH2 0x450F JUMP JUMPDEST SWAP1 POP DUP1 DUP3 DUP6 PUSH1 0x20 DUP7 MUL DUP3 ADD GT ISZERO PUSH2 0x376B JUMPI PUSH1 0x0 DUP1 REVERT JUMPDEST PUSH1 0x0 JUMPDEST DUP6 DUP2 LT ISZERO PUSH2 0x379B JUMPI DUP2 PUSH2 0x3781 DUP9 DUP3 PUSH2 0x3898 JUMP JUMPDEST DUP5 MSTORE PUSH1 0x20 DUP5 ADD SWAP4 POP PUSH1 0x20 DUP4 ADD SWAP3 POP POP PUSH1 0x1 DUP2 ADD SWAP1 POP PUSH2 0x376E JUMP JUMPDEST POP POP POP SWAP4 SWAP3 POP POP POP JUMP JUMPDEST PUSH1 0x0 DUP2 CALLDATALOAD SWAP1 POP PUSH2 0x37B4 DUP2 PUSH2 0x4AD7 JUMP JUMPDEST SWAP3 SWAP2 POP POP JUMP JUMPDEST PUSH1 0x0 DUP3 PUSH1 0x1F DUP4 ADD SLT PUSH2 0x37CB JUMPI PUSH1 0x0 DUP1 REVERT JUMPDEST DUP2 CALLDATALOAD PUSH2 0x37DB DUP5 DUP3 PUSH1 0x20 DUP7 ADD PUSH2 0x3610 JUMP JUMPDEST SWAP2 POP POP SWAP3 SWAP2 POP POP JUMP JUMPDEST PUSH1 0x0 DUP3 PUSH1 0x1F DUP4 ADD SLT PUSH2 0x37F5 JUMPI PUSH1 0x0 DUP1 REVERT JUMPDEST PUSH1 0x2 PUSH2 0x3802 DUP5 DUP3 DUP6 PUSH2 0x367C JUMP JUMPDEST SWAP2 POP POP SWAP3 SWAP2 POP POP JUMP JUMPDEST PUSH1 0x0 DUP3 PUSH1 0x1F DUP4 ADD SLT PUSH2 0x381C JUMPI PUSH1 0x0 DUP1 REVERT JUMPDEST PUSH1 0x2 PUSH2 0x3829 DUP5 DUP3 DUP6 PUSH2 0x36DF JUMP JUMPDEST SWAP2 POP POP SWAP3 SWAP2 POP POP JUMP JUMPDEST PUSH1 0x0 DUP3 PUSH1 0x1F DUP4 ADD SLT PUSH2 0x3843 JUMPI PUSH1 0x0 DUP1 REVERT JUMPDEST PUSH1 0x2 PUSH2 0x3850 DUP5 DUP3 DUP6 PUSH2 0x3742 JUMP JUMPDEST SWAP2 POP POP SWAP3 SWAP2 POP POP JUMP JUMPDEST PUSH1 0x0 DUP2 CALLDATALOAD SWAP1 POP PUSH2 0x3868 DUP2 PUSH2 0x4AEE JUMP JUMPDEST SWAP3 SWAP2 POP POP JUMP JUMPDEST PUSH1 0x0 DUP2 CALLDATALOAD SWAP1 POP PUSH2 0x387D DUP2 PUSH2 0x4B05 JUMP JUMPDEST SWAP3 SWAP2 POP POP JUMP JUMPDEST PUSH1 0x0 DUP2 CALLDATALOAD SWAP1 POP PUSH2 0x3892 DUP2 PUSH2 0x4B1C JUMP JUMPDEST SWAP3 SWAP2 POP POP JUMP JUMPDEST PUSH1 0x0 DUP2 CALLDATALOAD SWAP1 POP PUSH2 0x38A7 DUP2 PUSH2 0x4B33 JUMP JUMPDEST SWAP3 SWAP2 POP POP JUMP JUMPDEST PUSH1 0x0 PUSH1 0x20 DUP3 DUP5 SUB SLT ISZERO PUSH2 0x38BF JUMPI PUSH1 0x0 DUP1 REVERT JUMPDEST PUSH1 0x0 PUSH2 0x38CD DUP5 DUP3 DUP6 ADD PUSH2 0x37A5 JUMP JUMPDEST SWAP2 POP POP SWAP3 SWAP2 POP POP JUMP JUMPDEST PUSH1 0x0 DUP1 PUSH1 0x0 DUP1 PUSH1 0x0 DUP1 PUSH1 0x0 DUP1 PUSH2 0x100 DUP10 DUP12 SUB SLT ISZERO PUSH2 0x38F3 JUMPI PUSH1 0x0 DUP1 REVERT JUMPDEST PUSH1 0x0 PUSH2 0x3901 DUP12 DUP3 DUP13 ADD PUSH2 0x37A5 JUMP JUMPDEST SWAP9 POP POP PUSH1 0x20 PUSH2 0x3912 DUP12 DUP3 DUP13 ADD PUSH2 0x37A5 JUMP JUMPDEST SWAP8 POP POP PUSH1 0x40 DUP10 ADD CALLDATALOAD PUSH8 0xFFFFFFFFFFFFFFFF DUP2 GT ISZERO PUSH2 0x392F JUMPI PUSH1 0x0 DUP1 REVERT JUMPDEST PUSH2 0x393B DUP12 DUP3 DUP13 ADD PUSH2 0x37BA JUMP JUMPDEST SWAP7 POP POP PUSH1 0x60 DUP10 ADD CALLDATALOAD PUSH8 0xFFFFFFFFFFFFFFFF DUP2 GT ISZERO PUSH2 0x3958 JUMPI PUSH1 0x0 DUP1 REVERT JUMPDEST PUSH2 0x3964 DUP12 DUP3 DUP13 ADD PUSH2 0x37BA JUMP JUMPDEST SWAP6 POP POP PUSH1 0x80 PUSH2 0x3975 DUP12 DUP3 DUP13 ADD PUSH2 0x3898 JUMP JUMPDEST SWAP5 POP POP PUSH1 0xA0 PUSH2 0x3986 DUP12 DUP3 DUP13 ADD PUSH2 0x386E JUMP JUMPDEST SWAP4 POP POP PUSH1 0xC0 PUSH2 0x3997 DUP12 DUP3 DUP13 ADD PUSH2 0x386E JUMP JUMPDEST SWAP3 POP POP PUSH1 0xE0 PUSH2 0x39A8 DUP12 DUP3 DUP13 ADD PUSH2 0x3883 JUMP JUMPDEST SWAP2 POP POP SWAP3 SWAP6 SWAP9 POP SWAP3 SWAP6 SWAP9 SWAP1 SWAP4 SWAP7 POP JUMP JUMPDEST PUSH1 0x0 DUP1 PUSH1 0x0 DUP1 PUSH1 0x0 DUP1 PUSH2 0x140 DUP8 DUP10 SUB SLT ISZERO PUSH2 0x39D2 JUMPI PUSH1 0x0 DUP1 REVERT JUMPDEST PUSH1 0x0 PUSH2 0x39E0 DUP10 DUP3 DUP11 ADD PUSH2 0x37A5 JUMP JUMPDEST SWAP7 POP POP PUSH1 0x20 PUSH2 0x39F1 DUP10 DUP3 DUP11 ADD PUSH2 0x37A5 JUMP JUMPDEST SWAP6 POP POP PUSH1 0x40 PUSH2 0x3A02 DUP10 DUP3 DUP11 ADD PUSH2 0x3832 JUMP JUMPDEST SWAP5 POP POP PUSH1 0x80 PUSH2 0x3A13 DUP10 DUP3 DUP11 ADD PUSH2 0x37E4 JUMP JUMPDEST SWAP4 POP POP PUSH1 0xC0 PUSH2 0x3A24 DUP10 DUP3 DUP11 ADD PUSH2 0x37E4 JUMP JUMPDEST SWAP3 POP POP PUSH2 0x100 PUSH2 0x3A36 DUP10 DUP3 DUP11 ADD PUSH2 0x380B JUMP JUMPDEST SWAP2 POP POP SWAP3 SWAP6 POP SWAP3 SWAP6 POP SWAP3 SWAP6 JUMP JUMPDEST PUSH1 0x0 DUP1 PUSH1 0x0 DUP1 PUSH1 0x0 DUP1 PUSH1 0xC0 DUP8 DUP10 SUB SLT ISZERO PUSH2 0x3A5C JUMPI PUSH1 0x0 DUP1 REVERT JUMPDEST PUSH1 0x0 PUSH2 0x3A6A DUP10 DUP3 DUP11 ADD PUSH2 0x37A5 JUMP JUMPDEST SWAP7 POP POP PUSH1 0x20 PUSH2 0x3A7B DUP10 DUP3 DUP11 ADD PUSH2 0x37A5 JUMP JUMPDEST SWAP6 POP POP PUSH1 0x40 PUSH2 0x3A8C DUP10 DUP3 DUP11 ADD PUSH2 0x3898 JUMP JUMPDEST SWAP5 POP POP PUSH1 0x60 PUSH2 0x3A9D DUP10 DUP3 DUP11 ADD PUSH2 0x386E JUMP JUMPDEST SWAP4 POP POP PUSH1 0x80 PUSH2 0x3AAE DUP10 DUP3 DUP11 ADD PUSH2 0x386E JUMP JUMPDEST SWAP3 POP POP PUSH1 0xA0 PUSH2 0x3ABF DUP10 DUP3 DUP11 ADD PUSH2 0x3883 JUMP JUMPDEST SWAP2 POP POP SWAP3 SWAP6 POP SWAP3 SWAP6 POP SWAP3 SWAP6 JUMP JUMPDEST PUSH1 0x0 DUP1 PUSH1 0x0 PUSH1 0x60 DUP5 DUP7 SUB SLT ISZERO PUSH2 0x3AE1 JUMPI PUSH1 0x0 DUP1 REVERT JUMPDEST PUSH1 0x0 PUSH2 0x3AEF DUP7 DUP3 DUP8 ADD PUSH2 0x37A5 JUMP JUMPDEST SWAP4 POP POP PUSH1 0x20 DUP5 ADD CALLDATALOAD PUSH8 0xFFFFFFFFFFFFFFFF DUP2 GT ISZERO PUSH2 0x3B0C JUMPI PUSH1 0x0 DUP1 REVERT JUMPDEST PUSH2 0x3B18 DUP7 DUP3 DUP8 ADD PUSH2 0x37BA JUMP JUMPDEST SWAP3 POP POP PUSH1 0x40 DUP5 ADD CALLDATALOAD PUSH8 0xFFFFFFFFFFFFFFFF DUP2 GT ISZERO PUSH2 0x3B35 JUMPI PUSH1 0x0 DUP1 REVERT JUMPDEST PUSH2 0x3B41 DUP7 DUP3 DUP8 ADD PUSH2 0x37BA JUMP JUMPDEST SWAP2 POP POP SWAP3 POP SWAP3 POP SWAP3 JUMP JUMPDEST PUSH1 0x0 DUP1 PUSH1 0x0 DUP1 PUSH1 0x0 PUSH1 0xA0 DUP7 DUP9 SUB SLT ISZERO PUSH2 0x3B63 JUMPI PUSH1 0x0 DUP1 REVERT JUMPDEST PUSH1 0x0 PUSH2 0x3B71 DUP9 DUP3 DUP10 ADD PUSH2 0x37A5 JUMP JUMPDEST SWAP6 POP POP PUSH1 0x20 PUSH2 0x3B82 DUP9 DUP3 DUP10 ADD PUSH2 0x386E JUMP JUMPDEST SWAP5 POP POP PUSH1 0x40 PUSH2 0x3B93 DUP9 DUP3 DUP10 ADD PUSH2 0x3898 JUMP JUMPDEST SWAP4 POP POP PUSH1 0x60 PUSH2 0x3BA4 DUP9 DUP3 DUP10 ADD PUSH2 0x386E JUMP JUMPDEST SWAP3 POP POP PUSH1 0x80 PUSH2 0x3BB5 DUP9 DUP3 DUP10 ADD PUSH2 0x386E JUMP JUMPDEST SWAP2 POP POP SWAP3 SWAP6 POP SWAP3 SWAP6 SWAP1 SWAP4 POP JUMP JUMPDEST PUSH1 0x0 DUP1 PUSH1 0x0 DUP1 PUSH1 0x0 PUSH1 0xA0 DUP7 DUP9 SUB SLT ISZERO PUSH2 0x3BDA JUMPI PUSH1 0x0 DUP1 REVERT JUMPDEST PUSH1 0x0 PUSH2 0x3BE8 DUP9 DUP3 DUP10 ADD PUSH2 0x37A5 JUMP JUMPDEST SWAP6 POP POP PUSH1 0x20 PUSH2 0x3BF9 DUP9 DUP3 DUP10 ADD PUSH2 0x3898 JUMP JUMPDEST SWAP5 POP POP PUSH1 0x40 PUSH2 0x3C0A DUP9 DUP3 DUP10 ADD PUSH2 0x386E JUMP JUMPDEST SWAP4 POP POP PUSH1 0x60 PUSH2 0x3C1B DUP9 DUP3 DUP10 ADD PUSH2 0x386E JUMP JUMPDEST SWAP3 POP POP PUSH1 0x80 PUSH2 0x3C2C DUP9 DUP3 DUP10 ADD PUSH2 0x3883 JUMP JUMPDEST SWAP2 POP POP SWAP3 SWAP6 POP SWAP3 SWAP6 SWAP1 SWAP4 POP JUMP JUMPDEST PUSH1 0x0 PUSH1 0x20 DUP3 DUP5 SUB SLT ISZERO PUSH2 0x3C4B JUMPI PUSH1 0x0 DUP1 REVERT JUMPDEST PUSH1 0x0 DUP3 ADD CALLDATALOAD PUSH8 0xFFFFFFFFFFFFFFFF DUP2 GT ISZERO PUSH2 0x3C65 JUMPI PUSH1 0x0 DUP1 REVERT JUMPDEST PUSH2 0x3C71 DUP5 DUP3 DUP6 ADD PUSH2 0x37BA JUMP JUMPDEST SWAP2 POP POP SWAP3 SWAP2 POP POP JUMP JUMPDEST PUSH1 0x0 PUSH1 0x20 DUP3 DUP5 SUB SLT ISZERO PUSH2 0x3C8C JUMPI PUSH1 0x0 DUP1 REVERT JUMPDEST PUSH1 0x0 PUSH2 0x3C9A DUP5 DUP3 DUP6 ADD PUSH2 0x3883 JUMP JUMPDEST SWAP2 POP POP SWAP3 SWAP2 POP POP JUMP JUMPDEST PUSH1 0x0 DUP1 PUSH1 0x40 DUP4 DUP6 SUB SLT ISZERO PUSH2 0x3CB6 JUMPI PUSH1 0x0 DUP1 REVERT JUMPDEST PUSH1 0x0 PUSH2 0x3CC4 DUP6 DUP3 DUP7 ADD PUSH2 0x3883 JUMP JUMPDEST SWAP3 POP POP PUSH1 0x20 PUSH2 0x3CD5 DUP6 DUP3 DUP7 ADD PUSH2 0x37A5 JUMP JUMPDEST SWAP2 POP POP SWAP3 POP SWAP3 SWAP1 POP JUMP JUMPDEST PUSH1 0x0 DUP1 PUSH1 0x0 DUP1 PUSH1 0x0 DUP1 PUSH1 0xC0 DUP8 DUP10 SUB SLT ISZERO PUSH2 0x3CF8 JUMPI PUSH1 0x0 DUP1 REVERT JUMPDEST PUSH1 0x0 PUSH2 0x3D06 DUP10 DUP3 DUP11 ADD PUSH2 0x3883 JUMP JUMPDEST SWAP7 POP POP PUSH1 0x20 PUSH2 0x3D17 DUP10 DUP3 DUP11 ADD PUSH2 0x37A5 JUMP JUMPDEST SWAP6 POP POP PUSH1 0x40 PUSH2 0x3D28 DUP10 DUP3 DUP11 ADD PUSH2 0x3898 JUMP JUMPDEST SWAP5 POP POP PUSH1 0x60 PUSH2 0x3D39 DUP10 DUP3 DUP11 ADD PUSH2 0x386E JUMP JUMPDEST SWAP4 POP POP PUSH1 0x80 PUSH2 0x3D4A DUP10 DUP3 DUP11 ADD PUSH2 0x386E JUMP JUMPDEST SWAP3 POP POP PUSH1 0xA0 PUSH2 0x3D5B DUP10 DUP3 DUP11 ADD PUSH2 0x3883 JUMP JUMPDEST SWAP2 POP POP SWAP3 SWAP6 POP SWAP3 SWAP6 POP SWAP3 SWAP6 JUMP JUMPDEST PUSH1 0x0 DUP1 PUSH1 0x40 DUP4 DUP6 SUB SLT ISZERO PUSH2 0x3D7B JUMPI PUSH1 0x0 DUP1 REVERT JUMPDEST PUSH1 0x0 PUSH2 0x3D89 DUP6 DUP3 DUP7 ADD PUSH2 0x3883 JUMP JUMPDEST SWAP3 POP POP PUSH1 0x20 DUP4 ADD CALLDATALOAD PUSH8 0xFFFFFFFFFFFFFFFF DUP2 GT ISZERO PUSH2 0x3DA6 JUMPI PUSH1 0x0 DUP1 REVERT JUMPDEST PUSH2 0x3DB2 DUP6 DUP3 DUP7 ADD PUSH2 0x37BA JUMP JUMPDEST SWAP2 POP POP SWAP3 POP SWAP3 SWAP1 POP JUMP JUMPDEST PUSH1 0x0 DUP1 PUSH1 0x0 DUP1 PUSH1 0x80 DUP6 DUP8 SUB SLT ISZERO PUSH2 0x3DD2 JUMPI PUSH1 0x0 DUP1 REVERT JUMPDEST PUSH1 0x0 PUSH2 0x3DE0 DUP8 DUP3 DUP9 ADD PUSH2 0x3883 JUMP JUMPDEST SWAP5 POP POP PUSH1 0x20 DUP6 ADD CALLDATALOAD PUSH8 0xFFFFFFFFFFFFFFFF DUP2 GT ISZERO PUSH2 0x3DFD JUMPI PUSH1 0x0 DUP1 REVERT JUMPDEST PUSH2 0x3E09 DUP8 DUP3 DUP9 ADD PUSH2 0x37BA JUMP JUMPDEST SWAP4 POP POP PUSH1 0x40 DUP6 ADD CALLDATALOAD PUSH8 0xFFFFFFFFFFFFFFFF DUP2 GT ISZERO PUSH2 0x3E26 JUMPI PUSH1 0x0 DUP1 REVERT JUMPDEST PUSH2 0x3E32 DUP8 DUP3 DUP9 ADD PUSH2 0x37BA JUMP JUMPDEST SWAP3 POP POP PUSH1 0x60 PUSH2 0x3E43 DUP8 DUP3 DUP9 ADD PUSH2 0x3859 JUMP JUMPDEST SWAP2 POP POP SWAP3 SWAP6 SWAP2 SWAP5 POP SWAP3 POP JUMP JUMPDEST PUSH1 0x0 PUSH2 0x3E5B DUP4 DUP4 PUSH2 0x3E97 JUMP JUMPDEST PUSH1 0x20 DUP4 ADD SWAP1 POP SWAP3 SWAP2 POP POP JUMP JUMPDEST PUSH1 0x0 PUSH2 0x3E73 DUP4 DUP4 PUSH2 0x3EB5 JUMP JUMPDEST PUSH1 0x20 DUP4 ADD SWAP1 POP SWAP3 SWAP2 POP POP JUMP JUMPDEST PUSH1 0x0 PUSH2 0x3E8B DUP4 DUP4 PUSH2 0x4188 JUMP JUMPDEST PUSH1 0x20 DUP4 ADD SWAP1 POP SWAP3 SWAP2 POP POP JUMP JUMPDEST PUSH2 0x3EA0 DUP2 PUSH2 0x47B3 JUMP JUMPDEST DUP3 MSTORE POP POP JUMP JUMPDEST PUSH2 0x3EAF DUP2 PUSH2 0x47B3 JUMP JUMPDEST DUP3 MSTORE POP POP JUMP JUMPDEST PUSH2 0x3EBE DUP2 PUSH2 0x47B3 JUMP JUMPDEST DUP3 MSTORE POP POP JUMP JUMPDEST PUSH2 0x3ED5 PUSH2 0x3ED0 DUP3 PUSH2 0x47B3 JUMP JUMPDEST PUSH2 0x4916 JUMP JUMPDEST DUP3 MSTORE POP POP JUMP JUMPDEST PUSH2 0x3EE4 DUP2 PUSH2 0x460B JUMP JUMPDEST PUSH2 0x3EEE DUP2 DUP5 PUSH2 0x4676 JUMP JUMPDEST SWAP3 POP PUSH2 0x3EF9 DUP3 PUSH2 0x45D2 JUMP JUMPDEST DUP1 PUSH1 0x0 JUMPDEST DUP4 DUP2 LT ISZERO PUSH2 0x3F2A JUMPI DUP2 MLOAD PUSH2 0x3F11 DUP8 DUP3 PUSH2 0x3E67 JUMP JUMPDEST SWAP7 POP PUSH2 0x3F1C DUP4 PUSH2 0x4642 JUMP JUMPDEST SWAP3 POP POP PUSH1 0x1 DUP2 ADD SWAP1 POP PUSH2 0x3EFD JUMP JUMPDEST POP POP POP POP POP POP JUMP JUMPDEST PUSH1 0x0 PUSH2 0x3F3D DUP3 PUSH2 0x4616 JUMP JUMPDEST PUSH2 0x3F47 DUP2 DUP6 PUSH2 0x4681 JUMP JUMPDEST SWAP4 POP PUSH2 0x3F52 DUP4 PUSH2 0x45DC JUMP JUMPDEST DUP1 PUSH1 0x0 JUMPDEST DUP4 DUP2 LT ISZERO PUSH2 0x3F83 JUMPI DUP2 MLOAD PUSH2 0x3F6A DUP9 DUP3 PUSH2 0x3E4F JUMP JUMPDEST SWAP8 POP PUSH2 0x3F75 DUP4 PUSH2 0x464F JUMP JUMPDEST SWAP3 POP POP PUSH1 0x1 DUP2 ADD SWAP1 POP PUSH2 0x3F56 JUMP JUMPDEST POP DUP6 SWAP4 POP POP POP POP SWAP3 SWAP2 POP POP JUMP JUMPDEST PUSH1 0x0 PUSH2 0x3F9B DUP3 PUSH2 0x4616 JUMP JUMPDEST PUSH2 0x3FA5 DUP2 DUP6 PUSH2 0x4692 JUMP JUMPDEST SWAP4 POP PUSH2 0x3FB0 DUP4 PUSH2 0x45DC JUMP JUMPDEST DUP1 PUSH1 0x0 JUMPDEST DUP4 DUP2 LT ISZERO PUSH2 0x3FE1 JUMPI DUP2 MLOAD PUSH2 0x3FC8 DUP9 DUP3 PUSH2 0x3E67 JUMP JUMPDEST SWAP8 POP PUSH2 0x3FD3 DUP4 PUSH2 0x464F JUMP JUMPDEST SWAP3 POP POP PUSH1 0x1 DUP2 ADD SWAP1 POP PUSH2 0x3FB4 JUMP JUMPDEST POP DUP6 SWAP4 POP POP POP POP SWAP3 SWAP2 POP POP JUMP JUMPDEST PUSH1 0x0 PUSH2 0x3FF9 DUP3 PUSH2 0x4621 JUMP JUMPDEST PUSH2 0x4003 DUP2 DUP6 PUSH2 0x4692 JUMP JUMPDEST SWAP4 POP PUSH2 0x400E DUP4 PUSH2 0x45EC JUMP JUMPDEST DUP1 PUSH1 0x0 JUMPDEST DUP4 DUP2 LT ISZERO PUSH2 0x4046 JUMPI PUSH2 0x4023 DUP3 PUSH2 0x49AC JUMP JUMPDEST PUSH2 0x402D DUP9 DUP3 PUSH2 0x3E67 JUMP JUMPDEST SWAP8 POP PUSH2 0x4038 DUP4 PUSH2 0x465C JUMP JUMPDEST SWAP3 POP POP PUSH1 0x1 DUP2 ADD SWAP1 POP PUSH2 0x4012 JUMP JUMPDEST POP DUP6 SWAP4 POP POP POP POP SWAP3 SWAP2 POP POP JUMP JUMPDEST PUSH2 0x405C DUP2 PUSH2 0x462C JUMP JUMPDEST PUSH2 0x4066 DUP2 DUP5 PUSH2 0x469D JUMP JUMPDEST SWAP3 POP PUSH2 0x4071 DUP3 PUSH2 0x4601 JUMP JUMPDEST DUP1 PUSH1 0x0 JUMPDEST DUP4 DUP2 LT ISZERO PUSH2 0x40A2 JUMPI DUP2 MLOAD PUSH2 0x4089 DUP8 DUP3 PUSH2 0x3E7F JUMP JUMPDEST SWAP7 POP PUSH2 0x4094 DUP4 PUSH2 0x4669 JUMP JUMPDEST SWAP3 POP POP PUSH1 0x1 DUP2 ADD SWAP1 POP PUSH2 0x4075 JUMP JUMPDEST POP POP POP POP POP POP JUMP JUMPDEST PUSH2 0x40B3 DUP2 PUSH2 0x47C5 JUMP JUMPDEST DUP3 MSTORE POP POP JUMP JUMPDEST PUSH2 0x40C2 DUP2 PUSH2 0x47D1 JUMP JUMPDEST DUP3 MSTORE POP POP JUMP JUMPDEST PUSH2 0x40D9 PUSH2 0x40D4 DUP3 PUSH2 0x47D1 JUMP JUMPDEST PUSH2 0x4928 JUMP JUMPDEST DUP3 MSTORE POP POP JUMP JUMPDEST PUSH1 0x0 PUSH2 0x40EA DUP3 PUSH2 0x4637 JUMP JUMPDEST PUSH2 0x40F4 DUP2 DUP6 PUSH2 0x46A8 JUMP JUMPDEST SWAP4 POP PUSH2 0x4104 DUP2 DUP6 PUSH1 0x20 DUP7 ADD PUSH2 0x4822 JUMP JUMPDEST DUP1 DUP5 ADD SWAP2 POP POP SWAP3 SWAP2 POP POP JUMP JUMPDEST PUSH1 0x0 PUSH2 0x411D PUSH1 0x12 DUP4 PUSH2 0x46B3 JUMP JUMPDEST SWAP2 POP PUSH2 0x4128 DUP3 PUSH2 0x49EA JUMP JUMPDEST PUSH1 0x20 DUP3 ADD SWAP1 POP SWAP2 SWAP1 POP JUMP JUMPDEST PUSH1 0x0 PUSH2 0x4140 PUSH1 0x35 DUP4 PUSH2 0x46C4 JUMP JUMPDEST SWAP2 POP PUSH2 0x414B DUP3 PUSH2 0x4A13 JUMP JUMPDEST PUSH1 0x35 DUP3 ADD SWAP1 POP SWAP2 SWAP1 POP JUMP JUMPDEST PUSH1 0x0 PUSH2 0x4163 PUSH1 0x5F DUP4 PUSH2 0x46B3 JUMP JUMPDEST SWAP2 POP PUSH2 0x416E DUP3 PUSH2 0x4A62 JUMP JUMPDEST PUSH1 0x60 DUP3 ADD SWAP1 POP SWAP2 SWAP1 POP JUMP JUMPDEST PUSH2 0x4182 DUP2 PUSH2 0x47FB JUMP JUMPDEST DUP3 MSTORE POP POP JUMP JUMPDEST PUSH2 0x4191 DUP2 PUSH2 0x47FB JUMP JUMPDEST DUP3 MSTORE POP POP JUMP JUMPDEST PUSH2 0x41A8 PUSH2 0x41A3 DUP3 PUSH2 0x47FB JUMP JUMPDEST PUSH2 0x4944 JUMP JUMPDEST DUP3 MSTORE POP POP JUMP JUMPDEST PUSH2 0x41B7 DUP2 PUSH2 0x4815 JUMP JUMPDEST DUP3 MSTORE POP POP JUMP JUMPDEST PUSH1 0x0 PUSH2 0x41C9 DUP3 DUP6 PUSH2 0x3EC4 JUMP JUMPDEST PUSH1 0x14 DUP3 ADD SWAP2 POP PUSH2 0x41D9 DUP3 DUP5 PUSH2 0x4053 JUMP JUMPDEST PUSH1 0x40 DUP3 ADD SWAP2 POP DUP2 SWAP1 POP SWAP4 SWAP3 POP POP POP JUMP JUMPDEST PUSH1 0x0 PUSH2 0x41F5 DUP3 DUP10 PUSH2 0x3EC4 JUMP JUMPDEST PUSH1 0x14 DUP3 ADD SWAP2 POP PUSH2 0x4204 DUP3 PUSH2 0x4133 JUMP JUMPDEST SWAP2 POP PUSH2 0x4210 DUP3 DUP9 PUSH2 0x3EC4 JUMP JUMPDEST PUSH1 0x14 DUP3 ADD SWAP2 POP PUSH2 0x4220 DUP3 DUP8 PUSH2 0x3EC4 JUMP JUMPDEST PUSH1 0x14 DUP3 ADD SWAP2 POP PUSH2 0x4230 DUP3 DUP7 PUSH2 0x3F90 JUMP JUMPDEST SWAP2 POP PUSH2 0x423C DUP3 DUP6 PUSH2 0x3F90 JUMP JUMPDEST SWAP2 POP PUSH2 0x4248 DUP3 DUP5 PUSH2 0x4197 JUMP JUMPDEST PUSH1 0x20 DUP3 ADD SWAP2 POP DUP2 SWAP1 POP SWAP8 SWAP7 POP POP POP POP POP POP POP JUMP JUMPDEST PUSH1 0x0 PUSH2 0x4268 DUP3 DUP6 PUSH2 0x3EC4 JUMP JUMPDEST PUSH1 0x14 DUP3 ADD SWAP2 POP PUSH2 0x4278 DUP3 DUP5 PUSH2 0x4197 JUMP JUMPDEST PUSH1 0x20 DUP3 ADD SWAP2 POP DUP2 SWAP1 POP SWAP4 SWAP3 POP POP POP JUMP JUMPDEST PUSH1 0x0 PUSH2 0x4294 DUP3 DUP7 PUSH2 0x3F90 JUMP JUMPDEST SWAP2 POP PUSH2 0x42A0 DUP3 DUP6 PUSH2 0x3EDB JUMP JUMPDEST PUSH1 0x20 DUP3 ADD SWAP2 POP PUSH2 0x42B0 DUP3 DUP5 PUSH2 0x3F90 JUMP JUMPDEST SWAP2 POP DUP2 SWAP1 POP SWAP5 SWAP4 POP POP POP POP JUMP JUMPDEST PUSH1 0x0 PUSH2 0x42C9 DUP3 DUP5 PUSH2 0x3FEE JUMP JUMPDEST SWAP2 POP DUP2 SWAP1 POP SWAP3 SWAP2 POP POP JUMP JUMPDEST PUSH1 0x0 PUSH2 0x42E0 DUP3 DUP6 PUSH2 0x40DF JUMP JUMPDEST SWAP2 POP PUSH2 0x42EC DUP3 DUP5 PUSH2 0x40C8 JUMP JUMPDEST PUSH1 0x20 DUP3 ADD SWAP2 POP DUP2 SWAP1 POP SWAP4 SWAP3 POP POP POP JUMP JUMPDEST PUSH1 0x0 PUSH1 0x20 DUP3 ADD SWAP1 POP PUSH2 0x4311 PUSH1 0x0 DUP4 ADD DUP5 PUSH2 0x3EA6 JUMP JUMPDEST SWAP3 SWAP2 POP POP JUMP JUMPDEST PUSH1 0x0 PUSH1 0x40 DUP3 ADD SWAP1 POP PUSH2 0x432C PUSH1 0x0 DUP4 ADD DUP6 PUSH2 0x3EA6 JUMP JUMPDEST PUSH2 0x4339 PUSH1 0x20 DUP4 ADD DUP5 PUSH2 0x3EA6 JUMP JUMPDEST SWAP4 SWAP3 POP POP POP JUMP JUMPDEST PUSH1 0x0 PUSH1 0xA0 DUP3 ADD SWAP1 POP PUSH2 0x4355 PUSH1 0x0 DUP4 ADD DUP9 PUSH2 0x3EA6 JUMP JUMPDEST PUSH2 0x4362 PUSH1 0x20 DUP4 ADD DUP8 PUSH2 0x3EA6 JUMP JUMPDEST DUP2 DUP2 SUB PUSH1 0x40 DUP4 ADD MSTORE PUSH2 0x4374 DUP2 DUP7 PUSH2 0x3F32 JUMP JUMPDEST SWAP1 POP DUP2 DUP2 SUB PUSH1 0x60 DUP4 ADD MSTORE PUSH2 0x4388 DUP2 DUP6 PUSH2 0x3F32 JUMP JUMPDEST SWAP1 POP PUSH2 0x4397 PUSH1 0x80 DUP4 ADD DUP5 PUSH2 0x40AA JUMP JUMPDEST SWAP7 SWAP6 POP POP POP POP POP POP JUMP JUMPDEST PUSH1 0x0 PUSH1 0x80 DUP3 ADD SWAP1 POP PUSH2 0x43B6 PUSH1 0x0 DUP4 ADD DUP8 PUSH2 0x3EA6 JUMP JUMPDEST DUP2 DUP2 SUB PUSH1 0x20 DUP4 ADD MSTORE PUSH2 0x43C8 DUP2 DUP7 PUSH2 0x3F32 JUMP JUMPDEST SWAP1 POP DUP2 DUP2 SUB PUSH1 0x40 DUP4 ADD MSTORE PUSH2 0x43DC DUP2 DUP6 PUSH2 0x3F32 JUMP JUMPDEST SWAP1 POP DUP2 DUP2 SUB PUSH1 0x60 DUP4 ADD MSTORE PUSH2 0x43F0 DUP2 DUP5 PUSH2 0x3F32 JUMP JUMPDEST SWAP1 POP SWAP6 SWAP5 POP POP POP POP POP JUMP JUMPDEST PUSH1 0x0 PUSH1 0x40 DUP3 ADD SWAP1 POP PUSH2 0x4410 PUSH1 0x0 DUP4 ADD DUP6 PUSH2 0x3EA6 JUMP JUMPDEST PUSH2 0x441D PUSH1 0x20 DUP4 ADD DUP5 PUSH2 0x40AA JUMP JUMPDEST SWAP4 SWAP3 POP POP POP JUMP JUMPDEST PUSH1 0x0 PUSH1 0x40 DUP3 ADD SWAP1 POP DUP2 DUP2 SUB PUSH1 0x0 DUP4 ADD MSTORE PUSH2 0x443E DUP2 DUP6 PUSH2 0x3F32 JUMP JUMPDEST SWAP1 POP PUSH2 0x444D PUSH1 0x20 DUP4 ADD DUP5 PUSH2 0x3EA6 JUMP JUMPDEST SWAP4 SWAP3 POP POP POP JUMP JUMPDEST PUSH1 0x0 PUSH1 0x20 DUP3 ADD SWAP1 POP PUSH2 0x4469 PUSH1 0x0 DUP4 ADD DUP5 PUSH2 0x40AA JUMP JUMPDEST SWAP3 SWAP2 POP POP JUMP JUMPDEST PUSH1 0x0 PUSH1 0x80 DUP3 ADD SWAP1 POP PUSH2 0x4484 PUSH1 0x0 DUP4 ADD DUP8 PUSH2 0x40B9 JUMP JUMPDEST PUSH2 0x4491 PUSH1 0x20 DUP4 ADD DUP7 PUSH2 0x41AE JUMP JUMPDEST PUSH2 0x449E PUSH1 0x40 DUP4 ADD DUP6 PUSH2 0x40B9 JUMP JUMPDEST PUSH2 0x44AB PUSH1 0x60 DUP4 ADD DUP5 PUSH2 0x40B9 JUMP JUMPDEST SWAP6 SWAP5 POP POP POP POP POP JUMP JUMPDEST PUSH1 0x0 PUSH1 0x20 DUP3 ADD SWAP1 POP DUP2 DUP2 SUB PUSH1 0x0 DUP4 ADD MSTORE PUSH2 0x44CD DUP2 PUSH2 0x4110 JUMP JUMPDEST SWAP1 POP SWAP2 SWAP1 POP JUMP JUMPDEST PUSH1 0x0 PUSH1 0x20 DUP3 ADD SWAP1 POP DUP2 DUP2 SUB PUSH1 0x0 DUP4 ADD MSTORE PUSH2 0x44ED DUP2 PUSH2 0x4156 JUMP JUMPDEST SWAP1 POP SWAP2 SWAP1 POP JUMP JUMPDEST PUSH1 0x0 PUSH1 0x20 DUP3 ADD SWAP1 POP PUSH2 0x4509 PUSH1 0x0 DUP4 ADD DUP5 PUSH2 0x4179 JUMP JUMPDEST SWAP3 SWAP2 POP POP JUMP JUMPDEST PUSH1 0x0 PUSH2 0x4519 PUSH2 0x452A JUMP JUMPDEST SWAP1 POP PUSH2 0x4525 DUP3 DUP3 PUSH2 0x486F JUMP JUMPDEST SWAP2 SWAP1 POP JUMP JUMPDEST PUSH1 0x0 PUSH1 0x40 MLOAD SWAP1 POP SWAP1 JUMP JUMPDEST PUSH1 0x0 PUSH8 0xFFFFFFFFFFFFFFFF DUP3 GT ISZERO PUSH2 0x454F JUMPI PUSH2 0x454E PUSH2 0x497D JUMP JUMPDEST JUMPDEST PUSH1 0x20 DUP3 MUL SWAP1 POP PUSH1 0x20 DUP2 ADD SWAP1 POP SWAP2 SWAP1 POP JUMP JUMPDEST PUSH1 0x0 PUSH8 0xFFFFFFFFFFFFFFFF DUP3 GT ISZERO PUSH2 0x457B JUMPI PUSH2 0x457A PUSH2 0x497D JUMP JUMPDEST JUMPDEST PUSH1 0x20 DUP3 MUL SWAP1 POP SWAP2 SWAP1 POP JUMP JUMPDEST PUSH1 0x0 PUSH8 0xFFFFFFFFFFFFFFFF DUP3 GT ISZERO PUSH2 0x45A1 JUMPI PUSH2 0x45A0 PUSH2 0x497D JUMP JUMPDEST JUMPDEST PUSH1 0x20 DUP3 MUL SWAP1 POP SWAP2 SWAP1 POP JUMP JUMPDEST PUSH1 0x0 PUSH8 0xFFFFFFFFFFFFFFFF DUP3 GT ISZERO PUSH2 0x45C7 JUMPI PUSH2 0x45C6 PUSH2 0x497D JUMP JUMPDEST JUMPDEST PUSH1 0x20 DUP3 MUL SWAP1 POP SWAP2 SWAP1 POP JUMP JUMPDEST PUSH1 0x0 DUP2 SWAP1 POP SWAP2 SWAP1 POP JUMP JUMPDEST PUSH1 0x0 DUP2 SWAP1 POP PUSH1 0x20 DUP3 ADD SWAP1 POP SWAP2 SWAP1 POP JUMP JUMPDEST PUSH1 0x0 DUP2 SWAP1 POP DUP2 PUSH1 0x0 MSTORE PUSH1 0x20 PUSH1 0x0 KECCAK256 SWAP1 POP SWAP2 SWAP1 POP JUMP JUMPDEST PUSH1 0x0 DUP2 SWAP1 POP SWAP2 SWAP1 POP JUMP JUMPDEST PUSH1 0x0 PUSH1 0x1 SWAP1 POP SWAP2 SWAP1 POP JUMP JUMPDEST PUSH1 0x0 DUP2 MLOAD SWAP1 POP SWAP2 SWAP1 POP JUMP JUMPDEST PUSH1 0x0 DUP2 SLOAD SWAP1 POP SWAP2 SWAP1 POP JUMP JUMPDEST PUSH1 0x0 PUSH1 0x2 SWAP1 POP SWAP2 SWAP1 POP JUMP JUMPDEST PUSH1 0x0 DUP2 MLOAD SWAP1 POP SWAP2 SWAP1 POP JUMP JUMPDEST PUSH1 0x0 PUSH1 0x20 DUP3 ADD SWAP1 POP SWAP2 SWAP1 POP JUMP JUMPDEST PUSH1 0x0 PUSH1 0x20 DUP3 ADD SWAP1 POP SWAP2 SWAP1 POP JUMP JUMPDEST PUSH1 0x0 PUSH1 0x1 DUP3 ADD SWAP1 POP SWAP2 SWAP1 POP JUMP JUMPDEST PUSH1 0x0 PUSH1 0x20 DUP3 ADD SWAP1 POP SWAP2 SWAP1 POP JUMP JUMPDEST PUSH1 0x0 DUP2 SWAP1 POP SWAP3 SWAP2 POP POP JUMP JUMPDEST PUSH1 0x0 DUP3 DUP3 MSTORE PUSH1 0x20 DUP3 ADD SWAP1 POP SWAP3 SWAP2 POP POP JUMP JUMPDEST PUSH1 0x0 DUP2 SWAP1 POP SWAP3 SWAP2 POP POP JUMP JUMPDEST PUSH1 0x0 DUP2 SWAP1 POP SWAP3 SWAP2 POP POP JUMP JUMPDEST PUSH1 0x0 DUP2 SWAP1 POP SWAP3 SWAP2 POP POP JUMP JUMPDEST PUSH1 0x0 DUP3 DUP3 MSTORE PUSH1 0x20 DUP3 ADD SWAP1 POP SWAP3 SWAP2 POP POP JUMP JUMPDEST PUSH1 0x0 DUP2 SWAP1 POP SWAP3 SWAP2 POP POP JUMP JUMPDEST PUSH1 0x0 PUSH2 0x46DA DUP3 PUSH2 0x47FB JUMP JUMPDEST SWAP2 POP PUSH2 0x46E5 DUP4 PUSH2 0x47FB JUMP JUMPDEST SWAP3 POP DUP3 PUSH32 0xFFFFFFFFFFFFFFFFFFFFFFFFFFFFFFFFFFFFFFFFFFFFFFFFFFFFFFFFFFFFFFFF SUB DUP3 GT ISZERO PUSH2 0x471A JUMPI PUSH2 0x4719 PUSH2 0x494E JUMP JUMPDEST JUMPDEST DUP3 DUP3 ADD SWAP1 POP SWAP3 SWAP2 POP POP JUMP JUMPDEST PUSH1 0x0 PUSH2 0x4730 DUP3 PUSH2 0x4805 JUMP JUMPDEST SWAP2 POP PUSH2 0x473B DUP4 PUSH2 0x4805 JUMP JUMPDEST SWAP3 POP DUP3 PUSH4 0xFFFFFFFF SUB DUP3 GT ISZERO PUSH2 0x4754 JUMPI PUSH2 0x4753 PUSH2 0x494E JUMP JUMPDEST JUMPDEST DUP3 DUP3 ADD SWAP1 POP SWAP3 SWAP2 POP POP JUMP JUMPDEST PUSH1 0x0 PUSH2 0x476A DUP3 PUSH2 0x47FB JUMP JUMPDEST SWAP2 POP PUSH2 0x4775 DUP4 PUSH2 0x47FB JUMP JUMPDEST SWAP3 POP DUP3 DUP3 LT ISZERO PUSH2 0x4788 JUMPI PUSH2 0x4787 PUSH2 0x494E JUMP JUMPDEST JUMPDEST DUP3 DUP3 SUB SWAP1 POP SWAP3 SWAP2 POP POP JUMP JUMPDEST PUSH1 0x0 PUSH20 0xFFFFFFFFFFFFFFFFFFFFFFFFFFFFFFFFFFFFFFFF DUP3 AND SWAP1 POP SWAP2 SWAP1 POP JUMP JUMPDEST PUSH1 0x0 PUSH2 0x47BE DUP3 PUSH2 0x47DB JUMP JUMPDEST SWAP1 POP SWAP2 SWAP1 POP JUMP JUMPDEST PUSH1 0x0 DUP2 ISZERO ISZERO SWAP1 POP SWAP2 SWAP1 POP JUMP JUMPDEST PUSH1 0x0 DUP2 SWAP1 POP SWAP2 SWAP1 POP JUMP JUMPDEST PUSH1 0x0 PUSH20 0xFFFFFFFFFFFFFFFFFFFFFFFFFFFFFFFFFFFFFFFF DUP3 AND SWAP1 POP SWAP2 SWAP1 POP JUMP JUMPDEST PUSH1 0x0 DUP2 SWAP1 POP SWAP2 SWAP1 POP JUMP JUMPDEST PUSH1 0x0 PUSH4 0xFFFFFFFF DUP3 AND SWAP1 POP SWAP2 SWAP1 POP JUMP JUMPDEST PUSH1 0x0 PUSH1 0xFF DUP3 AND SWAP1 POP SWAP2 SWAP1 POP JUMP JUMPDEST PUSH1 0x0 JUMPDEST DUP4 DUP2 LT ISZERO PUSH2 0x4840 JUMPI DUP1 DUP3 ADD MLOAD DUP2 DUP5 ADD MSTORE PUSH1 0x20 DUP2 ADD SWAP1 POP PUSH2 0x4825 JUMP JUMPDEST DUP4 DUP2 GT ISZERO PUSH2 0x484F JUMPI PUSH1 0x0 DUP5 DUP5 ADD MSTORE JUMPDEST POP POP POP POP JUMP JUMPDEST PUSH1 0x0 PUSH2 0x4868 PUSH2 0x4863 DUP4 PUSH2 0x49DD JUMP JUMPDEST PUSH2 0x4793 JUMP JUMPDEST SWAP1 POP SWAP2 SWAP1 POP JUMP JUMPDEST PUSH2 0x4878 DUP3 PUSH2 0x49BF JUMP JUMPDEST DUP2 ADD DUP2 DUP2 LT PUSH8 0xFFFFFFFFFFFFFFFF DUP3 GT OR ISZERO PUSH2 0x4897 JUMPI PUSH2 0x4896 PUSH2 0x497D JUMP JUMPDEST JUMPDEST DUP1 PUSH1 0x40 MSTORE POP POP POP JUMP JUMPDEST PUSH1 0x0 PUSH2 0x48AB DUP3 PUSH2 0x47FB JUMP JUMPDEST SWAP2 POP PUSH32 0xFFFFFFFFFFFFFFFFFFFFFFFFFFFFFFFFFFFFFFFFFFFFFFFFFFFFFFFFFFFFFFFF DUP3 EQ ISZERO PUSH2 0x48DE JUMPI PUSH2 0x48DD PUSH2 0x494E JUMP JUMPDEST JUMPDEST PUSH1 0x1 DUP3 ADD SWAP1 POP SWAP2 SWAP1 POP JUMP JUMPDEST PUSH1 0x0 PUSH2 0x48F4 DUP3 PUSH2 0x4805 JUMP JUMPDEST SWAP2 POP PUSH4 0xFFFFFFFF DUP3 EQ ISZERO PUSH2 0x490B JUMPI PUSH2 0x490A PUSH2 0x494E JUMP JUMPDEST JUMPDEST PUSH1 0x1 DUP3 ADD SWAP1 POP SWAP2 SWAP1 POP JUMP JUMPDEST PUSH1 0x0 PUSH2 0x4921 DUP3 PUSH2 0x4932 JUMP JUMPDEST SWAP1 POP SWAP2 SWAP1 POP JUMP JUMPDEST PUSH1 0x0 DUP2 SWAP1 POP SWAP2 SWAP1 POP JUMP JUMPDEST PUSH1 0x0 PUSH2 0x493D DUP3 PUSH2 0x49D0 JUMP JUMPDEST SWAP1 POP SWAP2 SWAP1 POP JUMP JUMPDEST PUSH1 0x0 DUP2 SWAP1 POP SWAP2 SWAP1 POP JUMP JUMPDEST PUSH32 0x4E487B7100000000000000000000000000000000000000000000000000000000 PUSH1 0x0 MSTORE PUSH1 0x11 PUSH1 0x4 MSTORE PUSH1 0x24 PUSH1 0x0 REVERT JUMPDEST PUSH32 0x4E487B7100000000000000000000000000000000000000000000000000000000 PUSH1 0x0 MSTORE PUSH1 0x41 PUSH1 0x4 MSTORE PUSH1 0x24 PUSH1 0x0 REVERT JUMPDEST PUSH1 0x0 PUSH2 0x49B8 DUP3 SLOAD PUSH2 0x4855 JUMP JUMPDEST SWAP1 POP SWAP2 SWAP1 POP JUMP JUMPDEST PUSH1 0x0 PUSH1 0x1F NOT PUSH1 0x1F DUP4 ADD AND SWAP1 POP SWAP2 SWAP1 POP JUMP JUMPDEST PUSH1 0x0 DUP2 PUSH1 0x60 SHL SWAP1 POP SWAP2 SWAP1 POP JUMP JUMPDEST PUSH1 0x0 DUP2 PUSH1 0x0 SHR SWAP1 POP SWAP2 SWAP1 POP JUMP JUMPDEST PUSH32 0x5065726D697373696F6E2064656E6965642E0000000000000000000000000000 PUSH1 0x0 DUP3 ADD MSTORE POP JUMP JUMPDEST PUSH32 0x4920617574686F72697A6520746865206372656174696F6E206F6620616E2049 PUSH1 0x0 DUP3 ADD MSTORE PUSH32 0x64656E74697479206F6E206D7920626568616C662E0000000000000000000000 PUSH1 0x20 DUP3 ADD MSTORE POP JUMP JUMPDEST PUSH32 0x43616E6E6F742064657374726F7920616E2045494E2066726F6D20616E206164 PUSH1 0x0 DUP3 ADD MSTORE PUSH32 0x6472657373207468617420776173206E6F7420726563656E746C792072656D6F PUSH1 0x20 DUP3 ADD MSTORE PUSH32 0x7665642066726F6D20736169642045494E20766961207265636F766572792E00 PUSH1 0x40 DUP3 ADD MSTORE POP JUMP JUMPDEST PUSH2 0x4AE0 DUP2 PUSH2 0x47B3 JUMP JUMPDEST DUP2 EQ PUSH2 0x4AEB JUMPI PUSH1 0x0 DUP1 REVERT JUMPDEST POP JUMP JUMPDEST PUSH2 0x4AF7 DUP2 PUSH2 0x47C5 JUMP JUMPDEST DUP2 EQ PUSH2 0x4B02 JUMPI PUSH1 0x0 DUP1 REVERT JUMPDEST POP JUMP JUMPDEST PUSH2 0x4B0E DUP2 PUSH2 0x47D1 JUMP JUMPDEST DUP2 EQ PUSH2 0x4B19 JUMPI PUSH1 0x0 DUP1 REVERT JUMPDEST POP JUMP JUMPDEST PUSH2 0x4B25 DUP2 PUSH2 0x47FB JUMP JUMPDEST DUP2 EQ PUSH2 0x4B30 JUMPI PUSH1 0x0 DUP1 REVERT JUMPDEST POP JUMP JUMPDEST PUSH2 0x4B3C DUP2 PUSH2 0x4815 JUMP JUMPDEST DUP2 EQ PUSH2 0x4B47 JUMPI PUSH1 0x0 DUP1 REVERT JUMPDEST POP JUMP INVALID LOG2 PUSH5 0x6970667358 0x22 SLT KECCAK256 MSTORE LOG0 ADD 0x5E PUSH21 0xC5D430D72F87F4712761A1130709D8D3FDF8D01658 PUSH27 0xD94842FA9F64736F6C634300080400330000000000000000000000 "
        },
        "methodIdentifiers": {
          "addAssociatedAddress(address,address,uint8,bytes32,bytes32,uint256)": "3aedf3c9",
          "addAssociatedAddressDelegated(address,address,uint8[2],bytes32[2],bytes32[2],uint256[2])": "ab5f6781",
          "addProviders(address[])": "7d079951",
          "addProvidersFor(uint256,address[])": "960b11f5",
          "addResolvers(address[])": "e846fd91",
          "addResolversFor(uint256,address[])": "010887dc",
          "createIdentity(address,address[],address[])": "268e8970",
          "createIdentityDelegated(address,address,address[],address[],uint8,bytes32,bytes32,uint256)": "14fb5646",
          "getEIN(address)": "05c62c2f",
          "getIdentity(uint256)": "85e3f058",
          "hasIdentity(address)": "237f1a21",
          "identityExists(uint256)": "5b5aed3a",
          "isAssociatedAddressFor(uint256,address)": "a687662d",
          "isProviderFor(uint256,address)": "53a9698a",
          "isResolverFor(uint256,address)": "d4b1cdcc",
          "isSigned(address,bytes32,uint8,bytes32,bytes32)": "8677ebe8",
          "removeAssociatedAddress()": "3b4656a1",
          "removeAssociatedAddressDelegated(address,uint8,bytes32,bytes32,uint256)": "dd9ad9ed",
          "removeProviders(address[])": "232e7d83",
          "removeProvidersFor(uint256,address[])": "06c93c36",
          "removeResolvers(address[])": "b8a5c2a6",
          "removeResolversFor(uint256,address[])": "5726f660",
          "triggerDestruction(uint256,address[],address[],bool)": "fa57b576",
          "triggerRecovery(uint256,address,uint8,bytes32,bytes32,uint256)": "8e1bb633",
          "triggerRecoveryAddressChange(address)": "1bfe3508",
          "triggerRecoveryAddressChangeFor(uint256,address)": "2501faa5"
        }
      }
    }
  }
}